{
  "contractName": "DFA",
  "abi": [
    {
      "inputs": [],
      "stateMutability": "nonpayable",
      "type": "constructor"
    },
    {
      "inputs": [
        {
          "internalType": "address",
          "name": "",
          "type": "address"
        }
      ],
      "name": "balances",
      "outputs": [
        {
          "internalType": "uint256",
          "name": "",
          "type": "uint256"
        }
      ],
      "stateMutability": "view",
      "type": "function",
      "constant": true
    },
    {
      "inputs": [],
      "name": "owner",
      "outputs": [
        {
          "internalType": "address",
          "name": "",
          "type": "address"
        }
      ],
      "stateMutability": "view",
      "type": "function",
      "constant": true
    },
    {
      "inputs": [
        {
          "internalType": "uint256",
          "name": "amount",
          "type": "uint256"
        }
      ],
      "name": "mint",
      "outputs": [],
      "stateMutability": "nonpayable",
      "type": "function"
    }
  ],
  "bytecode": "0x608060405234801561001057600080fd5b5033600160006101000a81548173ffffffffffffffffffffffffffffffffffffffff021916908373ffffffffffffffffffffffffffffffffffffffff16021790555060008081905550610361806100686000396000f3fe608060405234801561001057600080fd5b50600436106100415760003560e01c806327e235e3146100465780638da5cb5b14610076578063a0712d6814610094575b600080fd5b610060600480360381019061005b91906101c2565b6100b0565b60405161006d9190610208565b60405180910390f35b61007e6100c8565b60405161008b9190610232565b60405180910390f35b6100ae60048036038101906100a99190610279565b6100ee565b005b60026020528060005260406000206000915090505481565b600160009054906101000a900473ffffffffffffffffffffffffffffffffffffffff1681565b806000808282546100ff91906102d5565b9250508190555080600260003373ffffffffffffffffffffffffffffffffffffffff1673ffffffffffffffffffffffffffffffffffffffff168152602001908152602001600020600082825461015591906102d5565b9250508190555050565b600080fd5b600073ffffffffffffffffffffffffffffffffffffffff82169050919050565b600061018f82610164565b9050919050565b61019f81610184565b81146101aa57600080fd5b50565b6000813590506101bc81610196565b92915050565b6000602082840312156101d8576101d761015f565b5b60006101e6848285016101ad565b91505092915050565b6000819050919050565b610202816101ef565b82525050565b600060208201905061021d60008301846101f9565b92915050565b61022c81610184565b82525050565b60006020820190506102476000830184610223565b92915050565b610256816101ef565b811461026157600080fd5b50565b6000813590506102738161024d565b92915050565b60006020828403121561028f5761028e61015f565b5b600061029d84828501610264565b91505092915050565b7f4e487b7100000000000000000000000000000000000000000000000000000000600052601160045260246000fd5b60006102e0826101ef565b91506102eb836101ef565b9250827fffffffffffffffffffffffffffffffffffffffffffffffffffffffffffffffff038211156103205761031f6102a6565b5b82820190509291505056fea26469706673582212204c6127e646680c18b6a4c1bac3272b709de40da86c31bce1c9e039d8022554ca64736f6c634300080b0033",
  "immutableReferences": {},
  "source": "// SPDX-License-Identifier: MIT\npragma solidity >=0.4.22 <0.9.0;\n\ncontract DFA {\n  uint256 totalSupply;\n  address public owner;\n\n  mapping (address => uint256) public balances;\n\n  constructor() public {\n    owner = msg.sender;\n    totalSupply = 0;\n  }\n\n  function mint(uint256 amount) public {\n    totalSupply += amount;\n    balances[msg.sender] += amount;\n  }\n}\n",
  "sourcePath": "C:\\Users\\Vladislav\\Desktop\\Learning\\  4\\DFAService\\DFAContracts\\contracts\\DFA.sol",
  "compiler": {
    "name": "solc",
    "version": "0.8.11+commit.d7f03943.Emscripten.clang"
  },
  "schemaVersion": "3.4.4",
  "updatedAt": "2022-03-08T20:37:17.686Z",
  "networkType": "ethereum",
  "devdoc": {
    "kind": "dev",
    "methods": {},
    "version": 1
  },
  "userdoc": {
    "kind": "user",
    "methods": {},
    "version": 1
  }
}