{
  "contractName": "Exchanger",
  "abi": [
    {
      "inputs": [
        {
          "internalType": "address",
          "name": "dfaAddressToLink",
          "type": "address"
        }
      ],
      "stateMutability": "nonpayable",
      "type": "constructor"
    },
    {
      "inputs": [],
      "name": "dfaAddress",
      "outputs": [
        {
          "internalType": "address",
          "name": "",
          "type": "address"
        }
      ],
      "stateMutability": "view",
      "type": "function"
    },
    {
      "inputs": [],
      "name": "factoryAddress",
      "outputs": [
        {
          "internalType": "address",
          "name": "",
          "type": "address"
        }
      ],
      "stateMutability": "view",
      "type": "function"
    },
    {
      "inputs": [
        {
          "internalType": "address",
          "name": "",
          "type": "address"
        },
        {
          "internalType": "uint256",
          "name": "",
          "type": "uint256"
        }
      ],
      "name": "requests",
      "outputs": [
        {
          "internalType": "address",
          "name": "user",
          "type": "address"
        },
        {
          "internalType": "uint256",
          "name": "amountToGet",
          "type": "uint256"
        },
        {
          "internalType": "uint256",
          "name": "amountToGive",
          "type": "uint256"
        }
      ],
      "stateMutability": "view",
      "type": "function"
    },
    {
      "inputs": [
        {
          "internalType": "address",
          "name": "dfaToGive",
          "type": "address"
        },
        {
          "internalType": "uint256",
          "name": "amountToGive",
          "type": "uint256"
        },
        {
          "internalType": "uint256",
          "name": "amountToGet",
          "type": "uint256"
        }
      ],
      "name": "hasCorrectRequest",
      "outputs": [
        {
          "internalType": "bool",
          "name": "",
          "type": "bool"
        }
      ],
      "stateMutability": "view",
      "type": "function"
    },
    {
      "inputs": [
        {
          "internalType": "address",
          "name": "dfaToGet",
          "type": "address"
        },
        {
          "internalType": "uint256",
          "name": "amountToGet",
          "type": "uint256"
        },
        {
          "internalType": "uint256",
          "name": "amountToGive",
          "type": "uint256"
        }
      ],
      "name": "addRequest",
      "outputs": [],
      "stateMutability": "nonpayable",
      "type": "function"
    },
    {
      "inputs": [
        {
          "internalType": "address",
          "name": "user",
          "type": "address"
        },
        {
          "internalType": "address",
          "name": "dfaToGive",
          "type": "address"
        },
        {
          "internalType": "uint256",
          "name": "amountToGive",
          "type": "uint256"
        },
        {
          "internalType": "uint256",
          "name": "amountToGet",
          "type": "uint256"
        }
      ],
      "name": "tryToExchange",
      "outputs": [],
      "stateMutability": "nonpayable",
      "type": "function"
    }
  ],
  "bytecode": "0x60806040523480156200001157600080fd5b5060405162001bb338038062001bb383398181016040528101906200003791906200019e565b80600073ffffffffffffffffffffffffffffffffffffffff168173ffffffffffffffffffffffffffffffffffffffff161415620000ab576040517f08c379a0000000000000000000000000000000000000000000000000000000008152600401620000a29062000231565b60405180910390fd5b816000806101000a81548173ffffffffffffffffffffffffffffffffffffffff021916908373ffffffffffffffffffffffffffffffffffffffff16021790555033600160006101000a81548173ffffffffffffffffffffffffffffffffffffffff021916908373ffffffffffffffffffffffffffffffffffffffff160217905550505062000253565b600080fd5b600073ffffffffffffffffffffffffffffffffffffffff82169050919050565b6000620001668262000139565b9050919050565b620001788162000159565b81146200018457600080fd5b50565b60008151905062000198816200016d565b92915050565b600060208284031215620001b757620001b662000134565b5b6000620001c78482850162000187565b91505092915050565b600082825260208201905092915050565b7f496e76616c696420616464726573730000000000000000000000000000000000600082015250565b600062000219600f83620001d0565b91506200022682620001e1565b602082019050919050565b600060208201905081810360008301526200024c816200020a565b9050919050565b61195080620002636000396000f3fe608060405234801561001057600080fd5b50600436106100625760003560e01c806354d828951461006757806354dbc21e146100835780638738a3f51461009f578063873deb04146100cf578063966dae0e146100ed5780639ecebe2a1461010b575b600080fd5b610081600480360381019061007c919061128f565b61013d565b005b61009d600480360381019061009891906112f6565b61070f565b005b6100b960048036038101906100b491906112f6565b610ed0565b6040516100c69190611364565b60405180910390f35b6100d7611145565b6040516100e4919061138e565b60405180910390f35b6100f5611169565b604051610102919061138e565b60405180910390f35b610125600480360381019061012091906113a9565b61118f565b604051610134939291906113f8565b60405180910390f35b8160008111610181576040517f08c379a00000000000000000000000000000000000000000000000000000000081526004016101789061148c565b60405180910390fd5b81600081116101c5576040517f08c379a00000000000000000000000000000000000000000000000000000000081526004016101bc9061148c565b60405180910390fd5b84600073ffffffffffffffffffffffffffffffffffffffff168173ffffffffffffffffffffffffffffffffffffffff161415610236576040517f08c379a000000000000000000000000000000000000000000000000000000000815260040161022d906114f8565b60405180910390fd5b86600073ffffffffffffffffffffffffffffffffffffffff168173ffffffffffffffffffffffffffffffffffffffff1614156102a7576040517f08c379a000000000000000000000000000000000000000000000000000000000815260040161029e906114f8565b60405180910390fd5b8587818173ffffffffffffffffffffffffffffffffffffffff166370a08231336040518263ffffffff1660e01b81526004016102e3919061138e565b602060405180830381865afa158015610300573d6000803e3d6000fd5b505050506040513d601f19601f82011682018060405250810190610324919061152d565b1015610365576040517f08c379a000000000000000000000000000000000000000000000000000000000815260040161035c906115a6565b60405180910390fd5b818173ffffffffffffffffffffffffffffffffffffffff1663dd62ed3e33306040518363ffffffff1660e01b81526004016103a19291906115c6565b602060405180830381865afa1580156103be573d6000803e3d6000fd5b505050506040513d601f19601f820116820180604052508101906103e2919061152d565b1015610423576040517f08c379a000000000000000000000000000000000000000000000000000000000815260040161041a9061163b565b60405180910390fd5b6000600260008b73ffffffffffffffffffffffffffffffffffffffff1673ffffffffffffffffffffffffffffffffffffffff168152602001908152602001600020805480602002602001604051908101604052809291908181526020016000905b8282101561052057838290600052602060002090600302016040518060600160405290816000820160009054906101000a900473ffffffffffffffffffffffffffffffffffffffff1673ffffffffffffffffffffffffffffffffffffffff1673ffffffffffffffffffffffffffffffffffffffff1681526020016001820154815260200160028201548152505081526020019060010190610484565b5050505090506000805b82518110156106c05760008382815181106105485761054761165b565b5b602002602001015190508b816020015114801561056857508a8160400151145b156106ac576000816020018181525050600081604001818152505060008054906101000a900473ffffffffffffffffffffffffffffffffffffffff1673ffffffffffffffffffffffffffffffffffffffff1663a9059cbb8f8d6040518363ffffffff1660e01b81526004016105de92919061168a565b6020604051808303816000875af11580156105fd573d6000803e3d6000fd5b505050506040513d601f19601f8201168201806040525081019061062191906116df565b508c73ffffffffffffffffffffffffffffffffffffffff166323b872dd3383600001518f6040518463ffffffff1660e01b81526004016106639392919061170c565b6020604051808303816000875af1158015610682573d6000803e3d6000fd5b505050506040513d601f19601f820116820180604052508101906106a691906116df565b50600192505b5080806106b890611772565b91505061052a565b5080610701576040517f08c379a00000000000000000000000000000000000000000000000000000000081526004016106f890611807565b60405180910390fd5b505050505050505050505050565b8060008111610753576040517f08c379a000000000000000000000000000000000000000000000000000000000815260040161074a9061148c565b60405180910390fd5b8260008111610797576040517f08c379a000000000000000000000000000000000000000000000000000000000815260040161078e9061148c565b60405180910390fd5b84600073ffffffffffffffffffffffffffffffffffffffff168173ffffffffffffffffffffffffffffffffffffffff161415610808576040517f08c379a00000000000000000000000000000000000000000000000000000000081526004016107ff906114f8565b60405180910390fd5b853373ffffffffffffffffffffffffffffffffffffffff16600160009054906101000a900473ffffffffffffffffffffffffffffffffffffffff1673ffffffffffffffffffffffffffffffffffffffff16632f1d7fa7836040518263ffffffff1660e01b815260040161087b919061138e565b602060405180830381865afa158015610898573d6000803e3d6000fd5b505050506040513d601f19601f820116820180604052508101906108bc919061183c565b73ffffffffffffffffffffffffffffffffffffffff1614610912576040517f08c379a0000000000000000000000000000000000000000000000000000000008152600401610909906118b5565b60405180910390fd5b8460008054906101000a900473ffffffffffffffffffffffffffffffffffffffff16818173ffffffffffffffffffffffffffffffffffffffff166370a08231336040518263ffffffff1660e01b815260040161096e919061138e565b602060405180830381865afa15801561098b573d6000803e3d6000fd5b505050506040513d601f19601f820116820180604052508101906109af919061152d565b10156109f0576040517f08c379a00000000000000000000000000000000000000000000000000000000081526004016109e7906115a6565b60405180910390fd5b818173ffffffffffffffffffffffffffffffffffffffff1663dd62ed3e33306040518363ffffffff1660e01b8152600401610a2c9291906115c6565b602060405180830381865afa158015610a49573d6000803e3d6000fd5b505050506040513d601f19601f82011682018060405250810190610a6d919061152d565b1015610aae576040517f08c379a0000000000000000000000000000000000000000000000000000000008152600401610aa59061163b565b60405180910390fd5b6000600160009054906101000a900473ffffffffffffffffffffffffffffffffffffffff1673ffffffffffffffffffffffffffffffffffffffff16632f1d7fa78b6040518263ffffffff1660e01b8152600401610b0b919061138e565b602060405180830381865afa158015610b28573d6000803e3d6000fd5b505050506040513d601f19601f82011682018060405250810190610b4c919061183c565b9050600081905060008054906101000a900473ffffffffffffffffffffffffffffffffffffffff1673ffffffffffffffffffffffffffffffffffffffff166323b872dd33308c6040518463ffffffff1660e01b8152600401610bb09392919061170c565b6020604051808303816000875af1158015610bcf573d6000803e3d6000fd5b505050506040513d601f19601f82011682018060405250810190610bf391906116df565b508073ffffffffffffffffffffffffffffffffffffffff16638738a3f560008054906101000a900473ffffffffffffffffffffffffffffffffffffffff168b8d6040518463ffffffff1660e01b8152600401610c51939291906113f8565b602060405180830381865afa158015610c6e573d6000803e3d6000fd5b505050506040513d601f19601f82011682018060405250810190610c9291906116df565b15610dcc5760008054906101000a900473ffffffffffffffffffffffffffffffffffffffff1673ffffffffffffffffffffffffffffffffffffffff1663095ea7b3838b6040518363ffffffff1660e01b8152600401610cf292919061168a565b6020604051808303816000875af1158015610d11573d6000803e3d6000fd5b505050506040513d601f19601f82011682018060405250810190610d3591906116df565b508073ffffffffffffffffffffffffffffffffffffffff166354d828953360008054906101000a900473ffffffffffffffffffffffffffffffffffffffff168c8e6040518563ffffffff1660e01b8152600401610d9594939291906118d5565b600060405180830381600087803b158015610daf57600080fd5b505af1158015610dc3573d6000803e3d6000fd5b50505050610ec3565b600260008c73ffffffffffffffffffffffffffffffffffffffff1673ffffffffffffffffffffffffffffffffffffffff16815260200190815260200160002060405180606001604052803373ffffffffffffffffffffffffffffffffffffffff1681526020018c81526020018b815250908060018154018082558091505060019003906000526020600020906003020160009091909190915060008201518160000160006101000a81548173ffffffffffffffffffffffffffffffffffffffff021916908373ffffffffffffffffffffffffffffffffffffffff160217905550602082015181600101556040820151816002015550505b5050505050505050505050565b60008260008111610f16576040517f08c379a0000000000000000000000000000000000000000000000000000000008152600401610f0d9061148c565b60405180910390fd5b8260008111610f5a576040517f08c379a0000000000000000000000000000000000000000000000000000000008152600401610f519061148c565b60405180910390fd5b85600073ffffffffffffffffffffffffffffffffffffffff168173ffffffffffffffffffffffffffffffffffffffff161415610fcb576040517f08c379a0000000000000000000000000000000000000000000000000000000008152600401610fc2906114f8565b60405180910390fd5b6000600260008973ffffffffffffffffffffffffffffffffffffffff1673ffffffffffffffffffffffffffffffffffffffff168152602001908152602001600020805480602002602001604051908101604052809291908181526020016000905b828210156110c857838290600052602060002090600302016040518060600160405290816000820160009054906101000a900473ffffffffffffffffffffffffffffffffffffffff1673ffffffffffffffffffffffffffffffffffffffff1673ffffffffffffffffffffffffffffffffffffffff168152602001600182015481526020016002820154815250508152602001906001019061102c565b50505050905060005b81518110156111345760008282815181106110ef576110ee61165b565b5b6020026020010151905088816020015114801561110f5750878160400151145b15611120576001965050505061113b565b50808061112c90611772565b9150506110d1565b5060009450505b5050509392505050565b60008054906101000a900473ffffffffffffffffffffffffffffffffffffffff1681565b600160009054906101000a900473ffffffffffffffffffffffffffffffffffffffff1681565b600260205281600052604060002081815481106111ab57600080fd5b9060005260206000209060030201600091509150508060000160009054906101000a900473ffffffffffffffffffffffffffffffffffffffff16908060010154908060020154905083565b600080fd5b600073ffffffffffffffffffffffffffffffffffffffff82169050919050565b6000611226826111fb565b9050919050565b6112368161121b565b811461124157600080fd5b50565b6000813590506112538161122d565b92915050565b6000819050919050565b61126c81611259565b811461127757600080fd5b50565b60008135905061128981611263565b92915050565b600080600080608085870312156112a9576112a86111f6565b5b60006112b787828801611244565b94505060206112c887828801611244565b93505060406112d98782880161127a565b92505060606112ea8782880161127a565b91505092959194509250565b60008060006060848603121561130f5761130e6111f6565b5b600061131d86828701611244565b935050602061132e8682870161127a565b925050604061133f8682870161127a565b9150509250925092565b60008115159050919050565b61135e81611349565b82525050565b60006020820190506113796000830184611355565b92915050565b6113888161121b565b82525050565b60006020820190506113a3600083018461137f565b92915050565b600080604083850312156113c0576113bf6111f6565b5b60006113ce85828601611244565b92505060206113df8582860161127a565b9150509250929050565b6113f281611259565b82525050565b600060608201905061140d600083018661137f565b61141a60208301856113e9565b61142760408301846113e9565b949350505050565b600082825260208201905092915050565b7f4e756d62657220697320657175616c20746f207a65726f000000000000000000600082015250565b600061147660178361142f565b915061148182611440565b602082019050919050565b600060208201905081810360008301526114a581611469565b9050919050565b7f496e76616c696420616464726573730000000000000000000000000000000000600082015250565b60006114e2600f8361142f565b91506114ed826114ac565b602082019050919050565b60006020820190508181036000830152611511816114d5565b9050919050565b60008151905061152781611263565b92915050565b600060208284031215611543576115426111f6565b5b600061155184828501611518565b91505092915050565b7f53656e64657220646f6573206e6f74206861766520656e6f7567682064666100600082015250565b6000611590601f8361142f565b915061159b8261155a565b602082019050919050565b600060208201905081810360008301526115bf81611583565b9050919050565b60006040820190506115db600083018561137f565b6115e8602083018461137f565b9392505050565b7f416d6f756e74206f6620444641206973206e6f7420616c6c6f77656400000000600082015250565b6000611625601c8361142f565b9150611630826115ef565b602082019050919050565b6000602082019050818103600083015261165481611618565b9050919050565b7f4e487b7100000000000000000000000000000000000000000000000000000000600052603260045260246000fd5b600060408201905061169f600083018561137f565b6116ac60208301846113e9565b9392505050565b6116bc81611349565b81146116c757600080fd5b50565b6000815190506116d9816116b3565b92915050565b6000602082840312156116f5576116f46111f6565b5b6000611703848285016116ca565b91505092915050565b6000606082019050611721600083018661137f565b61172e602083018561137f565b61173b60408301846113e9565b949350505050565b7f4e487b7100000000000000000000000000000000000000000000000000000000600052601160045260246000fd5b600061177d82611259565b91507fffffffffffffffffffffffffffffffffffffffffffffffffffffffffffffffff8214156117b0576117af611743565b5b600182019050919050565b7f56616c69642072657175657374206e6f7420666f756e64000000000000000000600082015250565b60006117f160178361142f565b91506117fc826117bb565b602082019050919050565b60006020820190508181036000830152611820816117e4565b9050919050565b6000815190506118368161122d565b92915050565b600060208284031215611852576118516111f6565b5b600061186084828501611827565b91505092915050565b7f45786368616e67657220666f7220646661206e6f7420666f756e640000000000600082015250565b600061189f601b8361142f565b91506118aa82611869565b602082019050919050565b600060208201905081810360008301526118ce81611892565b9050919050565b60006080820190506118ea600083018761137f565b6118f7602083018661137f565b61190460408301856113e9565b61191160608301846113e9565b9594505050505056fea2646970667358221220bebe561b5e9d9e00c4120a86df613aa24675dc5534d4398f4c011cd17905dec064736f6c634300080b0033",
  "immutableReferences": {},
  "source": "// SPDX-License-Identifier: MIT\r\npragma solidity ^0.8.3;\r\n\r\nimport \"./DFA.sol\";\r\nimport \"./Factory.sol\";\r\n\r\ncontract Exchanger {\r\n  struct ExchangerRequestInfo {\r\n    address user;\r\n    uint amountToGet;\r\n    uint amountToGive;\r\n  }\r\n\r\n  address public dfaAddress;\r\n  address public factoryAddress;\r\n  mapping (address => ExchangerRequestInfo[]) public requests;\r\n\r\n  modifier isAddressValid(address addressToCheck) {\r\n    require(addressToCheck != address(0), \"Invalid address\");\r\n    _;\r\n  }\r\n\r\n  modifier isNotZero(uint num) {\r\n    require(num > 0, \"Number is equal to zero\");\r\n    _;\r\n  }\r\n\r\n  modifier isAmountCanTransfer(uint amount, address dfa) {\r\n    require(\r\n      DFA(dfa).balanceOf(msg.sender) >= amount,\r\n      \"Sender does not have enough dfa\"\r\n    );\r\n    require(\r\n      DFA(dfa).allowance(msg.sender, address(this)) >= amount,\r\n      \"Amount of DFA is not allowed\"\r\n    );\r\n    _;\r\n  }\r\n\r\n  modifier isDfaValid(address addressToCheck) {\r\n    require(\r\n      Factory(factoryAddress).getExchanger(addressToCheck) == msg.sender,\r\n      \"Exchanger for dfa not found\"\r\n    );\r\n    _;\r\n  }\r\n\r\n  constructor(address dfaAddressToLink) isAddressValid(dfaAddressToLink) {\r\n    dfaAddress = dfaAddressToLink;\r\n    factoryAddress = msg.sender;\r\n  }\r\n\r\n  function hasCorrectRequest(\r\n    address dfaToGive,\r\n    uint amountToGive,\r\n    uint amountToGet\r\n  )\r\n    external\r\n    view\r\n    isNotZero(amountToGive)\r\n    isNotZero(amountToGet)\r\n    isAddressValid(dfaToGive)\r\n    returns (bool)\r\n  {\r\n    ExchangerRequestInfo[] memory requestList = requests[dfaToGive];\r\n    for (uint i = 0; i < requestList.length; i++) {\r\n      ExchangerRequestInfo memory request = requestList[i];\r\n      if (request.amountToGet == amountToGive && request.amountToGive == amountToGet) {\r\n        return true;\r\n      }\r\n    }\r\n    return false;\r\n  }\r\n\r\n  function addRequest(\r\n    address dfaToGet,\r\n    uint amountToGet,\r\n    uint amountToGive\r\n  )\r\n    external\r\n    isNotZero(amountToGive)\r\n    isNotZero(amountToGet)\r\n    isAddressValid(dfaToGet)\r\n    isDfaValid(dfaToGet)\r\n    isAmountCanTransfer(amountToGive, dfaAddress)\r\n  {\r\n    address exchangerAddress = Factory(factoryAddress).getExchanger(dfaToGet);\r\n    Exchanger exchanger = Exchanger(exchangerAddress);\r\n    DFA(dfaAddress).transferFrom(msg.sender, address(this), amountToGive);\r\n    if (exchanger.hasCorrectRequest(dfaAddress, amountToGive, amountToGet)) {\r\n      DFA(dfaAddress).approve(exchangerAddress, amountToGive);\r\n      exchanger.tryToExchange(\r\n        msg.sender,\r\n        dfaAddress,\r\n        amountToGive,\r\n        amountToGet\r\n      );\r\n    } else {\r\n      requests[dfaToGet].push(\r\n        ExchangerRequestInfo(\r\n          msg.sender,\r\n          amountToGet,\r\n          amountToGive\r\n        )\r\n      );\r\n    }\r\n  }\r\n\r\n  function tryToExchange(\r\n    address user,\r\n    address dfaToGive,\r\n    uint amountToGive,\r\n    uint amountToGet\r\n  )\r\n    external\r\n    isNotZero(amountToGive)\r\n    isNotZero(amountToGet)\r\n    isAddressValid(dfaToGive)\r\n    isAddressValid(user)\r\n    isAmountCanTransfer(amountToGive, dfaToGive)\r\n  {\r\n    ExchangerRequestInfo[] memory requestList = requests[dfaToGive];\r\n    bool isValidRequestFound = false;\r\n    for (uint i = 0; i < requestList.length; i++) {\r\n      ExchangerRequestInfo memory request = requestList[i];\r\n      if (request.amountToGet == amountToGive && request.amountToGive == amountToGet) {\r\n        request.amountToGet = 0;\r\n        request.amountToGive = 0;\r\n        DFA(dfaAddress).transfer(user, amountToGet);\r\n        DFA(dfaToGive).transferFrom(msg.sender, request.user, amountToGive);\r\n        isValidRequestFound = true;\r\n      }\r\n    }\r\n    require(isValidRequestFound, \"Valid request not found\");\r\n  }\r\n}",
  "sourcePath": "C:\\Users\\Vladislav\\Desktop\\Learning\\  4\\DFAService\\DFAContracts\\contracts\\Exchanger.sol",
  "compiler": {
    "name": "solc",
    "version": "0.8.11+commit.d7f03943.Emscripten.clang"
  },
  "schemaVersion": "3.4.4",
  "updatedAt": "2022-04-18T21:31:32.840Z",
  "devdoc": {
    "kind": "dev",
    "methods": {},
    "version": 1
  },
  "userdoc": {
    "kind": "user",
    "methods": {},
    "version": 1
  }
}