{
  "contractName": "Exchanger",
  "abi": [
    {
      "inputs": [
        {
          "internalType": "address",
          "name": "dfaAddressToLink",
          "type": "address"
        }
      ],
      "stateMutability": "nonpayable",
      "type": "constructor"
    },
    {
      "anonymous": false,
      "inputs": [
        {
          "indexed": false,
          "internalType": "address",
          "name": "firstUser",
          "type": "address"
        },
        {
          "indexed": false,
          "internalType": "address",
          "name": "firstDfa",
          "type": "address"
        },
        {
          "indexed": false,
          "internalType": "uint256",
          "name": "firstAmount",
          "type": "uint256"
        },
        {
          "indexed": false,
          "internalType": "address",
          "name": "secondUser",
          "type": "address"
        },
        {
          "indexed": false,
          "internalType": "address",
          "name": "secondDfa",
          "type": "address"
        },
        {
          "indexed": false,
          "internalType": "uint256",
          "name": "secondAmount",
          "type": "uint256"
        }
      ],
      "name": "ExchangeCompleted",
      "type": "event"
    },
    {
      "inputs": [],
      "name": "dfaAddress",
      "outputs": [
        {
          "internalType": "address",
          "name": "",
          "type": "address"
        }
      ],
      "stateMutability": "view",
      "type": "function"
    },
    {
      "inputs": [],
      "name": "factoryAddress",
      "outputs": [
        {
          "internalType": "address",
          "name": "",
          "type": "address"
        }
      ],
      "stateMutability": "view",
      "type": "function"
    },
    {
      "inputs": [
        {
          "internalType": "address",
          "name": "",
          "type": "address"
        },
        {
          "internalType": "uint256",
          "name": "",
          "type": "uint256"
        }
      ],
      "name": "requests",
      "outputs": [
        {
          "internalType": "enum Exchanger.ExchangeType",
          "name": "exchangeType",
          "type": "uint8"
        },
        {
          "internalType": "address",
          "name": "user",
          "type": "address"
        },
        {
          "internalType": "uint256",
          "name": "amountToGet",
          "type": "uint256"
        },
        {
          "internalType": "uint256",
          "name": "amountToGive",
          "type": "uint256"
        },
        {
          "internalType": "uint256",
          "name": "endTime",
          "type": "uint256"
        },
        {
          "internalType": "enum Exchanger.ExchangeStatus",
          "name": "status",
          "type": "uint8"
        }
      ],
      "stateMutability": "view",
      "type": "function"
    },
    {
      "inputs": [
        {
          "components": [
            {
              "internalType": "enum Exchanger.ExchangeType",
              "name": "exchangeType",
              "type": "uint8"
            },
            {
              "internalType": "address",
              "name": "dfaToGive",
              "type": "address"
            },
            {
              "internalType": "uint256",
              "name": "amountToGive",
              "type": "uint256"
            },
            {
              "internalType": "uint256",
              "name": "amountToGet",
              "type": "uint256"
            }
          ],
          "internalType": "struct Exchanger.GetReciprocalRequestInfoParams",
          "name": "info",
          "type": "tuple"
        },
        {
          "internalType": "uint256",
          "name": "index",
          "type": "uint256"
        }
      ],
      "name": "getReciprocalRequestInfo",
      "outputs": [
        {
          "components": [
            {
              "internalType": "bool",
              "name": "isFound",
              "type": "bool"
            },
            {
              "internalType": "address",
              "name": "user",
              "type": "address"
            },
            {
              "internalType": "uint256",
              "name": "index",
              "type": "uint256"
            },
            {
              "internalType": "uint256",
              "name": "reciprocalAmountToGet",
              "type": "uint256"
            },
            {
              "internalType": "uint256",
              "name": "reciprocalAmountToGive",
              "type": "uint256"
            }
          ],
          "internalType": "struct Exchanger.ReciprocalRequestInfo",
          "name": "",
          "type": "tuple"
        }
      ],
      "stateMutability": "view",
      "type": "function"
    },
    {
      "inputs": [
        {
          "components": [
            {
              "internalType": "enum Exchanger.ExchangeType",
              "name": "exchangeType",
              "type": "uint8"
            },
            {
              "internalType": "address",
              "name": "dfaToGet",
              "type": "address"
            },
            {
              "internalType": "uint256",
              "name": "amountToGet",
              "type": "uint256"
            },
            {
              "internalType": "uint256",
              "name": "amountToGive",
              "type": "uint256"
            },
            {
              "internalType": "uint256",
              "name": "endTime",
              "type": "uint256"
            }
          ],
          "internalType": "struct Exchanger.AddExchangeRequestParams",
          "name": "data",
          "type": "tuple"
        }
      ],
      "name": "addRequest",
      "outputs": [],
      "stateMutability": "nonpayable",
      "type": "function"
    },
    {
      "inputs": [
        {
          "components": [
            {
              "internalType": "address",
              "name": "dfaToGive",
              "type": "address"
            },
            {
              "internalType": "uint256",
              "name": "amountToGive",
              "type": "uint256"
            },
            {
              "internalType": "uint256",
              "name": "amountToGet",
              "type": "uint256"
            },
            {
              "internalType": "uint256",
              "name": "requestIndex",
              "type": "uint256"
            },
            {
              "internalType": "address",
              "name": "buyer",
              "type": "address"
            }
          ],
          "internalType": "struct Exchanger.TryToExchangeParams",
          "name": "params",
          "type": "tuple"
        }
      ],
      "name": "tryToExchange",
      "outputs": [],
      "stateMutability": "nonpayable",
      "type": "function"
    },
    {
      "inputs": [
        {
          "internalType": "address",
          "name": "dfa",
          "type": "address"
        }
      ],
      "name": "getRequestsByDfa",
      "outputs": [
        {
          "internalType": "address[]",
          "name": "",
          "type": "address[]"
        },
        {
          "internalType": "uint256[]",
          "name": "",
          "type": "uint256[]"
        },
        {
          "internalType": "uint256[]",
          "name": "",
          "type": "uint256[]"
        }
      ],
      "stateMutability": "view",
      "type": "function"
    },
    {
      "inputs": [
        {
          "internalType": "address[]",
          "name": "dfaList",
          "type": "address[]"
        }
      ],
      "name": "closeOldRequests",
      "outputs": [],
      "stateMutability": "nonpayable",
      "type": "function"
    }
  ],
  "bytecode": "0x60806040523480156200001157600080fd5b5060405162002361380380620023618339810160408190526200003491620000b2565b806001600160a01b038116620000825760405162461bcd60e51b815260206004820152600f60248201526e496e76616c6964206164647265737360881b604482015260640160405180910390fd5b50600080546001600160a01b039092166001600160a01b03199283161790556001805490911633179055620000e4565b600060208284031215620000c557600080fd5b81516001600160a01b0381168114620000dd57600080fd5b9392505050565b61226d80620000f46000396000f3fe608060405234801561001057600080fd5b50600436106100785760003560e01c80636bef7a2b1461007d578063873deb04146100925780638c75d7b4146100bb578063966dae0e146100dd5780639ecebe2a146100f0578063c31f271014610115578063d550a5d414610128578063e09d6c3614610183575b600080fd5b61009061008b366004611c51565b610196565b005b6000546100a5906001600160a01b031681565b6040516100b29190611cb3565b60405180910390f35b6100ce6100c9366004611cc7565b610d84565b6040516100b293929190611d1f565b6001546100a5906001600160a01b031681565b6101036100fe366004611d94565b611148565b6040516100b296959493929190611df4565b610090610123366004611e42565b6111ad565b61013b610136366004611ea3565b6114d9565b6040516100b291908151151581526020808301516001600160a01b03169082015260408083015190820152606080830151908201526080918201519181019190915260a00190565b610090610191366004611f2a565b611963565b80606001518160400151600082116101c95760405162461bcd60e51b81526004016101c090611fdb565b60405180910390fd5b600081116101e95760405162461bcd60e51b81526004016101c090611fdb565b60208301516001600160a01b0381166102145760405162461bcd60e51b81526004016101c09061200c565b6020840151600154604051632f1d7fa760e01b81526000916001600160a01b031690632f1d7fa79061024a908590600401611cb3565b602060405180830381865afa158015610267573d6000803e3d6000fd5b505050506040513d601f19601f8201168201806040525081019061028b9190612035565b6001600160a01b031614156102e05760405162461bcd60e51b815260206004820152601b60248201527a115e18da185b99d95c88199bdc88191998481b9bdd08199bdd5b99602a1b60448201526064016101c0565b60608501516000546040516370a0823160e01b815282916001600160a01b0316906370a0823190610315903390600401611cb3565b602060405180830381865afa158015610332573d6000803e3d6000fd5b505050506040513d601f19601f820116820180604052508101906103569190612052565b10156103a45760405162461bcd60e51b815260206004820152601f60248201527f53656e64657220646f6573206e6f74206861766520656e6f756768206466610060448201526064016101c0565b600054604051636eb1769f60e11b815233600482015230602482015282916001600160a01b03169063dd62ed3e90604401602060405180830381865afa1580156103f2573d6000803e3d6000fd5b505050506040513d601f19601f820116820180604052508101906104169190612052565b10156104635760405162461bcd60e51b815260206004820152601c60248201527b105b5bdd5b9d081bd988111190481a5cc81b9bdd08185b1b1bddd95960221b60448201526064016101c0565b6001546020870151604051632f1d7fa760e01b81526000926001600160a01b031691632f1d7fa7916104989190600401611cb3565b602060405180830381865afa1580156104b5573d6000803e3d6000fd5b505050506040513d601f19601f820116820180604052508101906104d99190612035565b60005460608901516040516323b872dd60e01b8152336004820152306024820152604481019190915291925082916001600160a01b03909116906323b872dd906064016020604051808303816000875af115801561053b573d6000803e3d6000fd5b505050506040513d601f19601f8201168201806040525081019061055f919061207b565b506000816001600160a01b031663d550a5d460405180608001604052808c60000151600181111561059257610592611dc0565b8152600080546001600160a01b031660208301526060808f01516040808501919091528f810151919093015290516001600160e01b031960e085901b1681526105df9291906004016120cb565b60a060405180830381865afa1580156105fc573d6000803e3d6000fd5b505050506040513d601f19601f8201168201806040525081019061062091906120e6565b905060008951600181111561063757610637611dc0565b14156108955780511561076557600054602082015160608b015160405163a9059cbb60e01b81526001600160a01b039093169263a9059cbb9261067e929091600401612148565b6020604051808303816000875af115801561069d573d6000803e3d6000fd5b505050506040513d601f19601f820116820180604052508101906106c1919061207b565b506040805160a0810182526000546001600160a01b0390811682526060808d015160208401528c8401518385015284840151908301523360808301529151630c31f27160e41b81529184169163c31f27109161071f91600401612161565b600060405180830381600087803b15801561073957600080fd5b505af115801561074d573d6000803e3d6000fd5b5050600060608c0181905260408c015250610d799050565b600260008a602001516001600160a01b03166001600160a01b031681526020019081526020016000206040518060c001604052808b6000015160018111156107af576107af611dc0565b815233602082015260408c810151908201526060808d0151908201526080808d01519082015260a00160009052815460018181018455600093845260209093208251600590920201805492939092839160ff1990911690838181111561081757610817611dc0565b0217905550602082015181546001600160a01b0390911661010002610100600160a81b03199091161781556040820151600180830191909155606083015160028301556080830151600383015560a08301516004830180549192909160ff191690838181111561088957610889611dc0565b02179055505050610d79565b805180156108a7575060008960600151115b80156108b7575060008960400151115b15610c305788606001518160600151111580156108dc57508860400151816080015111155b15610a29576000546020820151606083015160405163a9059cbb60e01b81526001600160a01b039093169263a9059cbb9261091b929091600401612148565b6020604051808303816000875af115801561093a573d6000803e3d6000fd5b505050506040513d601f19601f8201168201806040525081019061095e919061207b565b506040805160a0810182526000546001600160a01b039081168252606080850151602084015260808086015184860152858501519184019190915233908301529151630c31f27160e41b81529184169163c31f2710916109c091600401612161565b600060405180830381600087803b1580156109da57600080fd5b505af11580156109ee573d6000803e3d6000fd5b50505050806060015189606001818151610a0891906121b8565b905250608081015160408a018051610a219083906121b8565b905250610b45565b600054602082015160608b015160405163a9059cbb60e01b81526001600160a01b039093169263a9059cbb92610a63929091600401612148565b6020604051808303816000875af1158015610a82573d6000803e3d6000fd5b505050506040513d601f19601f82011682018060405250810190610aa6919061207b565b506040805160a0810182526000546001600160a01b0390811682526060808d015160208401528c8401518385015284840151908301523360808301529151630c31f27160e41b81529184169163c31f271091610b0491600401612161565b600060405180830381600087803b158015610b1e57600080fd5b505af1158015610b32573d6000803e3d6000fd5b5050600060608c0181905260408c015250505b60608901511580610b5857506040890151155b15610b6257610c30565b816001600160a01b031663d550a5d460405180608001604052808c600001516001811115610b9257610b92611dc0565b81526000546001600160a01b031660208201526060808e01516040808401919091528e8101519190920152840151610bcb9060016121cf565b6040518363ffffffff1660e01b8152600401610be89291906120cb565b60a060405180830381865afa158015610c05573d6000803e3d6000fd5b505050506040513d601f19601f82011682018060405250810190610c2991906120e6565b9050610895565b60008960400151118015610c48575060008960600151115b15610d7957600260008a602001516001600160a01b03166001600160a01b031681526020019081526020016000206040518060c001604052808b600001516001811115610c9757610c97611dc0565b815233602082015260408c810151908201526060808d0151908201526080808d01519082015260a00160009052815460018181018455600093845260209093208251600590920201805492939092839160ff19909116908381811115610cff57610cff611dc0565b0217905550602082015181546001600160a01b0390911661010002610100600160a81b03199091161781556040820151600180830191909155606083015160028301556080830151600383015560a08301516004830180549192909160ff1916908381811115610d7157610d71611dc0565b021790555050505b505050505050505050565b60608080836001600160a01b038116610daf5760405162461bcd60e51b81526004016101c09061200c565b6001600160a01b038516600090815260026020908152604080832080548251818502810185019093528083529192909190849084015b82821015610ea9576000848152602090206040805160c08101909152600584029091018054829060ff166001811115610e2057610e20611dc0565b6001811115610e3157610e31611dc0565b8152815461010090046001600160a01b0316602082015260018083015460408301526002830154606083015260038301546080830152600483015460a09092019160ff1690811115610e8557610e85611dc0565b6001811115610e9657610e96611dc0565b8152505081526020019060010190610de5565b5050505090506000805b8251811015610f3c576000838281518110610ed057610ed06121e7565b602002602001015160a001516001811115610eed57610eed611dc0565b148015610f17575042838281518110610f0857610f086121e7565b60200260200101516080015110155b15610f2a5781610f26816121fd565b9250505b80610f34816121fd565b915050610eb3565b506000816001600160401b03811115610f5757610f57611bb7565b604051908082528060200260200182016040528015610f80578160200160208202803683370190505b5090506000826001600160401b03811115610f9d57610f9d611bb7565b604051908082528060200260200182016040528015610fc6578160200160208202803683370190505b5090506000836001600160401b03811115610fe357610fe3611bb7565b60405190808252806020026020018201604052801561100c578160200160208202803683370190505b5090506000805b8651811015611137576000878281518110611030576110306121e7565b602002602001015160a00151600181111561104d5761104d611dc0565b148015611077575042878281518110611068576110686121e7565b60200260200101516080015110155b15611125576000878281518110611090576110906121e7565b6020026020010151905080602001518684815181106110b1576110b16121e7565b60200260200101906001600160a01b031690816001600160a01b03168152505080604001518584815181106110e8576110e86121e7565b602002602001018181525050806060015184848151811061110b5761110b6121e7565b60209081029190910101526111216001846121cf565b9250505b8061112f816121fd565b915050611013565b50929a919950975095505050505050565b6002602052816000526040600020818154811061116457600080fd5b60009182526020909120600590910201805460018201546002830154600384015460049094015460ff80851697506101009094046001600160a01b031695509193909290911686565b80602001518160400151600082116111d75760405162461bcd60e51b81526004016101c090611fdb565b600081116111f75760405162461bcd60e51b81526004016101c090611fdb565b82516001600160a01b03811661121f5760405162461bcd60e51b81526004016101c09061200c565b8351600154604051632f1d7fa760e01b815233916001600160a01b031690632f1d7fa790611251908590600401611cb3565b602060405180830381865afa15801561126e573d6000803e3d6000fd5b505050506040513d601f19601f820116820180604052508101906112929190612035565b6001600160a01b0316146112e25760405162461bcd60e51b815260206004820152601760248201527629b2b73232b91034b9903737ba1032bc31b430b733b2b960491b60448201526064016101c0565b60808501516001600160a01b03811661130d5760405162461bcd60e51b81526004016101c09061200c565b85516001600160a01b0316600090815260026020526040812060608801518154811061133b5761133b6121e7565b600091825260208220915460808a01516040808c0151905163a9059cbb60e01b8152600590940290940194506001600160a01b039091169263a9059cbb92611387929190600401612148565b6020604051808303816000875af11580156113a6573d6000803e3d6000fd5b505050506040513d601f19601f820116820180604052508101906113ca919061207b565b5080546000546040898101516080808c01518c516020808f015186516101009099046001600160a01b039081168a5297881691890191909152948701939093528416606086015292169183019190915260a08201527f3fcd82abd7b4aa2dae161019e066c1909e297f3a20b3b4757ef4aa36b1a122429060c00160405180910390a1866020015181600101600082825461146491906121b8565b909155505060408701516002820180546000906114829084906121b8565b9091555060009050815460ff1660018111156114a0576114a0611dc0565b14806114ae57506001810154155b806114bb57506002810154155b156114d05760048101805460ff191660011790555b50505050505050565b6115166040518060a0016040528060001515815260200160006001600160a01b031681526020016000815260200160008152602001600081525090565b82604001518360600151600082116115405760405162461bcd60e51b81526004016101c090611fdb565b600081116115605760405162461bcd60e51b81526004016101c090611fdb565b60208501516001600160a01b03811661158b5760405162461bcd60e51b81526004016101c09061200c565b6020808701516001600160a01b031660009081526002825260408082208054825181860281018601909352808352929391929091849084015b82821015611688576000848152602090206040805160c08101909152600584029091018054829060ff1660018111156115ff576115ff611dc0565b600181111561161057611610611dc0565b8152815461010090046001600160a01b0316602082015260018083015460408301526002830154606083015260038301546080830152600483015460a09092019160ff169081111561166457611664611dc0565b600181111561167557611675611dc0565b81525050815260200190600101906115c4565b5092935088925050505b815181101561191e5760008282815181106116af576116af6121e7565b602002602001015190506001808111156116cb576116cb611dc0565b8160a0015160018111156116e1576116e1611dc0565b14806116f05750428160800151105b156116fb575061190c565b6000808251600181111561171157611711611dc0565b148015611730575060008a51600181111561172e5761172e611dc0565b145b1561177e5761177760405180604001604052808c6060015181526020018c604001518152506040518060400160405280856040015181526020018560600151815250611b1e565b90506118b9565b60008251600181111561179357611793611dc0565b1480156117b2575060018a5160018111156117b0576117b0611dc0565b145b156117f95761177760405180604001604052808c6060015181526020018c604001518152506040518060400160405280856040015181526020018560600151815250611b40565b60018251600181111561180e5761180e611dc0565b14801561182d575060008a51600181111561182b5761182b611dc0565b145b1561187457611777604051806040016040528084604001518152602001846060015181525060405180604001604052808d6060015181526020018d60400151815250611b40565b6118b660405180604001604052808c6060015181526020018c604001518152506040518060400160405280856040015181526020018560600151815250611b8b565b90505b8015611909576040518060a0016040528060011515815260200183602001516001600160a01b0316815260200184815260200183604001518152602001836060015181525097505050505061195a565b50505b80611916816121fd565b915050611692565b506040518060a0016040528060001515815260200160006001600160a01b03168152602001600081526020016000815260200160008152509450505b50505092915050565b6001546001600160a01b031633146119b55760405162461bcd60e51b815260206004820152601560248201527443616c6c6572206973206e6f7420666163746f727960581b60448201526064016101c0565b60005b8151811015611b1a576000600260008484815181106119d9576119d96121e7565b60200260200101516001600160a01b03166001600160a01b03168152602001908152602001600020905060005b8154811015611b05576000828281548110611a2357611a236121e7565b6000918252602082206005909102019150600482015460ff166001811115611a4d57611a4d611dc0565b148015611a5d5750428160030154105b15611af2576004818101805460ff191660011790556000548254600284015460405163a9059cbb60e01b81526001600160a01b039384169463a9059cbb94611aad94610100900416929101612148565b6020604051808303816000875af1158015611acc573d6000803e3d6000fd5b505050506040513d601f19601f82011682018060405250810190611af0919061207b565b505b5080611afd816121fd565b915050611a06565b50508080611b12906121fd565b9150506119b8565b5050565b60208101518251600091148015611b39575060208301518251145b9392505050565b80518251600091611b5091612218565b82602001518460200151611b649190612218565b148015611b7657506020820151835110155b8015611b395750505160209190910151101590565b80518251600091611b9b91612218565b82602001518460200151611baf9190612218565b149392505050565b634e487b7160e01b600052604160045260246000fd5b60405160a081016001600160401b0381118282101715611bef57611bef611bb7565b60405290565b604051601f8201601f191681016001600160401b0381118282101715611c1d57611c1d611bb7565b604052919050565b803560028110611c3457600080fd5b919050565b6001600160a01b0381168114611c4e57600080fd5b50565b600060a08284031215611c6357600080fd5b611c6b611bcd565b611c7483611c25565b81526020830135611c8481611c39565b806020830152506040830135604082015260608301356060820152608083013560808201528091505092915050565b6001600160a01b0391909116815260200190565b600060208284031215611cd957600080fd5b8135611b3981611c39565b600081518084526020808501945080840160005b83811015611d1457815187529582019590820190600101611cf8565b509495945050505050565b606080825284519082018190526000906020906080840190828801845b82811015611d615781516001600160a01b031684529284019290840190600101611d3c565b50505083810382850152611d758187611ce4565b9150508281036040840152611d8a8185611ce4565b9695505050505050565b60008060408385031215611da757600080fd5b8235611db281611c39565b946020939093013593505050565b634e487b7160e01b600052602160045260246000fd5b60028110611c4e57634e487b7160e01b600052602160045260246000fd5b60c08101611e0188611dd6565b8782526001600160a01b0387166020830152604082018690526060820185905260808201849052611e3183611dd6565b8260a0830152979650505050505050565b600060a08284031215611e5457600080fd5b611e5c611bcd565b8235611e6781611c39565b808252506020830135602082015260408301356040820152606083013560608201526080830135611e9781611c39565b60808201529392505050565b60008082840360a0811215611eb757600080fd5b6080811215611ec557600080fd5b50604051608081016001600160401b0381118282101715611ee857611ee8611bb7565b604052611ef484611c25565b81526020840135611f0481611c39565b602082015260408481013590820152606080850135908201529460809093013593505050565b60006020808385031215611f3d57600080fd5b82356001600160401b0380821115611f5457600080fd5b818501915085601f830112611f6857600080fd5b813581811115611f7a57611f7a611bb7565b8060051b9150611f8b848301611bf5565b8181529183018401918481019088841115611fa557600080fd5b938501935b83851015611fcf5784359250611fbf83611c39565b8282529385019390850190611faa565b98975050505050505050565b6020808252601790820152764e756d62657220697320657175616c20746f207a65726f60481b604082015260600190565b6020808252600f908201526e496e76616c6964206164647265737360881b604082015260600190565b60006020828403121561204757600080fd5b8151611b3981611c39565b60006020828403121561206457600080fd5b5051919050565b80518015158114611c3457600080fd5b60006020828403121561208d57600080fd5b611b398261206b565b80516120a181611dd6565b82526020818101516001600160a01b03169083015260408082015190830152606090810151910152565b60a081016120d98285612096565b8260808301529392505050565b600060a082840312156120f857600080fd5b612100611bcd565b6121098361206b565b8152602083015161211981611c39565b806020830152506040830151604082015260608301516060820152608083015160808201528091505092915050565b6001600160a01b03929092168252602082015260400190565b81516001600160a01b039081168252602080840151908301526040808401519083015260608084015190830152608092830151169181019190915260a00190565b634e487b7160e01b600052601160045260246000fd5b6000828210156121ca576121ca6121a2565b500390565b600082198211156121e2576121e26121a2565b500190565b634e487b7160e01b600052603260045260246000fd5b6000600019821415612211576122116121a2565b5060010190565b6000816000190483118215151615612232576122326121a2565b50029056fea2646970667358221220d9ec66fd4da672345252336100b16068ac05b4991c1f860b81c4e4a520ca439964736f6c634300080b0033",
  "immutableReferences": {},
  "source": "// SPDX-License-Identifier: MIT\r\npragma solidity ^0.8.3;\r\n\r\nimport \"./DFA.sol\";\r\nimport \"./Factory.sol\";\r\n\r\ncontract Exchanger {\r\n  enum ExchangeStatus{ OPEN, CLOSE }\r\n  enum ExchangeType{ INDIVISIBLE, DIVISIBLE }\r\n\r\n  struct ExchangerRequestInfo {\r\n    ExchangeType exchangeType;\r\n    address user;\r\n    uint amountToGet;\r\n    uint amountToGive;\r\n    uint endTime;\r\n    ExchangeStatus status;\r\n  }\r\n\r\n  struct AddExchangeRequestParams {\r\n    ExchangeType exchangeType;\r\n    address dfaToGet;\r\n    uint amountToGet;\r\n    uint amountToGive;\r\n    uint endTime;\r\n  }\r\n\r\n  struct GetReciprocalRequestInfoParams {\r\n    ExchangeType exchangeType;\r\n    address dfaToGive;\r\n    uint amountToGive;\r\n    uint amountToGet;\r\n  }\r\n\r\n  struct ExchangeView {\r\n    uint amountToGet;\r\n    uint amountToGive;\r\n  }\r\n\r\n  struct TryToExchangeParams {\r\n    address dfaToGive;\r\n    uint amountToGive;\r\n    uint amountToGet;\r\n    uint requestIndex;\r\n    address buyer;\r\n  }\r\n\r\n  struct ReciprocalRequestInfo {\r\n    bool isFound;\r\n    address user;\r\n    uint index;\r\n    uint reciprocalAmountToGet;\r\n    uint reciprocalAmountToGive;\r\n  }\r\n\r\n  address public dfaAddress;\r\n  address public factoryAddress;\r\n  mapping (address => ExchangerRequestInfo[]) public requests;\r\n\r\n  modifier isFactory() {\r\n    require(msg.sender == factoryAddress, \"Caller is not factory\");\r\n    _;\r\n  }\r\n\r\n  modifier isAddressValid(address addressToCheck) {\r\n    require(addressToCheck != address(0), \"Invalid address\");\r\n    _;\r\n  }\r\n\r\n  modifier isAmountsNotZero(uint amount1, uint amount2) {\r\n    require(amount1 > 0, \"Number is equal to zero\");\r\n    require(amount2 > 0, \"Number is equal to zero\");\r\n    _;\r\n  }\r\n\r\n  modifier isAmountCanTransfer(uint amount) {\r\n    require(\r\n      DFA(dfaAddress).balanceOf(msg.sender) >= amount,\r\n      \"Sender does not have enough dfa\"\r\n    );\r\n    require(\r\n      DFA(dfaAddress).allowance(msg.sender, address(this)) >= amount,\r\n      \"Amount of DFA is not allowed\"\r\n    );\r\n    _;\r\n  }\r\n\r\n  modifier isExchangerValid(address addressToCheck) {\r\n    require(\r\n      Factory(factoryAddress).getExchanger(addressToCheck) != address(0),\r\n      \"Exchanger for dfa not found\"\r\n    );\r\n    _;\r\n  }\r\n\r\n  modifier isSenderIsExchanger(address addressToCheck) {\r\n    require(\r\n      Factory(factoryAddress).getExchanger(addressToCheck) == msg.sender,\r\n      \"Sender is not exchanger\"\r\n    );\r\n    _;\r\n  }\r\n\r\n  event ExchangeCompleted(\r\n    address firstUser,\r\n    address firstDfa,\r\n    uint firstAmount,\r\n    address secondUser,\r\n    address secondDfa,\r\n    uint secondAmount\r\n  );\r\n\r\n  constructor(address dfaAddressToLink) isAddressValid(dfaAddressToLink) {\r\n    dfaAddress = dfaAddressToLink;\r\n    factoryAddress = msg.sender;\r\n  }\r\n\r\n  function isIndivisibleReciprocalToIndivisible(\r\n    ExchangeView memory first,\r\n    ExchangeView memory second\r\n  ) private pure returns(bool) {\r\n    return first.amountToGet == second.amountToGive && second.amountToGet == first.amountToGive;\r\n  }\r\n\r\n  function isDivisibleReciprocalToDivisible(\r\n    ExchangeView memory first,\r\n    ExchangeView memory second\r\n  ) private pure returns(bool) {\r\n    return first.amountToGive * second.amountToGive == first.amountToGet * second.amountToGet;\r\n  }\r\n\r\n  function isDivisibleReciprocalToIndivisible(\r\n    ExchangeView memory first,\r\n    ExchangeView memory second\r\n  ) private pure returns(bool) {\r\n    return first.amountToGive * second.amountToGive == first.amountToGet * second.amountToGet &&\r\n    first.amountToGet >= second.amountToGive &&\r\n    first.amountToGive >= second.amountToGet;\r\n  }\r\n\r\n  function getReciprocalRequestInfo(\r\n    GetReciprocalRequestInfoParams memory info,\r\n    uint index\r\n  )\r\n    external\r\n    view\r\n    isAmountsNotZero(info.amountToGive, info.amountToGet)\r\n    isAddressValid(info.dfaToGive)\r\n    returns (ReciprocalRequestInfo memory)\r\n  {\r\n    ExchangerRequestInfo[] memory requestList = requests[info.dfaToGive];\r\n    for (uint i = index; i < requestList.length; i++) {\r\n      ExchangerRequestInfo memory request = requestList[i];\r\n      if (request.status == ExchangeStatus.CLOSE || request.endTime < block.timestamp) {\r\n        continue;\r\n      }\r\n      bool cond = false;\r\n      if (request.exchangeType == ExchangeType.INDIVISIBLE &&\r\n        info.exchangeType == ExchangeType.INDIVISIBLE) {\r\n        cond = isIndivisibleReciprocalToIndivisible(\r\n          ExchangeView(info.amountToGet, info.amountToGive),\r\n          ExchangeView(request.amountToGet, request.amountToGive)\r\n        );\r\n      } else if (request.exchangeType == ExchangeType.INDIVISIBLE &&\r\n        info.exchangeType == ExchangeType.DIVISIBLE) {\r\n        cond = isDivisibleReciprocalToIndivisible(\r\n          ExchangeView(info.amountToGet, info.amountToGive),\r\n          ExchangeView(request.amountToGet, request.amountToGive)\r\n        );\r\n      } else if (request.exchangeType == ExchangeType.DIVISIBLE &&\r\n        info.exchangeType == ExchangeType.INDIVISIBLE) {\r\n        cond = isDivisibleReciprocalToIndivisible(\r\n          ExchangeView(request.amountToGet, request.amountToGive),\r\n          ExchangeView(info.amountToGet, info.amountToGive)\r\n        );\r\n      } else {\r\n        cond = isDivisibleReciprocalToDivisible(\r\n          ExchangeView(info.amountToGet, info.amountToGive),\r\n          ExchangeView(request.amountToGet, request.amountToGive)\r\n        );\r\n      }\r\n      if (cond) {\r\n        return ReciprocalRequestInfo(true, request.user, i, request.amountToGet, request.amountToGive);\r\n      }\r\n    }\r\n    return ReciprocalRequestInfo(false, address(0), 0, 0, 0);\r\n  }\r\n\r\n  function addRequest(\r\n    AddExchangeRequestParams memory data\r\n  )\r\n    external\r\n    isAmountsNotZero(data.amountToGive, data.amountToGet)\r\n    isAddressValid(data.dfaToGet)\r\n    isExchangerValid(data.dfaToGet)\r\n    isAmountCanTransfer(data.amountToGive)\r\n  {\r\n    address exchangerAddress = Factory(factoryAddress).getExchanger(data.dfaToGet);\r\n    Exchanger exchanger = Exchanger(exchangerAddress);\r\n    DFA(dfaAddress).transferFrom(msg.sender, address(this), data.amountToGive);\r\n    ReciprocalRequestInfo memory requestInfo = exchanger.getReciprocalRequestInfo(\r\n      GetReciprocalRequestInfoParams(data.exchangeType, dfaAddress, data.amountToGive, data.amountToGet), 0\r\n    );\r\n    if (data.exchangeType == ExchangeType.INDIVISIBLE) {\r\n      if (requestInfo.isFound) {\r\n        DFA(dfaAddress).transfer(requestInfo.user, data.amountToGive);\r\n        exchanger.tryToExchange(\r\n          TryToExchangeParams(\r\n            dfaAddress,\r\n            data.amountToGive,\r\n            data.amountToGet,\r\n            requestInfo.index,\r\n            msg.sender\r\n          )\r\n        );\r\n        data.amountToGive = 0;\r\n        data.amountToGet = 0;\r\n      } else {\r\n        requests[data.dfaToGet].push(\r\n          ExchangerRequestInfo(\r\n            data.exchangeType,\r\n            msg.sender,\r\n            data.amountToGet,\r\n            data.amountToGive,\r\n            data.endTime,\r\n            ExchangeStatus.OPEN\r\n          )\r\n        );\r\n      }\r\n    } else {\r\n      while (requestInfo.isFound && data.amountToGive > 0 && data.amountToGet > 0) {\r\n        if (requestInfo.reciprocalAmountToGet <= data.amountToGive &&\r\n          requestInfo.reciprocalAmountToGive <= data.amountToGet) {\r\n          DFA(dfaAddress).transfer(requestInfo.user, requestInfo.reciprocalAmountToGet);\r\n          exchanger.tryToExchange(\r\n            TryToExchangeParams(\r\n              dfaAddress,\r\n              requestInfo.reciprocalAmountToGet,\r\n              requestInfo.reciprocalAmountToGive,\r\n              requestInfo.index,\r\n              msg.sender\r\n            )\r\n          );\r\n          data.amountToGive -= requestInfo.reciprocalAmountToGet;\r\n          data.amountToGet -= requestInfo.reciprocalAmountToGive;\r\n        } else {\r\n          DFA(dfaAddress).transfer(requestInfo.user, data.amountToGive);\r\n          exchanger.tryToExchange(\r\n            TryToExchangeParams(\r\n              dfaAddress,\r\n              data.amountToGive,\r\n              data.amountToGet,\r\n              requestInfo.index,\r\n              msg.sender\r\n            )\r\n          );\r\n          data.amountToGive = 0;\r\n          data.amountToGet = 0;\r\n        }\r\n        if (data.amountToGive <= 0 || data.amountToGet <= 0) {\r\n          break;\r\n        }\r\n        requestInfo = exchanger.getReciprocalRequestInfo(\r\n          GetReciprocalRequestInfoParams(data.exchangeType, dfaAddress, data.amountToGive, data.amountToGet), requestInfo.index + 1\r\n        );\r\n      }\r\n      if(data.amountToGet > 0 && data.amountToGive > 0) {\r\n        requests[data.dfaToGet].push(\r\n          ExchangerRequestInfo(\r\n            data.exchangeType,\r\n            msg.sender,\r\n            data.amountToGet,\r\n            data.amountToGive,\r\n            data.endTime,\r\n            ExchangeStatus.OPEN\r\n          )\r\n        );\r\n      }\r\n    }\r\n  }\r\n\r\n  function tryToExchange(\r\n    TryToExchangeParams memory params\r\n  )\r\n    external\r\n    isAmountsNotZero(params.amountToGive, params.amountToGet)\r\n    isAddressValid(params.dfaToGive)\r\n    isSenderIsExchanger(params.dfaToGive)\r\n    isAddressValid(params.buyer)\r\n  {\r\n    ExchangerRequestInfo storage request = requests[params.dfaToGive][params.requestIndex];\r\n    DFA(dfaAddress).transfer(params.buyer, params.amountToGet);\r\n    emit ExchangeCompleted(\r\n      request.user,\r\n      dfaAddress,\r\n      params.amountToGet,\r\n      params.buyer,\r\n      params.dfaToGive,\r\n      params.amountToGive\r\n    );\r\n    request.amountToGet -= params.amountToGive;\r\n    request.amountToGive -= params.amountToGet;\r\n    if (request.exchangeType == ExchangeType.INDIVISIBLE ||\r\n    request.amountToGet == 0 ||\r\n      request.amountToGive == 0) {\r\n      request.status = ExchangeStatus.CLOSE;\r\n    }\r\n  }\r\n\r\n  function getRequestsByDfa(address dfa)\r\n    public\r\n    view\r\n    isAddressValid(dfa)\r\n    returns (\r\n      address[] memory,\r\n      uint[] memory,\r\n      uint[] memory\r\n    )\r\n  {\r\n    ExchangerRequestInfo[] memory reqs = requests[dfa];\r\n    uint len = 0;\r\n    for (uint i = 0; i < reqs.length; i++) {\r\n      if (reqs[i].status == ExchangeStatus.OPEN && reqs[i].endTime >= block.timestamp) {\r\n        len++;\r\n      }\r\n    }\r\n    address[] memory users = new address[](len);\r\n    uint[] memory amountsToGet = new uint[](len);\r\n    uint[] memory amountsToGive = new uint[](len);\r\n    uint j = 0;\r\n    for (uint i = 0; i < reqs.length; i++) {\r\n      if (reqs[i].status == ExchangeStatus.OPEN && reqs[i].endTime >= block.timestamp) {\r\n        ExchangerRequestInfo memory info = reqs[i];\r\n        users[j] = info.user;\r\n        amountsToGet[j] = info.amountToGet;\r\n        amountsToGive[j] = info.amountToGive;\r\n        j += 1;\r\n      }\r\n    }\r\n    return (users, amountsToGet, amountsToGive);\r\n  }\r\n\r\n  function closeOldRequests(address[] memory dfaList) public isFactory {\r\n    for (uint i = 0; i < dfaList.length; i++) {\r\n      ExchangerRequestInfo[] storage reqs = requests[dfaList[i]];\r\n      for (uint j = 0; j < reqs.length; j++) {\r\n      ExchangerRequestInfo storage req = reqs[j];\r\n        if (req.status == ExchangeStatus.OPEN && req.endTime < block.timestamp) {\r\n          req.status = ExchangeStatus.CLOSE;\r\n          DFA(dfaAddress).transfer(req.user, req.amountToGive);\r\n        }\r\n      }\r\n    }\r\n  }\r\n}\r\n",
  "sourcePath": "C:\\Users\\Vladislav\\Desktop\\Learning\\  4\\DFAService\\DFAContracts\\contracts\\Exchanger.sol",
  "compiler": {
    "name": "solc",
    "version": "0.8.11+commit.d7f03943.Emscripten.clang"
  },
  "schemaVersion": "3.4.4",
  "updatedAt": "2022-05-22T22:00:43.211Z",
  "devdoc": {
    "kind": "dev",
    "methods": {},
    "version": 1
  },
  "userdoc": {
    "kind": "user",
    "methods": {},
    "version": 1
  }
}