{
  "contractName": "Factory",
  "abi": [
    {
      "anonymous": false,
      "inputs": [
        {
          "indexed": false,
          "internalType": "address",
          "name": "whoCreate",
          "type": "address"
        },
        {
          "indexed": false,
          "internalType": "address",
          "name": "dfaAddress",
          "type": "address"
        },
        {
          "indexed": false,
          "internalType": "string",
          "name": "name",
          "type": "string"
        },
        {
          "indexed": false,
          "internalType": "string",
          "name": "symbol",
          "type": "string"
        },
        {
          "indexed": false,
          "internalType": "uint256",
          "name": "initialSupply",
          "type": "uint256"
        }
      ],
      "name": "DFACreated",
      "type": "event"
    },
    {
      "inputs": [
        {
          "internalType": "uint256",
          "name": "initialSupply",
          "type": "uint256"
        },
        {
          "internalType": "string",
          "name": "name",
          "type": "string"
        },
        {
          "internalType": "string",
          "name": "symbol",
          "type": "string"
        }
      ],
      "name": "createDfa",
      "outputs": [
        {
          "internalType": "address",
          "name": "",
          "type": "address"
        }
      ],
      "stateMutability": "nonpayable",
      "type": "function"
    },
    {
      "inputs": [
        {
          "internalType": "address",
          "name": "dfaAddress",
          "type": "address"
        }
      ],
      "name": "getExchanger",
      "outputs": [
        {
          "internalType": "address",
          "name": "",
          "type": "address"
        }
      ],
      "stateMutability": "view",
      "type": "function",
      "constant": true
    },
    {
      "inputs": [],
      "name": "getAllDfa",
      "outputs": [
        {
          "internalType": "address[]",
          "name": "",
          "type": "address[]"
        },
        {
          "internalType": "address[]",
          "name": "",
          "type": "address[]"
        },
        {
          "internalType": "string[]",
          "name": "",
          "type": "string[]"
        },
        {
          "internalType": "string[]",
          "name": "",
          "type": "string[]"
        },
        {
          "internalType": "uint256[]",
          "name": "",
          "type": "uint256[]"
        }
      ],
      "stateMutability": "view",
      "type": "function",
      "constant": true
    },
    {
      "inputs": [],
      "name": "getAllDfaAddresses",
      "outputs": [
        {
          "internalType": "address[]",
          "name": "",
          "type": "address[]"
        }
      ],
      "stateMutability": "view",
      "type": "function",
      "constant": true
    },
    {
      "inputs": [],
      "name": "getBalances",
      "outputs": [
        {
          "internalType": "address[]",
          "name": "",
          "type": "address[]"
        },
        {
          "internalType": "uint256[]",
          "name": "",
          "type": "uint256[]"
        }
      ],
      "stateMutability": "view",
      "type": "function",
      "constant": true
    }
  ],
  "bytecode": "0x608060405234801561001057600080fd5b5061589c806100206000396000f3fe60806040523480156200001157600080fd5b50600436106200005d5760003560e01c8062113e08146200006257806310c1ca2b14620000855780632f1d7fa714620000bb5780635d07a60414620000f1578063b5f3ef5d1462000117575b600080fd5b6200006c62000139565b6040516200007c92919062000d8e565b60405180910390f35b620000a360048036038101906200009d919062000f70565b62000358565b604051620000b291906200101b565b60405180910390f35b620000d96004803603810190620000d3919062001069565b62000507565b604051620000e891906200101b565b60405180910390f35b620000fb620005e5565b6040516200010e959493929190620011fe565b60405180910390f35b6200012162000b08565b6040516200013091906200127e565b60405180910390f35b6060806000808054905067ffffffffffffffff8111156200015f576200015e62000e29565b5b6040519080825280602002602001820160405280156200018e5781602001602082028036833780820191505090505b5090506000808054905067ffffffffffffffff811115620001b457620001b362000e29565b5b604051908082528060200260200182016040528015620001e35781602001602082028036833780820191505090505b50905060005b6000805490508110156200034b5760008082815481106200020f576200020e620012a2565b5b9060005260206000200160009054906101000a900473ffffffffffffffffffffffffffffffffffffffff169050600081905081858481518110620002585762000257620012a2565b5b602002602001019073ffffffffffffffffffffffffffffffffffffffff16908173ffffffffffffffffffffffffffffffffffffffff16815250508073ffffffffffffffffffffffffffffffffffffffff166370a08231336040518263ffffffff1660e01b8152600401620002cd91906200101b565b602060405180830381865afa158015620002eb573d6000803e3d6000fd5b505050506040513d601f19601f82011682018060405250810190620003119190620012e8565b848481518110620003275762000326620012a2565b5b60200260200101818152505050508080620003429062001349565b915050620001e9565b5081819350935050509091565b600080848484336040516200036d9062000b98565b6200037c9493929190620013fa565b604051809103906000f08015801562000399573d6000803e3d6000fd5b509050600081604051620003ad9062000ba6565b620003b991906200101b565b604051809103906000f080158015620003d6573d6000803e3d6000fd5b50905080600160008473ffffffffffffffffffffffffffffffffffffffff1673ffffffffffffffffffffffffffffffffffffffff16815260200190815260200160002060006101000a81548173ffffffffffffffffffffffffffffffffffffffff021916908373ffffffffffffffffffffffffffffffffffffffff1602179055506000829080600181540180825580915050600190039060005260206000200160009091909190916101000a81548173ffffffffffffffffffffffffffffffffffffffff021916908373ffffffffffffffffffffffffffffffffffffffff1602179055507fdfae1556cb7f36a9d52c930e2986c55fcdef66c402f38194f645b04a15a196da338387878a604051620004f395949392919062001455565b60405180910390a181925050509392505050565b600081600073ffffffffffffffffffffffffffffffffffffffff168173ffffffffffffffffffffffffffffffffffffffff1614156200057d576040517f08c379a0000000000000000000000000000000000000000000000000000000008152600401620005749062001510565b60405180910390fd5b600160008473ffffffffffffffffffffffffffffffffffffffff1673ffffffffffffffffffffffffffffffffffffffff16815260200190815260200160002060009054906101000a900473ffffffffffffffffffffffffffffffffffffffff16915050919050565b60608060608060606000808054905067ffffffffffffffff81111562000610576200060f62000e29565b5b6040519080825280602002602001820160405280156200063f5781602001602082028036833780820191505090505b5090506000808054905067ffffffffffffffff81111562000665576200066462000e29565b5b604051908082528060200260200182016040528015620006945781602001602082028036833780820191505090505b5090506000808054905067ffffffffffffffff811115620006ba57620006b962000e29565b5b604051908082528060200260200182016040528015620006ef57816020015b6060815260200190600190039081620006d95790505b5090506000808054905067ffffffffffffffff81111562000715576200071462000e29565b5b6040519080825280602002602001820160405280156200074a57816020015b6060815260200190600190039081620007345790505b5090506000808054905067ffffffffffffffff81111562000770576200076f62000e29565b5b6040519080825280602002602001820160405280156200079f5781602001602082028036833780820191505090505b50905060005b60008054905081101562000aec576000808281548110620007cb57620007ca620012a2565b5b9060005260206000200160009054906101000a900473ffffffffffffffffffffffffffffffffffffffff169050600081905081888481518110620008145762000813620012a2565b5b602002602001019073ffffffffffffffffffffffffffffffffffffffff16908173ffffffffffffffffffffffffffffffffffffffff16815250508073ffffffffffffffffffffffffffffffffffffffff16638da5cb5b6040518163ffffffff1660e01b8152600401602060405180830381865afa1580156200089a573d6000803e3d6000fd5b505050506040513d601f19601f82011682018060405250810190620008c0919062001549565b878481518110620008d657620008d5620012a2565b5b602002602001019073ffffffffffffffffffffffffffffffffffffffff16908173ffffffffffffffffffffffffffffffffffffffff16815250508073ffffffffffffffffffffffffffffffffffffffff166306fdde036040518163ffffffff1660e01b8152600401600060405180830381865afa1580156200095c573d6000803e3d6000fd5b505050506040513d6000823e3d601f19601f82011682018060405250810190620009879190620015f9565b8684815181106200099d576200099c620012a2565b5b60200260200101819052508073ffffffffffffffffffffffffffffffffffffffff166395d89b416040518163ffffffff1660e01b8152600401600060405180830381865afa158015620009f4573d6000803e3d6000fd5b505050506040513d6000823e3d601f19601f8201168201806040525081019062000a1f9190620015f9565b85848151811062000a355762000a34620012a2565b5b60200260200101819052508073ffffffffffffffffffffffffffffffffffffffff166318160ddd6040518163ffffffff1660e01b8152600401602060405180830381865afa15801562000a8c573d6000803e3d6000fd5b505050506040513d601f19601f8201168201806040525081019062000ab29190620012e8565b84848151811062000ac85762000ac7620012a2565b5b6020026020010181815250505050808062000ae39062001349565b915050620007a5565b5084848484849950995099509950995050505050509091929394565b6060600080548060200260200160405190810160405280929190818152602001828054801562000b8e57602002820191906000526020600020905b8160009054906101000a900473ffffffffffffffffffffffffffffffffffffffff1673ffffffffffffffffffffffffffffffffffffffff168152602001906001019080831162000b43575b5050505050905090565b611fa1806200164b83390190565b61227b80620035ec83390190565b600081519050919050565b600082825260208201905092915050565b6000819050602082019050919050565b600073ffffffffffffffffffffffffffffffffffffffff82169050919050565b600062000c0d8262000be0565b9050919050565b62000c1f8162000c00565b82525050565b600062000c33838362000c14565b60208301905092915050565b6000602082019050919050565b600062000c598262000bb4565b62000c65818562000bbf565b935062000c728362000bd0565b8060005b8381101562000ca957815162000c8d888262000c25565b975062000c9a8362000c3f565b92505060018101905062000c76565b5085935050505092915050565b600081519050919050565b600082825260208201905092915050565b6000819050602082019050919050565b6000819050919050565b62000cf78162000ce2565b82525050565b600062000d0b838362000cec565b60208301905092915050565b6000602082019050919050565b600062000d318262000cb6565b62000d3d818562000cc1565b935062000d4a8362000cd2565b8060005b8381101562000d8157815162000d65888262000cfd565b975062000d728362000d17565b92505060018101905062000d4e565b5085935050505092915050565b6000604082019050818103600083015262000daa818562000c4c565b9050818103602083015262000dc0818462000d24565b90509392505050565b6000604051905090565b600080fd5b600080fd5b62000de88162000ce2565b811462000df457600080fd5b50565b60008135905062000e088162000ddd565b92915050565b600080fd5b600080fd5b6000601f19601f8301169050919050565b7f4e487b7100000000000000000000000000000000000000000000000000000000600052604160045260246000fd5b62000e638262000e18565b810181811067ffffffffffffffff8211171562000e855762000e8462000e29565b5b80604052505050565b600062000e9a62000dc9565b905062000ea8828262000e58565b919050565b600067ffffffffffffffff82111562000ecb5762000eca62000e29565b5b62000ed68262000e18565b9050602081019050919050565b82818337600083830152505050565b600062000f0962000f038462000ead565b62000e8e565b90508281526020810184848401111562000f285762000f2762000e13565b5b62000f3584828562000ee3565b509392505050565b600082601f83011262000f555762000f5462000e0e565b5b813562000f6784826020860162000ef2565b91505092915050565b60008060006060848603121562000f8c5762000f8b62000dd3565b5b600062000f9c8682870162000df7565b935050602084013567ffffffffffffffff81111562000fc05762000fbf62000dd8565b5b62000fce8682870162000f3d565b925050604084013567ffffffffffffffff81111562000ff25762000ff162000dd8565b5b620010008682870162000f3d565b9150509250925092565b620010158162000c00565b82525050565b60006020820190506200103260008301846200100a565b92915050565b620010438162000c00565b81146200104f57600080fd5b50565b600081359050620010638162001038565b92915050565b60006020828403121562001082576200108162000dd3565b5b6000620010928482850162001052565b91505092915050565b600081519050919050565b600082825260208201905092915050565b6000819050602082019050919050565b600081519050919050565b600082825260208201905092915050565b60005b8381101562001103578082015181840152602081019050620010e6565b8381111562001113576000848401525b50505050565b60006200112682620010c7565b620011328185620010d2565b935062001144818560208601620010e3565b6200114f8162000e18565b840191505092915050565b600062001168838362001119565b905092915050565b6000602082019050919050565b60006200118a826200109b565b620011968185620010a6565b935083602082028501620011aa85620010b7565b8060005b85811015620011ec5784840389528151620011ca85826200115a565b9450620011d78362001170565b925060208a01995050600181019050620011ae565b50829750879550505050505092915050565b600060a08201905081810360008301526200121a818862000c4c565b9050818103602083015262001230818762000c4c565b905081810360408301526200124681866200117d565b905081810360608301526200125c81856200117d565b9050818103608083015262001272818462000d24565b90509695505050505050565b600060208201905081810360008301526200129a818462000c4c565b905092915050565b7f4e487b7100000000000000000000000000000000000000000000000000000000600052603260045260246000fd5b600081519050620012e28162000ddd565b92915050565b60006020828403121562001301576200130062000dd3565b5b60006200131184828501620012d1565b91505092915050565b7f4e487b7100000000000000000000000000000000000000000000000000000000600052601160045260246000fd5b6000620013568262000ce2565b91507fffffffffffffffffffffffffffffffffffffffffffffffffffffffffffffffff8214156200138c576200138b6200131a565b5b600182019050919050565b620013a28162000ce2565b82525050565b600082825260208201905092915050565b6000620013c682620010c7565b620013d28185620013a8565b9350620013e4818560208601620010e3565b620013ef8162000e18565b840191505092915050565b600060808201905062001411600083018762001397565b8181036020830152620014258186620013b9565b905081810360408301526200143b8185620013b9565b90506200144c60608301846200100a565b95945050505050565b600060a0820190506200146c60008301886200100a565b6200147b60208301876200100a565b81810360408301526200148f8186620013b9565b90508181036060830152620014a58185620013b9565b9050620014b6608083018462001397565b9695505050505050565b7f496e76616c696420746f6b656e20616464726573730000000000000000000000600082015250565b6000620014f8601583620013a8565b91506200150582620014c0565b602082019050919050565b600060208201905081810360008301526200152b81620014e9565b9050919050565b600081519050620015438162001038565b92915050565b60006020828403121562001562576200156162000dd3565b5b6000620015728482850162001532565b91505092915050565b6000620015926200158c8462000ead565b62000e8e565b905082815260208101848484011115620015b157620015b062000e13565b5b620015be848285620010e3565b509392505050565b600082601f830112620015de57620015dd62000e0e565b5b8151620015f08482602086016200157b565b91505092915050565b60006020828403121562001612576200161162000dd3565b5b600082015167ffffffffffffffff81111562001633576200163262000dd8565b5b6200164184828501620015c6565b9150509291505056fe60806040523480156200001157600080fd5b5060405162001fa138038062001fa18339818101604052810190620000379190620005af565b8282816003908051906020019062000051929190620002c2565b5080600490805190602001906200006a929190620002c2565b50505080600073ffffffffffffffffffffffffffffffffffffffff168173ffffffffffffffffffffffffffffffffffffffff161415620000e1576040517f08c379a0000000000000000000000000000000000000000000000000000000008152600401620000d890620006c0565b60405180910390fd5b620000f382866200013f60201b60201c565b81600560006101000a81548173ffffffffffffffffffffffffffffffffffffffff021916908373ffffffffffffffffffffffffffffffffffffffff160217905550505050505062000873565b600073ffffffffffffffffffffffffffffffffffffffff168273ffffffffffffffffffffffffffffffffffffffff161415620001b2576040517f08c379a0000000000000000000000000000000000000000000000000000000008152600401620001a99062000732565b60405180910390fd5b620001c660008383620002b860201b60201c565b8060026000828254620001da919062000783565b92505081905550806000808473ffffffffffffffffffffffffffffffffffffffff1673ffffffffffffffffffffffffffffffffffffffff168152602001908152602001600020600082825462000231919062000783565b925050819055508173ffffffffffffffffffffffffffffffffffffffff16600073ffffffffffffffffffffffffffffffffffffffff167fddf252ad1be2c89b69c2b068fc378daa952ba7f163c4a11628f55a4df523b3ef83604051620002989190620007f1565b60405180910390a3620002b460008383620002bd60201b60201c565b5050565b505050565b505050565b828054620002d0906200083d565b90600052602060002090601f016020900481019282620002f4576000855562000340565b82601f106200030f57805160ff191683800117855562000340565b8280016001018555821562000340579182015b828111156200033f57825182559160200191906001019062000322565b5b5090506200034f919062000353565b5090565b5b808211156200036e57600081600090555060010162000354565b5090565b6000604051905090565b600080fd5b600080fd5b6000819050919050565b6200039b8162000386565b8114620003a757600080fd5b50565b600081519050620003bb8162000390565b92915050565b600080fd5b600080fd5b6000601f19601f8301169050919050565b7f4e487b7100000000000000000000000000000000000000000000000000000000600052604160045260246000fd5b6200041682620003cb565b810181811067ffffffffffffffff82111715620004385762000437620003dc565b5b80604052505050565b60006200044d62000372565b90506200045b82826200040b565b919050565b600067ffffffffffffffff8211156200047e576200047d620003dc565b5b6200048982620003cb565b9050602081019050919050565b60005b83811015620004b657808201518184015260208101905062000499565b83811115620004c6576000848401525b50505050565b6000620004e3620004dd8462000460565b62000441565b905082815260208101848484011115620005025762000501620003c6565b5b6200050f84828562000496565b509392505050565b600082601f8301126200052f576200052e620003c1565b5b815162000541848260208601620004cc565b91505092915050565b600073ffffffffffffffffffffffffffffffffffffffff82169050919050565b600062000577826200054a565b9050919050565b62000589816200056a565b81146200059557600080fd5b50565b600081519050620005a9816200057e565b92915050565b60008060008060808587031215620005cc57620005cb6200037c565b5b6000620005dc87828801620003aa565b945050602085015167ffffffffffffffff8111156200060057620005ff62000381565b5b6200060e8782880162000517565b935050604085015167ffffffffffffffff81111562000632576200063162000381565b5b620006408782880162000517565b9250506060620006538782880162000598565b91505092959194509250565b600082825260208201905092915050565b7f496e76616c696420746f6b656e20616464726573730000000000000000000000600082015250565b6000620006a86015836200065f565b9150620006b58262000670565b602082019050919050565b60006020820190508181036000830152620006db8162000699565b9050919050565b7f45524332303a206d696e7420746f20746865207a65726f206164647265737300600082015250565b60006200071a601f836200065f565b91506200072782620006e2565b602082019050919050565b600060208201905081810360008301526200074d816200070b565b9050919050565b7f4e487b7100000000000000000000000000000000000000000000000000000000600052601160045260246000fd5b6000620007908262000386565b91506200079d8362000386565b9250827fffffffffffffffffffffffffffffffffffffffffffffffffffffffffffffffff03821115620007d557620007d462000754565b5b828201905092915050565b620007eb8162000386565b82525050565b6000602082019050620008086000830184620007e0565b92915050565b7f4e487b7100000000000000000000000000000000000000000000000000000000600052602260045260246000fd5b600060028204905060018216806200085657607f821691505b602082108114156200086d576200086c6200080e565b5b50919050565b61171e80620008836000396000f3fe608060405234801561001057600080fd5b50600436106100cf5760003560e01c806370a082311161008c578063a0712d6811610066578063a0712d681461022a578063a457c2d714610246578063a9059cbb14610276578063dd62ed3e146102a6576100cf565b806370a08231146101be5780638da5cb5b146101ee57806395d89b411461020c576100cf565b806306fdde03146100d4578063095ea7b3146100f257806318160ddd1461012257806323b872dd14610140578063313ce56714610170578063395093511461018e575b600080fd5b6100dc6102d6565b6040516100e99190610ea9565b60405180910390f35b61010c60048036038101906101079190610f64565b610368565b6040516101199190610fbf565b60405180910390f35b61012a61038b565b6040516101379190610fe9565b60405180910390f35b61015a60048036038101906101559190611004565b610395565b6040516101679190610fbf565b60405180910390f35b6101786103c4565b6040516101859190611073565b60405180910390f35b6101a860048036038101906101a39190610f64565b6103c9565b6040516101b59190610fbf565b60405180910390f35b6101d860048036038101906101d3919061108e565b610473565b6040516101e59190610fe9565b60405180910390f35b6101f66104bb565b60405161020391906110ca565b60405180910390f35b6102146104e1565b6040516102219190610ea9565b60405180910390f35b610244600480360381019061023f91906110e5565b610573565b005b610260600480360381019061025b9190610f64565b610632565b60405161026d9190610fbf565b60405180910390f35b610290600480360381019061028b9190610f64565b61071c565b60405161029d9190610fbf565b60405180910390f35b6102c060048036038101906102bb9190611112565b61073f565b6040516102cd9190610fe9565b60405180910390f35b6060600380546102e590611181565b80601f016020809104026020016040519081016040528092919081815260200182805461031190611181565b801561035e5780601f106103335761010080835404028352916020019161035e565b820191906000526020600020905b81548152906001019060200180831161034157829003601f168201915b5050505050905090565b6000806103736107c6565b90506103808185856107ce565b600191505092915050565b6000600254905090565b6000806103a06107c6565b90506103ad858285610999565b6103b8858585610a25565b60019150509392505050565b600090565b6000806103d46107c6565b9050610468818585600160008673ffffffffffffffffffffffffffffffffffffffff1673ffffffffffffffffffffffffffffffffffffffff16815260200190815260200160002060008973ffffffffffffffffffffffffffffffffffffffff1673ffffffffffffffffffffffffffffffffffffffff1681526020019081526020016000205461046391906111e2565b6107ce565b600191505092915050565b60008060008373ffffffffffffffffffffffffffffffffffffffff1673ffffffffffffffffffffffffffffffffffffffff168152602001908152602001600020549050919050565b600560009054906101000a900473ffffffffffffffffffffffffffffffffffffffff1681565b6060600480546104f090611181565b80601f016020809104026020016040519081016040528092919081815260200182805461051c90611181565b80156105695780601f1061053e57610100808354040283529160200191610569565b820191906000526020600020905b81548152906001019060200180831161054c57829003601f168201915b5050505050905090565b600560009054906101000a900473ffffffffffffffffffffffffffffffffffffffff1673ffffffffffffffffffffffffffffffffffffffff163373ffffffffffffffffffffffffffffffffffffffff1614610603576040517f08c379a00000000000000000000000000000000000000000000000000000000081526004016105fa90611284565b60405180910390fd5b61062f600560009054906101000a900473ffffffffffffffffffffffffffffffffffffffff1682610ca6565b50565b60008061063d6107c6565b90506000600160008373ffffffffffffffffffffffffffffffffffffffff1673ffffffffffffffffffffffffffffffffffffffff16815260200190815260200160002060008673ffffffffffffffffffffffffffffffffffffffff1673ffffffffffffffffffffffffffffffffffffffff16815260200190815260200160002054905083811015610703576040517f08c379a00000000000000000000000000000000000000000000000000000000081526004016106fa90611316565b60405180910390fd5b61071082868684036107ce565b60019250505092915050565b6000806107276107c6565b9050610734818585610a25565b600191505092915050565b6000600160008473ffffffffffffffffffffffffffffffffffffffff1673ffffffffffffffffffffffffffffffffffffffff16815260200190815260200160002060008373ffffffffffffffffffffffffffffffffffffffff1673ffffffffffffffffffffffffffffffffffffffff16815260200190815260200160002054905092915050565b600033905090565b600073ffffffffffffffffffffffffffffffffffffffff168373ffffffffffffffffffffffffffffffffffffffff16141561083e576040517f08c379a0000000000000000000000000000000000000000000000000000000008152600401610835906113a8565b60405180910390fd5b600073ffffffffffffffffffffffffffffffffffffffff168273ffffffffffffffffffffffffffffffffffffffff1614156108ae576040517f08c379a00000000000000000000000000000000000000000000000000000000081526004016108a59061143a565b60405180910390fd5b80600160008573ffffffffffffffffffffffffffffffffffffffff1673ffffffffffffffffffffffffffffffffffffffff16815260200190815260200160002060008473ffffffffffffffffffffffffffffffffffffffff1673ffffffffffffffffffffffffffffffffffffffff168152602001908152602001600020819055508173ffffffffffffffffffffffffffffffffffffffff168373ffffffffffffffffffffffffffffffffffffffff167f8c5be1e5ebec7d5bd14f71427d1e84f3dd0314c0f7b2291e5b200ac8c7c3b9258360405161098c9190610fe9565b60405180910390a3505050565b60006109a5848461073f565b90507fffffffffffffffffffffffffffffffffffffffffffffffffffffffffffffffff8114610a1f5781811015610a11576040517f08c379a0000000000000000000000000000000000000000000000000000000008152600401610a08906114a6565b60405180910390fd5b610a1e84848484036107ce565b5b50505050565b600073ffffffffffffffffffffffffffffffffffffffff168373ffffffffffffffffffffffffffffffffffffffff161415610a95576040517f08c379a0000000000000000000000000000000000000000000000000000000008152600401610a8c90611538565b60405180910390fd5b600073ffffffffffffffffffffffffffffffffffffffff168273ffffffffffffffffffffffffffffffffffffffff161415610b05576040517f08c379a0000000000000000000000000000000000000000000000000000000008152600401610afc906115ca565b60405180910390fd5b610b10838383610e06565b60008060008573ffffffffffffffffffffffffffffffffffffffff1673ffffffffffffffffffffffffffffffffffffffff16815260200190815260200160002054905081811015610b96576040517f08c379a0000000000000000000000000000000000000000000000000000000008152600401610b8d9061165c565b60405180910390fd5b8181036000808673ffffffffffffffffffffffffffffffffffffffff1673ffffffffffffffffffffffffffffffffffffffff16815260200190815260200160002081905550816000808573ffffffffffffffffffffffffffffffffffffffff1673ffffffffffffffffffffffffffffffffffffffff1681526020019081526020016000206000828254610c2991906111e2565b925050819055508273ffffffffffffffffffffffffffffffffffffffff168473ffffffffffffffffffffffffffffffffffffffff167fddf252ad1be2c89b69c2b068fc378daa952ba7f163c4a11628f55a4df523b3ef84604051610c8d9190610fe9565b60405180910390a3610ca0848484610e0b565b50505050565b600073ffffffffffffffffffffffffffffffffffffffff168273ffffffffffffffffffffffffffffffffffffffff161415610d16576040517f08c379a0000000000000000000000000000000000000000000000000000000008152600401610d0d906116c8565b60405180910390fd5b610d2260008383610e06565b8060026000828254610d3491906111e2565b92505081905550806000808473ffffffffffffffffffffffffffffffffffffffff1673ffffffffffffffffffffffffffffffffffffffff1681526020019081526020016000206000828254610d8991906111e2565b925050819055508173ffffffffffffffffffffffffffffffffffffffff16600073ffffffffffffffffffffffffffffffffffffffff167fddf252ad1be2c89b69c2b068fc378daa952ba7f163c4a11628f55a4df523b3ef83604051610dee9190610fe9565b60405180910390a3610e0260008383610e0b565b5050565b505050565b505050565b600081519050919050565b600082825260208201905092915050565b60005b83811015610e4a578082015181840152602081019050610e2f565b83811115610e59576000848401525b50505050565b6000601f19601f8301169050919050565b6000610e7b82610e10565b610e858185610e1b565b9350610e95818560208601610e2c565b610e9e81610e5f565b840191505092915050565b60006020820190508181036000830152610ec38184610e70565b905092915050565b600080fd5b600073ffffffffffffffffffffffffffffffffffffffff82169050919050565b6000610efb82610ed0565b9050919050565b610f0b81610ef0565b8114610f1657600080fd5b50565b600081359050610f2881610f02565b92915050565b6000819050919050565b610f4181610f2e565b8114610f4c57600080fd5b50565b600081359050610f5e81610f38565b92915050565b60008060408385031215610f7b57610f7a610ecb565b5b6000610f8985828601610f19565b9250506020610f9a85828601610f4f565b9150509250929050565b60008115159050919050565b610fb981610fa4565b82525050565b6000602082019050610fd46000830184610fb0565b92915050565b610fe381610f2e565b82525050565b6000602082019050610ffe6000830184610fda565b92915050565b60008060006060848603121561101d5761101c610ecb565b5b600061102b86828701610f19565b935050602061103c86828701610f19565b925050604061104d86828701610f4f565b9150509250925092565b600060ff82169050919050565b61106d81611057565b82525050565b60006020820190506110886000830184611064565b92915050565b6000602082840312156110a4576110a3610ecb565b5b60006110b284828501610f19565b91505092915050565b6110c481610ef0565b82525050565b60006020820190506110df60008301846110bb565b92915050565b6000602082840312156110fb576110fa610ecb565b5b600061110984828501610f4f565b91505092915050565b6000806040838503121561112957611128610ecb565b5b600061113785828601610f19565b925050602061114885828601610f19565b9150509250929050565b7f4e487b7100000000000000000000000000000000000000000000000000000000600052602260045260246000fd5b6000600282049050600182168061119957607f821691505b602082108114156111ad576111ac611152565b5b50919050565b7f4e487b7100000000000000000000000000000000000000000000000000000000600052601160045260246000fd5b60006111ed82610f2e565b91506111f883610f2e565b9250827fffffffffffffffffffffffffffffffffffffffffffffffffffffffffffffffff0382111561122d5761122c6111b3565b5b828201905092915050565b7f43616c6c6572206973206e6f74206f776e657200000000000000000000000000600082015250565b600061126e601383610e1b565b915061127982611238565b602082019050919050565b6000602082019050818103600083015261129d81611261565b9050919050565b7f45524332303a2064656372656173656420616c6c6f77616e63652062656c6f7760008201527f207a65726f000000000000000000000000000000000000000000000000000000602082015250565b6000611300602583610e1b565b915061130b826112a4565b604082019050919050565b6000602082019050818103600083015261132f816112f3565b9050919050565b7f45524332303a20617070726f76652066726f6d20746865207a65726f2061646460008201527f7265737300000000000000000000000000000000000000000000000000000000602082015250565b6000611392602483610e1b565b915061139d82611336565b604082019050919050565b600060208201905081810360008301526113c181611385565b9050919050565b7f45524332303a20617070726f766520746f20746865207a65726f20616464726560008201527f7373000000000000000000000000000000000000000000000000000000000000602082015250565b6000611424602283610e1b565b915061142f826113c8565b604082019050919050565b6000602082019050818103600083015261145381611417565b9050919050565b7f45524332303a20696e73756666696369656e7420616c6c6f77616e6365000000600082015250565b6000611490601d83610e1b565b915061149b8261145a565b602082019050919050565b600060208201905081810360008301526114bf81611483565b9050919050565b7f45524332303a207472616e736665722066726f6d20746865207a65726f20616460008201527f6472657373000000000000000000000000000000000000000000000000000000602082015250565b6000611522602583610e1b565b915061152d826114c6565b604082019050919050565b6000602082019050818103600083015261155181611515565b9050919050565b7f45524332303a207472616e7366657220746f20746865207a65726f206164647260008201527f6573730000000000000000000000000000000000000000000000000000000000602082015250565b60006115b4602383610e1b565b91506115bf82611558565b604082019050919050565b600060208201905081810360008301526115e3816115a7565b9050919050565b7f45524332303a207472616e7366657220616d6f756e742065786365656473206260008201527f616c616e63650000000000000000000000000000000000000000000000000000602082015250565b6000611646602683610e1b565b9150611651826115ea565b604082019050919050565b6000602082019050818103600083015261167581611639565b9050919050565b7f45524332303a206d696e7420746f20746865207a65726f206164647265737300600082015250565b60006116b2601f83610e1b565b91506116bd8261167c565b602082019050919050565b600060208201905081810360008301526116e1816116a5565b905091905056fea2646970667358221220fd468f260e50d12ac0a7ae51627436e785af5aaebd2aa852735083b55b21913564736f6c634300080b003360806040523480156200001157600080fd5b506040516200227b3803806200227b83398181016040528101906200003791906200019e565b80600073ffffffffffffffffffffffffffffffffffffffff168173ffffffffffffffffffffffffffffffffffffffff161415620000ab576040517f08c379a0000000000000000000000000000000000000000000000000000000008152600401620000a29062000231565b60405180910390fd5b816000806101000a81548173ffffffffffffffffffffffffffffffffffffffff021916908373ffffffffffffffffffffffffffffffffffffffff16021790555033600160006101000a81548173ffffffffffffffffffffffffffffffffffffffff021916908373ffffffffffffffffffffffffffffffffffffffff160217905550505062000253565b600080fd5b600073ffffffffffffffffffffffffffffffffffffffff82169050919050565b6000620001668262000139565b9050919050565b620001788162000159565b81146200018457600080fd5b50565b60008151905062000198816200016d565b92915050565b600060208284031215620001b757620001b662000134565b5b6000620001c78482850162000187565b91505092915050565b600082825260208201905092915050565b7f496e76616c696420616464726573730000000000000000000000000000000000600082015250565b600062000219600f83620001d0565b91506200022682620001e1565b602082019050919050565b600060208201905081810360008301526200024c816200020a565b9050919050565b61201880620002636000396000f3fe608060405234801561001057600080fd5b506004361061007d5760003560e01c8063873deb041161005b578063873deb04146100ea5780638c75d7b414610108578063966dae0e1461013a5780639ecebe2a146101585761007d565b80630c884bde1461008257806354dbc21e146100b25780635f1b9c28146100ce575b600080fd5b61009c600480360381019061009791906115c5565b61018a565b6040516100a99190611627565b60405180910390f35b6100cc60048036038101906100c791906115c5565b610402565b005b6100e860048036038101906100e3919061174b565b610c3f565b005b6100f261111f565b6040516100ff9190611627565b60405180910390f35b610122600480360381019061011d9190611778565b611143565b60405161013193929190611921565b60405180910390f35b610142611495565b60405161014f9190611627565b60405180910390f35b610172600480360381019061016d919061196d565b6114bb565b604051610181939291906119bc565b60405180910390f35b60008282600082116101d1576040517f08c379a00000000000000000000000000000000000000000000000000000000081526004016101c890611a50565b60405180910390fd5b60008111610214576040517f08c379a000000000000000000000000000000000000000000000000000000000815260040161020b90611a50565b60405180910390fd5b85600073ffffffffffffffffffffffffffffffffffffffff168173ffffffffffffffffffffffffffffffffffffffff161415610285576040517f08c379a000000000000000000000000000000000000000000000000000000000815260040161027c90611abc565b60405180910390fd5b6000600260008973ffffffffffffffffffffffffffffffffffffffff1673ffffffffffffffffffffffffffffffffffffffff168152602001908152602001600020805480602002602001604051908101604052809291908181526020016000905b8282101561038257838290600052602060002090600302016040518060600160405290816000820160009054906101000a900473ffffffffffffffffffffffffffffffffffffffff1673ffffffffffffffffffffffffffffffffffffffff1673ffffffffffffffffffffffffffffffffffffffff16815260200160018201548152602001600282015481525050815260200190600101906102e6565b50505050905060005b81518110156103f15760008282815181106103a9576103a8611adc565b5b602002602001015190508881602001511480156103c95750878160400151145b156103dd57806000015196505050506103f8565b5080806103e990611b3a565b91505061038b565b5060009450505b5050509392505050565b808260008211610447576040517f08c379a000000000000000000000000000000000000000000000000000000000815260040161043e90611a50565b60405180910390fd5b6000811161048a576040517f08c379a000000000000000000000000000000000000000000000000000000000815260040161048190611a50565b60405180910390fd5b84600073ffffffffffffffffffffffffffffffffffffffff168173ffffffffffffffffffffffffffffffffffffffff1614156104fb576040517f08c379a00000000000000000000000000000000000000000000000000000000081526004016104f290611abc565b60405180910390fd5b85600073ffffffffffffffffffffffffffffffffffffffff16600160009054906101000a900473ffffffffffffffffffffffffffffffffffffffff1673ffffffffffffffffffffffffffffffffffffffff16632f1d7fa7836040518263ffffffff1660e01b815260040161056f9190611627565b602060405180830381865afa15801561058c573d6000803e3d6000fd5b505050506040513d601f19601f820116820180604052508101906105b09190611b98565b73ffffffffffffffffffffffffffffffffffffffff161415610607576040517f08c379a00000000000000000000000000000000000000000000000000000000081526004016105fe90611c11565b60405180910390fd5b8460008054906101000a900473ffffffffffffffffffffffffffffffffffffffff16818173ffffffffffffffffffffffffffffffffffffffff166370a08231336040518263ffffffff1660e01b81526004016106639190611627565b602060405180830381865afa158015610680573d6000803e3d6000fd5b505050506040513d601f19601f820116820180604052508101906106a49190611c46565b10156106e5576040517f08c379a00000000000000000000000000000000000000000000000000000000081526004016106dc90611cbf565b60405180910390fd5b818173ffffffffffffffffffffffffffffffffffffffff1663dd62ed3e33306040518363ffffffff1660e01b8152600401610721929190611cdf565b602060405180830381865afa15801561073e573d6000803e3d6000fd5b505050506040513d601f19601f820116820180604052508101906107629190611c46565b10156107a3576040517f08c379a000000000000000000000000000000000000000000000000000000000815260040161079a90611d54565b60405180910390fd5b6000600160009054906101000a900473ffffffffffffffffffffffffffffffffffffffff1673ffffffffffffffffffffffffffffffffffffffff16632f1d7fa78b6040518263ffffffff1660e01b81526004016108009190611627565b602060405180830381865afa15801561081d573d6000803e3d6000fd5b505050506040513d601f19601f820116820180604052508101906108419190611b98565b9050600081905060008054906101000a900473ffffffffffffffffffffffffffffffffffffffff1673ffffffffffffffffffffffffffffffffffffffff166323b872dd33308c6040518463ffffffff1660e01b81526004016108a593929190611d74565b6020604051808303816000875af11580156108c4573d6000803e3d6000fd5b505050506040513d601f19601f820116820180604052508101906108e89190611de3565b5060008173ffffffffffffffffffffffffffffffffffffffff16630c884bde60008054906101000a900473ffffffffffffffffffffffffffffffffffffffff168c8e6040518463ffffffff1660e01b8152600401610948939291906119bc565b602060405180830381865afa158015610965573d6000803e3d6000fd5b505050506040513d601f19601f820116820180604052508101906109899190611b98565b9050600073ffffffffffffffffffffffffffffffffffffffff168173ffffffffffffffffffffffffffffffffffffffff1614610b3a5760008054906101000a900473ffffffffffffffffffffffffffffffffffffffff1673ffffffffffffffffffffffffffffffffffffffff1663a9059cbb828c6040518363ffffffff1660e01b8152600401610a1a929190611e10565b6020604051808303816000875af1158015610a39573d6000803e3d6000fd5b505050506040513d601f19601f82011682018060405250810190610a5d9190611de3565b508173ffffffffffffffffffffffffffffffffffffffff16635f1b9c2860405180608001604052803373ffffffffffffffffffffffffffffffffffffffff16815260200160008054906101000a900473ffffffffffffffffffffffffffffffffffffffff1673ffffffffffffffffffffffffffffffffffffffff1681526020018d81526020018e8152506040518263ffffffff1660e01b8152600401610b039190611e8e565b600060405180830381600087803b158015610b1d57600080fd5b505af1158015610b31573d6000803e3d6000fd5b50505050610c31565b600260008d73ffffffffffffffffffffffffffffffffffffffff1673ffffffffffffffffffffffffffffffffffffffff16815260200190815260200160002060405180606001604052803373ffffffffffffffffffffffffffffffffffffffff1681526020018d81526020018c815250908060018154018082558091505060019003906000526020600020906003020160009091909190915060008201518160000160006101000a81548173ffffffffffffffffffffffffffffffffffffffff021916908373ffffffffffffffffffffffffffffffffffffffff160217905550602082015181600101556040820151816002015550505b505050505050505050505050565b8060400151816060015160008211610c8c576040517f08c379a0000000000000000000000000000000000000000000000000000000008152600401610c8390611a50565b60405180910390fd5b60008111610ccf576040517f08c379a0000000000000000000000000000000000000000000000000000000008152600401610cc690611a50565b60405180910390fd5b8260200151600073ffffffffffffffffffffffffffffffffffffffff168173ffffffffffffffffffffffffffffffffffffffff161415610d44576040517f08c379a0000000000000000000000000000000000000000000000000000000008152600401610d3b90611abc565b60405180910390fd5b83602001513373ffffffffffffffffffffffffffffffffffffffff16600160009054906101000a900473ffffffffffffffffffffffffffffffffffffffff1673ffffffffffffffffffffffffffffffffffffffff16632f1d7fa7836040518263ffffffff1660e01b8152600401610dbb9190611627565b602060405180830381865afa158015610dd8573d6000803e3d6000fd5b505050506040513d601f19601f82011682018060405250810190610dfc9190611b98565b73ffffffffffffffffffffffffffffffffffffffff1614610e52576040517f08c379a0000000000000000000000000000000000000000000000000000000008152600401610e4990611ef5565b60405180910390fd5b8460000151600073ffffffffffffffffffffffffffffffffffffffff168173ffffffffffffffffffffffffffffffffffffffff161415610ec7576040517f08c379a0000000000000000000000000000000000000000000000000000000008152600401610ebe90611abc565b60405180910390fd5b600060026000886020015173ffffffffffffffffffffffffffffffffffffffff1673ffffffffffffffffffffffffffffffffffffffff16815260200190815260200160002090506000805b82805490508110156110d4576000838281548110610f3357610f32611adc565b5b9060005260206000209060030201905089604001518160010154148015610f61575089606001518160020154145b156110c0577f3fcd82abd7b4aa2dae161019e066c1909e297f3a20b3b4757ef4aa36b1a122428160000160009054906101000a900473ffffffffffffffffffffffffffffffffffffffff1660008054906101000a900473ffffffffffffffffffffffffffffffffffffffff1683600201548d600001518e602001518f60400151604051610ff396959493929190611f15565b60405180910390a1600081600101819055506000816002018190555060008054906101000a900473ffffffffffffffffffffffffffffffffffffffff1673ffffffffffffffffffffffffffffffffffffffff1663a9059cbb8b600001518c606001516040518363ffffffff1660e01b8152600401611072929190611e10565b6020604051808303816000875af1158015611091573d6000803e3d6000fd5b505050506040513d601f19601f820116820180604052508101906110b59190611de3565b5060019250506110d4565b5080806110cc90611b3a565b915050610f12565b5080611115576040517f08c379a000000000000000000000000000000000000000000000000000000000815260040161110c90611fc2565b60405180910390fd5b5050505050505050565b60008054906101000a900473ffffffffffffffffffffffffffffffffffffffff1681565b606080606083600073ffffffffffffffffffffffffffffffffffffffff168173ffffffffffffffffffffffffffffffffffffffff1614156111b9576040517f08c379a00000000000000000000000000000000000000000000000000000000081526004016111b090611abc565b60405180910390fd5b6000600260008773ffffffffffffffffffffffffffffffffffffffff1673ffffffffffffffffffffffffffffffffffffffff168152602001908152602001600020805480602002602001604051908101604052809291908181526020016000905b828210156112b657838290600052602060002090600302016040518060600160405290816000820160009054906101000a900473ffffffffffffffffffffffffffffffffffffffff1673ffffffffffffffffffffffffffffffffffffffff1673ffffffffffffffffffffffffffffffffffffffff168152602001600182015481526020016002820154815250508152602001906001019061121a565b5050505090506000815167ffffffffffffffff8111156112d9576112d8611658565b5b6040519080825280602002602001820160405280156113075781602001602082028036833780820191505090505b5090506000825167ffffffffffffffff81111561132757611326611658565b5b6040519080825280602002602001820160405280156113555781602001602082028036833780820191505090505b5090506000835167ffffffffffffffff81111561137557611374611658565b5b6040519080825280602002602001820160405280156113a35781602001602082028036833780820191505090505b50905060005b845181101561147f5760008582815181106113c7576113c6611adc565b5b6020026020010151905080600001518583815181106113e9576113e8611adc565b5b602002602001019073ffffffffffffffffffffffffffffffffffffffff16908173ffffffffffffffffffffffffffffffffffffffff1681525050806020015184838151811061143b5761143a611adc565b5b602002602001018181525050806040015183838151811061145f5761145e611adc565b5b60200260200101818152505050808061147790611b3a565b9150506113a9565b5082828297509750975050505050509193909250565b600160009054906101000a900473ffffffffffffffffffffffffffffffffffffffff1681565b600260205281600052604060002081815481106114d757600080fd5b9060005260206000209060030201600091509150508060000160009054906101000a900473ffffffffffffffffffffffffffffffffffffffff16908060010154908060020154905083565b6000604051905090565b600080fd5b600073ffffffffffffffffffffffffffffffffffffffff82169050919050565b600061155c82611531565b9050919050565b61156c81611551565b811461157757600080fd5b50565b60008135905061158981611563565b92915050565b6000819050919050565b6115a28161158f565b81146115ad57600080fd5b50565b6000813590506115bf81611599565b92915050565b6000806000606084860312156115de576115dd61152c565b5b60006115ec8682870161157a565b93505060206115fd868287016115b0565b925050604061160e868287016115b0565b9150509250925092565b61162181611551565b82525050565b600060208201905061163c6000830184611618565b92915050565b600080fd5b6000601f19601f8301169050919050565b7f4e487b7100000000000000000000000000000000000000000000000000000000600052604160045260246000fd5b61169082611647565b810181811067ffffffffffffffff821117156116af576116ae611658565b5b80604052505050565b60006116c2611522565b90506116ce8282611687565b919050565b6000608082840312156116e9576116e8611642565b5b6116f360806116b8565b905060006117038482850161157a565b60008301525060206117178482850161157a565b602083015250604061172b848285016115b0565b604083015250606061173f848285016115b0565b60608301525092915050565b6000608082840312156117615761176061152c565b5b600061176f848285016116d3565b91505092915050565b60006020828403121561178e5761178d61152c565b5b600061179c8482850161157a565b91505092915050565b600081519050919050565b600082825260208201905092915050565b6000819050602082019050919050565b6117da81611551565b82525050565b60006117ec83836117d1565b60208301905092915050565b6000602082019050919050565b6000611810826117a5565b61181a81856117b0565b9350611825836117c1565b8060005b8381101561185657815161183d88826117e0565b9750611848836117f8565b925050600181019050611829565b5085935050505092915050565b600081519050919050565b600082825260208201905092915050565b6000819050602082019050919050565b6118988161158f565b82525050565b60006118aa838361188f565b60208301905092915050565b6000602082019050919050565b60006118ce82611863565b6118d8818561186e565b93506118e38361187f565b8060005b838110156119145781516118fb888261189e565b9750611906836118b6565b9250506001810190506118e7565b5085935050505092915050565b6000606082019050818103600083015261193b8186611805565b9050818103602083015261194f81856118c3565b9050818103604083015261196381846118c3565b9050949350505050565b600080604083850312156119845761198361152c565b5b60006119928582860161157a565b92505060206119a3858286016115b0565b9150509250929050565b6119b68161158f565b82525050565b60006060820190506119d16000830186611618565b6119de60208301856119ad565b6119eb60408301846119ad565b949350505050565b600082825260208201905092915050565b7f4e756d62657220697320657175616c20746f207a65726f000000000000000000600082015250565b6000611a3a6017836119f3565b9150611a4582611a04565b602082019050919050565b60006020820190508181036000830152611a6981611a2d565b9050919050565b7f496e76616c696420616464726573730000000000000000000000000000000000600082015250565b6000611aa6600f836119f3565b9150611ab182611a70565b602082019050919050565b60006020820190508181036000830152611ad581611a99565b9050919050565b7f4e487b7100000000000000000000000000000000000000000000000000000000600052603260045260246000fd5b7f4e487b7100000000000000000000000000000000000000000000000000000000600052601160045260246000fd5b6000611b458261158f565b91507fffffffffffffffffffffffffffffffffffffffffffffffffffffffffffffffff821415611b7857611b77611b0b565b5b600182019050919050565b600081519050611b9281611563565b92915050565b600060208284031215611bae57611bad61152c565b5b6000611bbc84828501611b83565b91505092915050565b7f45786368616e67657220666f7220646661206e6f7420666f756e640000000000600082015250565b6000611bfb601b836119f3565b9150611c0682611bc5565b602082019050919050565b60006020820190508181036000830152611c2a81611bee565b9050919050565b600081519050611c4081611599565b92915050565b600060208284031215611c5c57611c5b61152c565b5b6000611c6a84828501611c31565b91505092915050565b7f53656e64657220646f6573206e6f74206861766520656e6f7567682064666100600082015250565b6000611ca9601f836119f3565b9150611cb482611c73565b602082019050919050565b60006020820190508181036000830152611cd881611c9c565b9050919050565b6000604082019050611cf46000830185611618565b611d016020830184611618565b9392505050565b7f416d6f756e74206f6620444641206973206e6f7420616c6c6f77656400000000600082015250565b6000611d3e601c836119f3565b9150611d4982611d08565b602082019050919050565b60006020820190508181036000830152611d6d81611d31565b9050919050565b6000606082019050611d896000830186611618565b611d966020830185611618565b611da360408301846119ad565b949350505050565b60008115159050919050565b611dc081611dab565b8114611dcb57600080fd5b50565b600081519050611ddd81611db7565b92915050565b600060208284031215611df957611df861152c565b5b6000611e0784828501611dce565b91505092915050565b6000604082019050611e256000830185611618565b611e3260208301846119ad565b9392505050565b608082016000820151611e4f60008501826117d1565b506020820151611e6260208501826117d1565b506040820151611e75604085018261188f565b506060820151611e88606085018261188f565b50505050565b6000608082019050611ea36000830184611e39565b92915050565b7f53656e646572206973206e6f742065786368616e676572000000000000000000600082015250565b6000611edf6017836119f3565b9150611eea82611ea9565b602082019050919050565b60006020820190508181036000830152611f0e81611ed2565b9050919050565b600060c082019050611f2a6000830189611618565b611f376020830188611618565b611f4460408301876119ad565b611f516060830186611618565b611f5e6080830185611618565b611f6b60a08301846119ad565b979650505050505050565b7f56616c69642072657175657374206e6f7420666f756e64000000000000000000600082015250565b6000611fac6017836119f3565b9150611fb782611f76565b602082019050919050565b60006020820190508181036000830152611fdb81611f9f565b905091905056fea264697066735822122050d9b471b63b88eedd9e0b95a75ba35b1b5b7b5447b3e9472cc8d496b3140bf964736f6c634300080b0033a2646970667358221220df22a5306a7448cc75602a304fde0f6b7c7b5761573fcead6b0f525dfa6e957064736f6c634300080b0033",
  "immutableReferences": {},
  "source": "// SPDX-License-Identifier: MIT\r\npragma solidity ^0.8.3;\r\n\r\nimport \"./DFA.sol\";\r\nimport \"./Exchanger.sol\";\r\n\r\ncontract Factory {\r\n//  struct ExchangerRequestInfo {\r\n//    address user;\r\n//    uint amountToGet;\r\n//    uint amountToGive;\r\n//  }\r\n//\r\n//  struct ExchangerRequestFullInfo {\r\n//    address user;\r\n//    address dfaToGet;\r\n//    uint amountToGet;\r\n//    address dfaToGive;\r\n//    uint amountToGive;\r\n//  }\r\n//  struct DfaInfo {\r\n//    address dfaAddress;\r\n//    string name;\r\n//    string symbol;\r\n//    uint totalSupply;\r\n//  }\r\n\r\n  address[] dfaList;\r\n  mapping(address => address) dfaToExchanger;\r\n\r\n  modifier isAddressValid(address addressToCheck) {\r\n    require(addressToCheck != address(0), \"Invalid token address\");\r\n    _;\r\n  }\r\n\r\n  event DFACreated(address whoCreate, address dfaAddress, string name, string symbol, uint initialSupply);\r\n\r\n  function createDfa(\r\n    uint initialSupply,\r\n    string memory name,\r\n    string memory symbol\r\n  ) external returns (address)\r\n  {\r\n    address dfaAddress = address(\r\n      new DFA(\r\n        initialSupply,\r\n        name,\r\n        symbol,\r\n        msg.sender\r\n      )\r\n    );\r\n    Exchanger exchanger = new Exchanger(dfaAddress);\r\n    dfaToExchanger[dfaAddress] = address(exchanger);\r\n    dfaList.push(dfaAddress);\r\n    emit DFACreated(\r\n      msg.sender,\r\n      dfaAddress,\r\n      name,\r\n      symbol,\r\n      initialSupply\r\n    );\r\n    return dfaAddress;\r\n  }\r\n\r\n  function getExchanger(address dfaAddress)\r\n    public\r\n    view\r\n    isAddressValid(dfaAddress)\r\n    returns (address)\r\n  {\r\n    return dfaToExchanger[dfaAddress];\r\n  }\r\n\r\n  function getAllDfa() external view\r\n    returns (\r\n      address[] memory,\r\n      address[] memory,\r\n      string[] memory,\r\n      string[] memory,\r\n      uint[] memory\r\n    )\r\n  {\r\n    address[] memory addresses = new address[](dfaList.length);\r\n    address[] memory owners = new address[](dfaList.length);\r\n    string[] memory names = new string[](dfaList.length);\r\n    string[] memory symbols = new string[](dfaList.length);\r\n    uint[] memory supplies = new uint[](dfaList.length);\r\n    for (uint i = 0; i < dfaList.length; i++) {\r\n      address dfaAddress = dfaList[i];\r\n      DFA dfa = DFA(dfaAddress);\r\n      addresses[i] = dfaAddress;\r\n      owners[i] = dfa.owner();\r\n      names[i] = dfa.name();\r\n      symbols[i] = dfa.symbol();\r\n      supplies[i] = dfa.totalSupply();\r\n    }\r\n    return (addresses, owners, names, symbols, supplies);\r\n  }\r\n\r\n  function getAllDfaAddresses() external view returns (address[] memory)\r\n  {\r\n    return dfaList;\r\n  }\r\n\r\n  function getBalances()\r\n    external\r\n    view\r\n    returns (address[] memory, uint[] memory)\r\n  {\r\n    address[] memory addresses = new address[](dfaList.length);\r\n    uint[] memory balances = new uint[](dfaList.length);\r\n    for (uint i = 0; i < dfaList.length; i++) {\r\n      address dfaAddress = dfaList[i];\r\n      DFA dfa = DFA(dfaAddress);\r\n      addresses[i] = dfaAddress;\r\n      balances[i] = dfa.balanceOf(msg.sender);\r\n    }\r\n    return (addresses, balances);\r\n  }\r\n\r\n//  function getAllDfaTest() public view returns (DfaInfo[] memory) {\r\n//    DfaInfo[] memory info = new DfaInfo[](dfaList.length);\r\n//    for (uint i = 0; i < dfaList.length; i++) {\r\n//      address dfaAddress = dfaList[i];\r\n//      DFA dfa = DFA(dfaAddress);\r\n//      info[i] = DfaInfo(\r\n//        dfaAddress,\r\n//        dfa.name(),\r\n//        dfa.symbol(),\r\n//        dfa.totalSupply()\r\n//      );\r\n//    }\r\n//    return info;\r\n//  }\r\n\r\n//  function getAllRequests() public view returns (ExchangerRequestFullInfo[] memory) {\r\n//    ExchangerRequestFullInfo[] requestList = address[](dfaList.length);\r\n//    for (uint i = 0; i < dfaList.length; i++) {\r\n//\r\n//    }\r\n//    return requestList;\r\n//  }\r\n\r\n//  function getAllDfaByUser(address user)\r\n//    public\r\n//    view\r\n//    isAddressValid(user)\r\n//    returns (address[])\r\n//  {\r\n//    address[] usersDfa = address[]();\r\n//    for (uint i = 0; i < dfaList.length; i++) {\r\n//      if (DFA(dfaList[i]).owner() == user) {\r\n//        usersDfa.push(dfaList[i]);\r\n//      }\r\n//    }\r\n//    return usersDfa;\r\n//  }\r\n}",
  "sourcePath": "C:\\Users\\Vladislav\\Desktop\\Learning\\  4\\DFAService\\DFAContracts\\contracts\\Factory.sol",
  "compiler": {
    "name": "solc",
    "version": "0.8.11+commit.d7f03943.Emscripten.clang"
  },
  "schemaVersion": "3.4.4",
  "updatedAt": "2022-04-25T13:18:43.507Z",
  "networkType": "ethereum",
  "devdoc": {
    "kind": "dev",
    "methods": {},
    "version": 1
  },
  "userdoc": {
    "kind": "user",
    "methods": {},
    "version": 1
  }
}