{
  "contractName": "Factory",
  "abi": [
    {
      "inputs": [
        {
          "internalType": "uint256",
          "name": "initialSupply",
          "type": "uint256"
        },
        {
          "internalType": "string",
          "name": "name",
          "type": "string"
        },
        {
          "internalType": "string",
          "name": "symbol",
          "type": "string"
        }
      ],
      "name": "createDfa",
      "outputs": [
        {
          "internalType": "address",
          "name": "",
          "type": "address"
        }
      ],
      "stateMutability": "nonpayable",
      "type": "function"
    },
    {
      "inputs": [
        {
          "internalType": "address",
          "name": "dfaAddress",
          "type": "address"
        }
      ],
      "name": "getExchanger",
      "outputs": [
        {
          "internalType": "address",
          "name": "",
          "type": "address"
        }
      ],
      "stateMutability": "view",
      "type": "function",
      "constant": true
    },
    {
      "inputs": [],
      "name": "getAllDfa",
      "outputs": [
        {
          "internalType": "address[]",
          "name": "",
          "type": "address[]"
        },
        {
          "internalType": "address[]",
          "name": "",
          "type": "address[]"
        },
        {
          "internalType": "string[]",
          "name": "",
          "type": "string[]"
        },
        {
          "internalType": "string[]",
          "name": "",
          "type": "string[]"
        },
        {
          "internalType": "uint256[]",
          "name": "",
          "type": "uint256[]"
        }
      ],
      "stateMutability": "view",
      "type": "function",
      "constant": true
    },
    {
      "inputs": [],
      "name": "getBalances",
      "outputs": [
        {
          "internalType": "address[]",
          "name": "",
          "type": "address[]"
        },
        {
          "internalType": "uint256[]",
          "name": "",
          "type": "uint256[]"
        }
      ],
      "stateMutability": "view",
      "type": "function",
      "constant": true
    }
  ],
  "bytecode": "0x608060405234801561001057600080fd5b506154ab806100206000396000f3fe60806040523480156200001157600080fd5b5060043610620000515760003560e01c8062113e08146200005657806310c1ca2b14620000795780632f1d7fa714620000af5780635d07a60414620000e5575b600080fd5b620000606200010b565b6040516200007092919062000c8f565b60405180910390f35b62000097600480360381019062000091919062000e71565b6200032a565b604051620000a6919062000f1c565b60405180910390f35b620000cd6004803603810190620000c7919062000f6a565b62000498565b604051620000dc919062000f1c565b60405180910390f35b620000ef62000576565b60405162000102959493929190620010ff565b60405180910390f35b6060806000808054905067ffffffffffffffff81111562000131576200013062000d2a565b5b604051908082528060200260200182016040528015620001605781602001602082028036833780820191505090505b5090506000808054905067ffffffffffffffff81111562000186576200018562000d2a565b5b604051908082528060200260200182016040528015620001b55781602001602082028036833780820191505090505b50905060005b6000805490508110156200031d576000808281548110620001e157620001e06200117f565b5b9060005260206000200160009054906101000a900473ffffffffffffffffffffffffffffffffffffffff1690506000819050818584815181106200022a57620002296200117f565b5b602002602001019073ffffffffffffffffffffffffffffffffffffffff16908173ffffffffffffffffffffffffffffffffffffffff16815250508073ffffffffffffffffffffffffffffffffffffffff166370a08231336040518263ffffffff1660e01b81526004016200029f919062000f1c565b602060405180830381865afa158015620002bd573d6000803e3d6000fd5b505050506040513d601f19601f82011682018060405250810190620002e39190620011c5565b848481518110620002f957620002f86200117f565b5b60200260200101818152505050508080620003149062001226565b915050620001bb565b5081819350935050509091565b600080848484336040516200033f9062000a99565b6200034e9493929190620012d7565b604051809103906000f0801580156200036b573d6000803e3d6000fd5b5090506000816040516200037f9062000aa7565b6200038b919062000f1c565b604051809103906000f080158015620003a8573d6000803e3d6000fd5b50905080600160008473ffffffffffffffffffffffffffffffffffffffff1673ffffffffffffffffffffffffffffffffffffffff16815260200190815260200160002060006101000a81548173ffffffffffffffffffffffffffffffffffffffff021916908373ffffffffffffffffffffffffffffffffffffffff1602179055506000829080600181540180825580915050600190039060005260206000200160009091909190916101000a81548173ffffffffffffffffffffffffffffffffffffffff021916908373ffffffffffffffffffffffffffffffffffffffff16021790555081925050509392505050565b600081600073ffffffffffffffffffffffffffffffffffffffff168173ffffffffffffffffffffffffffffffffffffffff1614156200050e576040517f08c379a0000000000000000000000000000000000000000000000000000000008152600401620005059062001382565b60405180910390fd5b600160008473ffffffffffffffffffffffffffffffffffffffff1673ffffffffffffffffffffffffffffffffffffffff16815260200190815260200160002060009054906101000a900473ffffffffffffffffffffffffffffffffffffffff16915050919050565b60608060608060606000808054905067ffffffffffffffff811115620005a157620005a062000d2a565b5b604051908082528060200260200182016040528015620005d05781602001602082028036833780820191505090505b5090506000808054905067ffffffffffffffff811115620005f657620005f562000d2a565b5b604051908082528060200260200182016040528015620006255781602001602082028036833780820191505090505b5090506000808054905067ffffffffffffffff8111156200064b576200064a62000d2a565b5b6040519080825280602002602001820160405280156200068057816020015b60608152602001906001900390816200066a5790505b5090506000808054905067ffffffffffffffff811115620006a657620006a562000d2a565b5b604051908082528060200260200182016040528015620006db57816020015b6060815260200190600190039081620006c55790505b5090506000808054905067ffffffffffffffff81111562000701576200070062000d2a565b5b604051908082528060200260200182016040528015620007305781602001602082028036833780820191505090505b50905060005b60008054905081101562000a7d5760008082815481106200075c576200075b6200117f565b5b9060005260206000200160009054906101000a900473ffffffffffffffffffffffffffffffffffffffff169050600081905081888481518110620007a557620007a46200117f565b5b602002602001019073ffffffffffffffffffffffffffffffffffffffff16908173ffffffffffffffffffffffffffffffffffffffff16815250508073ffffffffffffffffffffffffffffffffffffffff16638da5cb5b6040518163ffffffff1660e01b8152600401602060405180830381865afa1580156200082b573d6000803e3d6000fd5b505050506040513d601f19601f82011682018060405250810190620008519190620013bb565b8784815181106200086757620008666200117f565b5b602002602001019073ffffffffffffffffffffffffffffffffffffffff16908173ffffffffffffffffffffffffffffffffffffffff16815250508073ffffffffffffffffffffffffffffffffffffffff166306fdde036040518163ffffffff1660e01b8152600401600060405180830381865afa158015620008ed573d6000803e3d6000fd5b505050506040513d6000823e3d601f19601f820116820180604052508101906200091891906200146b565b8684815181106200092e576200092d6200117f565b5b60200260200101819052508073ffffffffffffffffffffffffffffffffffffffff166395d89b416040518163ffffffff1660e01b8152600401600060405180830381865afa15801562000985573d6000803e3d6000fd5b505050506040513d6000823e3d601f19601f82011682018060405250810190620009b091906200146b565b858481518110620009c657620009c56200117f565b5b60200260200101819052508073ffffffffffffffffffffffffffffffffffffffff166318160ddd6040518163ffffffff1660e01b8152600401602060405180830381865afa15801562000a1d573d6000803e3d6000fd5b505050506040513d601f19601f8201168201806040525081019062000a439190620011c5565b84848151811062000a595762000a586200117f565b5b6020026020010181815250505050808062000a749062001226565b91505062000736565b5084848484849950995099509950995050505050509091929394565b611fa180620014bd83390190565b612018806200345e83390190565b600081519050919050565b600082825260208201905092915050565b6000819050602082019050919050565b600073ffffffffffffffffffffffffffffffffffffffff82169050919050565b600062000b0e8262000ae1565b9050919050565b62000b208162000b01565b82525050565b600062000b34838362000b15565b60208301905092915050565b6000602082019050919050565b600062000b5a8262000ab5565b62000b66818562000ac0565b935062000b738362000ad1565b8060005b8381101562000baa57815162000b8e888262000b26565b975062000b9b8362000b40565b92505060018101905062000b77565b5085935050505092915050565b600081519050919050565b600082825260208201905092915050565b6000819050602082019050919050565b6000819050919050565b62000bf88162000be3565b82525050565b600062000c0c838362000bed565b60208301905092915050565b6000602082019050919050565b600062000c328262000bb7565b62000c3e818562000bc2565b935062000c4b8362000bd3565b8060005b8381101562000c8257815162000c66888262000bfe565b975062000c738362000c18565b92505060018101905062000c4f565b5085935050505092915050565b6000604082019050818103600083015262000cab818562000b4d565b9050818103602083015262000cc1818462000c25565b90509392505050565b6000604051905090565b600080fd5b600080fd5b62000ce98162000be3565b811462000cf557600080fd5b50565b60008135905062000d098162000cde565b92915050565b600080fd5b600080fd5b6000601f19601f8301169050919050565b7f4e487b7100000000000000000000000000000000000000000000000000000000600052604160045260246000fd5b62000d648262000d19565b810181811067ffffffffffffffff8211171562000d865762000d8562000d2a565b5b80604052505050565b600062000d9b62000cca565b905062000da9828262000d59565b919050565b600067ffffffffffffffff82111562000dcc5762000dcb62000d2a565b5b62000dd78262000d19565b9050602081019050919050565b82818337600083830152505050565b600062000e0a62000e048462000dae565b62000d8f565b90508281526020810184848401111562000e295762000e2862000d14565b5b62000e3684828562000de4565b509392505050565b600082601f83011262000e565762000e5562000d0f565b5b813562000e6884826020860162000df3565b91505092915050565b60008060006060848603121562000e8d5762000e8c62000cd4565b5b600062000e9d8682870162000cf8565b935050602084013567ffffffffffffffff81111562000ec15762000ec062000cd9565b5b62000ecf8682870162000e3e565b925050604084013567ffffffffffffffff81111562000ef35762000ef262000cd9565b5b62000f018682870162000e3e565b9150509250925092565b62000f168162000b01565b82525050565b600060208201905062000f33600083018462000f0b565b92915050565b62000f448162000b01565b811462000f5057600080fd5b50565b60008135905062000f648162000f39565b92915050565b60006020828403121562000f835762000f8262000cd4565b5b600062000f938482850162000f53565b91505092915050565b600081519050919050565b600082825260208201905092915050565b6000819050602082019050919050565b600081519050919050565b600082825260208201905092915050565b60005b838110156200100457808201518184015260208101905062000fe7565b8381111562001014576000848401525b50505050565b6000620010278262000fc8565b62001033818562000fd3565b93506200104581856020860162000fe4565b620010508162000d19565b840191505092915050565b60006200106983836200101a565b905092915050565b6000602082019050919050565b60006200108b8262000f9c565b62001097818562000fa7565b935083602082028501620010ab8562000fb8565b8060005b85811015620010ed5784840389528151620010cb85826200105b565b9450620010d88362001071565b925060208a01995050600181019050620010af565b50829750879550505050505092915050565b600060a08201905081810360008301526200111b818862000b4d565b9050818103602083015262001131818762000b4d565b905081810360408301526200114781866200107e565b905081810360608301526200115d81856200107e565b9050818103608083015262001173818462000c25565b90509695505050505050565b7f4e487b7100000000000000000000000000000000000000000000000000000000600052603260045260246000fd5b600081519050620011bf8162000cde565b92915050565b600060208284031215620011de57620011dd62000cd4565b5b6000620011ee84828501620011ae565b91505092915050565b7f4e487b7100000000000000000000000000000000000000000000000000000000600052601160045260246000fd5b6000620012338262000be3565b91507fffffffffffffffffffffffffffffffffffffffffffffffffffffffffffffffff821415620012695762001268620011f7565b5b600182019050919050565b6200127f8162000be3565b82525050565b600082825260208201905092915050565b6000620012a38262000fc8565b620012af818562001285565b9350620012c181856020860162000fe4565b620012cc8162000d19565b840191505092915050565b6000608082019050620012ee600083018762001274565b818103602083015262001302818662001296565b9050818103604083015262001318818562001296565b905062001329606083018462000f0b565b95945050505050565b7f496e76616c696420746f6b656e20616464726573730000000000000000000000600082015250565b60006200136a60158362001285565b9150620013778262001332565b602082019050919050565b600060208201905081810360008301526200139d816200135b565b9050919050565b600081519050620013b58162000f39565b92915050565b600060208284031215620013d457620013d362000cd4565b5b6000620013e484828501620013a4565b91505092915050565b600062001404620013fe8462000dae565b62000d8f565b90508281526020810184848401111562001423576200142262000d14565b5b6200143084828562000fe4565b509392505050565b600082601f83011262001450576200144f62000d0f565b5b815162001462848260208601620013ed565b91505092915050565b60006020828403121562001484576200148362000cd4565b5b600082015167ffffffffffffffff811115620014a557620014a462000cd9565b5b620014b38482850162001438565b9150509291505056fe60806040523480156200001157600080fd5b5060405162001fa138038062001fa18339818101604052810190620000379190620005af565b8282816003908051906020019062000051929190620002c2565b5080600490805190602001906200006a929190620002c2565b50505080600073ffffffffffffffffffffffffffffffffffffffff168173ffffffffffffffffffffffffffffffffffffffff161415620000e1576040517f08c379a0000000000000000000000000000000000000000000000000000000008152600401620000d890620006c0565b60405180910390fd5b620000f382866200013f60201b60201c565b81600560006101000a81548173ffffffffffffffffffffffffffffffffffffffff021916908373ffffffffffffffffffffffffffffffffffffffff160217905550505050505062000873565b600073ffffffffffffffffffffffffffffffffffffffff168273ffffffffffffffffffffffffffffffffffffffff161415620001b2576040517f08c379a0000000000000000000000000000000000000000000000000000000008152600401620001a99062000732565b60405180910390fd5b620001c660008383620002b860201b60201c565b8060026000828254620001da919062000783565b92505081905550806000808473ffffffffffffffffffffffffffffffffffffffff1673ffffffffffffffffffffffffffffffffffffffff168152602001908152602001600020600082825462000231919062000783565b925050819055508173ffffffffffffffffffffffffffffffffffffffff16600073ffffffffffffffffffffffffffffffffffffffff167fddf252ad1be2c89b69c2b068fc378daa952ba7f163c4a11628f55a4df523b3ef83604051620002989190620007f1565b60405180910390a3620002b460008383620002bd60201b60201c565b5050565b505050565b505050565b828054620002d0906200083d565b90600052602060002090601f016020900481019282620002f4576000855562000340565b82601f106200030f57805160ff191683800117855562000340565b8280016001018555821562000340579182015b828111156200033f57825182559160200191906001019062000322565b5b5090506200034f919062000353565b5090565b5b808211156200036e57600081600090555060010162000354565b5090565b6000604051905090565b600080fd5b600080fd5b6000819050919050565b6200039b8162000386565b8114620003a757600080fd5b50565b600081519050620003bb8162000390565b92915050565b600080fd5b600080fd5b6000601f19601f8301169050919050565b7f4e487b7100000000000000000000000000000000000000000000000000000000600052604160045260246000fd5b6200041682620003cb565b810181811067ffffffffffffffff82111715620004385762000437620003dc565b5b80604052505050565b60006200044d62000372565b90506200045b82826200040b565b919050565b600067ffffffffffffffff8211156200047e576200047d620003dc565b5b6200048982620003cb565b9050602081019050919050565b60005b83811015620004b657808201518184015260208101905062000499565b83811115620004c6576000848401525b50505050565b6000620004e3620004dd8462000460565b62000441565b905082815260208101848484011115620005025762000501620003c6565b5b6200050f84828562000496565b509392505050565b600082601f8301126200052f576200052e620003c1565b5b815162000541848260208601620004cc565b91505092915050565b600073ffffffffffffffffffffffffffffffffffffffff82169050919050565b600062000577826200054a565b9050919050565b62000589816200056a565b81146200059557600080fd5b50565b600081519050620005a9816200057e565b92915050565b60008060008060808587031215620005cc57620005cb6200037c565b5b6000620005dc87828801620003aa565b945050602085015167ffffffffffffffff8111156200060057620005ff62000381565b5b6200060e8782880162000517565b935050604085015167ffffffffffffffff81111562000632576200063162000381565b5b620006408782880162000517565b9250506060620006538782880162000598565b91505092959194509250565b600082825260208201905092915050565b7f496e76616c696420746f6b656e20616464726573730000000000000000000000600082015250565b6000620006a86015836200065f565b9150620006b58262000670565b602082019050919050565b60006020820190508181036000830152620006db8162000699565b9050919050565b7f45524332303a206d696e7420746f20746865207a65726f206164647265737300600082015250565b60006200071a601f836200065f565b91506200072782620006e2565b602082019050919050565b600060208201905081810360008301526200074d816200070b565b9050919050565b7f4e487b7100000000000000000000000000000000000000000000000000000000600052601160045260246000fd5b6000620007908262000386565b91506200079d8362000386565b9250827fffffffffffffffffffffffffffffffffffffffffffffffffffffffffffffffff03821115620007d557620007d462000754565b5b828201905092915050565b620007eb8162000386565b82525050565b6000602082019050620008086000830184620007e0565b92915050565b7f4e487b7100000000000000000000000000000000000000000000000000000000600052602260045260246000fd5b600060028204905060018216806200085657607f821691505b602082108114156200086d576200086c6200080e565b5b50919050565b61171e80620008836000396000f3fe608060405234801561001057600080fd5b50600436106100cf5760003560e01c806370a082311161008c578063a0712d6811610066578063a0712d681461022a578063a457c2d714610246578063a9059cbb14610276578063dd62ed3e146102a6576100cf565b806370a08231146101be5780638da5cb5b146101ee57806395d89b411461020c576100cf565b806306fdde03146100d4578063095ea7b3146100f257806318160ddd1461012257806323b872dd14610140578063313ce56714610170578063395093511461018e575b600080fd5b6100dc6102d6565b6040516100e99190610ea9565b60405180910390f35b61010c60048036038101906101079190610f64565b610368565b6040516101199190610fbf565b60405180910390f35b61012a61038b565b6040516101379190610fe9565b60405180910390f35b61015a60048036038101906101559190611004565b610395565b6040516101679190610fbf565b60405180910390f35b6101786103c4565b6040516101859190611073565b60405180910390f35b6101a860048036038101906101a39190610f64565b6103c9565b6040516101b59190610fbf565b60405180910390f35b6101d860048036038101906101d3919061108e565b610473565b6040516101e59190610fe9565b60405180910390f35b6101f66104bb565b60405161020391906110ca565b60405180910390f35b6102146104e1565b6040516102219190610ea9565b60405180910390f35b610244600480360381019061023f91906110e5565b610573565b005b610260600480360381019061025b9190610f64565b610632565b60405161026d9190610fbf565b60405180910390f35b610290600480360381019061028b9190610f64565b61071c565b60405161029d9190610fbf565b60405180910390f35b6102c060048036038101906102bb9190611112565b61073f565b6040516102cd9190610fe9565b60405180910390f35b6060600380546102e590611181565b80601f016020809104026020016040519081016040528092919081815260200182805461031190611181565b801561035e5780601f106103335761010080835404028352916020019161035e565b820191906000526020600020905b81548152906001019060200180831161034157829003601f168201915b5050505050905090565b6000806103736107c6565b90506103808185856107ce565b600191505092915050565b6000600254905090565b6000806103a06107c6565b90506103ad858285610999565b6103b8858585610a25565b60019150509392505050565b600090565b6000806103d46107c6565b9050610468818585600160008673ffffffffffffffffffffffffffffffffffffffff1673ffffffffffffffffffffffffffffffffffffffff16815260200190815260200160002060008973ffffffffffffffffffffffffffffffffffffffff1673ffffffffffffffffffffffffffffffffffffffff1681526020019081526020016000205461046391906111e2565b6107ce565b600191505092915050565b60008060008373ffffffffffffffffffffffffffffffffffffffff1673ffffffffffffffffffffffffffffffffffffffff168152602001908152602001600020549050919050565b600560009054906101000a900473ffffffffffffffffffffffffffffffffffffffff1681565b6060600480546104f090611181565b80601f016020809104026020016040519081016040528092919081815260200182805461051c90611181565b80156105695780601f1061053e57610100808354040283529160200191610569565b820191906000526020600020905b81548152906001019060200180831161054c57829003601f168201915b5050505050905090565b600560009054906101000a900473ffffffffffffffffffffffffffffffffffffffff1673ffffffffffffffffffffffffffffffffffffffff163373ffffffffffffffffffffffffffffffffffffffff1614610603576040517f08c379a00000000000000000000000000000000000000000000000000000000081526004016105fa90611284565b60405180910390fd5b61062f600560009054906101000a900473ffffffffffffffffffffffffffffffffffffffff1682610ca6565b50565b60008061063d6107c6565b90506000600160008373ffffffffffffffffffffffffffffffffffffffff1673ffffffffffffffffffffffffffffffffffffffff16815260200190815260200160002060008673ffffffffffffffffffffffffffffffffffffffff1673ffffffffffffffffffffffffffffffffffffffff16815260200190815260200160002054905083811015610703576040517f08c379a00000000000000000000000000000000000000000000000000000000081526004016106fa90611316565b60405180910390fd5b61071082868684036107ce565b60019250505092915050565b6000806107276107c6565b9050610734818585610a25565b600191505092915050565b6000600160008473ffffffffffffffffffffffffffffffffffffffff1673ffffffffffffffffffffffffffffffffffffffff16815260200190815260200160002060008373ffffffffffffffffffffffffffffffffffffffff1673ffffffffffffffffffffffffffffffffffffffff16815260200190815260200160002054905092915050565b600033905090565b600073ffffffffffffffffffffffffffffffffffffffff168373ffffffffffffffffffffffffffffffffffffffff16141561083e576040517f08c379a0000000000000000000000000000000000000000000000000000000008152600401610835906113a8565b60405180910390fd5b600073ffffffffffffffffffffffffffffffffffffffff168273ffffffffffffffffffffffffffffffffffffffff1614156108ae576040517f08c379a00000000000000000000000000000000000000000000000000000000081526004016108a59061143a565b60405180910390fd5b80600160008573ffffffffffffffffffffffffffffffffffffffff1673ffffffffffffffffffffffffffffffffffffffff16815260200190815260200160002060008473ffffffffffffffffffffffffffffffffffffffff1673ffffffffffffffffffffffffffffffffffffffff168152602001908152602001600020819055508173ffffffffffffffffffffffffffffffffffffffff168373ffffffffffffffffffffffffffffffffffffffff167f8c5be1e5ebec7d5bd14f71427d1e84f3dd0314c0f7b2291e5b200ac8c7c3b9258360405161098c9190610fe9565b60405180910390a3505050565b60006109a5848461073f565b90507fffffffffffffffffffffffffffffffffffffffffffffffffffffffffffffffff8114610a1f5781811015610a11576040517f08c379a0000000000000000000000000000000000000000000000000000000008152600401610a08906114a6565b60405180910390fd5b610a1e84848484036107ce565b5b50505050565b600073ffffffffffffffffffffffffffffffffffffffff168373ffffffffffffffffffffffffffffffffffffffff161415610a95576040517f08c379a0000000000000000000000000000000000000000000000000000000008152600401610a8c90611538565b60405180910390fd5b600073ffffffffffffffffffffffffffffffffffffffff168273ffffffffffffffffffffffffffffffffffffffff161415610b05576040517f08c379a0000000000000000000000000000000000000000000000000000000008152600401610afc906115ca565b60405180910390fd5b610b10838383610e06565b60008060008573ffffffffffffffffffffffffffffffffffffffff1673ffffffffffffffffffffffffffffffffffffffff16815260200190815260200160002054905081811015610b96576040517f08c379a0000000000000000000000000000000000000000000000000000000008152600401610b8d9061165c565b60405180910390fd5b8181036000808673ffffffffffffffffffffffffffffffffffffffff1673ffffffffffffffffffffffffffffffffffffffff16815260200190815260200160002081905550816000808573ffffffffffffffffffffffffffffffffffffffff1673ffffffffffffffffffffffffffffffffffffffff1681526020019081526020016000206000828254610c2991906111e2565b925050819055508273ffffffffffffffffffffffffffffffffffffffff168473ffffffffffffffffffffffffffffffffffffffff167fddf252ad1be2c89b69c2b068fc378daa952ba7f163c4a11628f55a4df523b3ef84604051610c8d9190610fe9565b60405180910390a3610ca0848484610e0b565b50505050565b600073ffffffffffffffffffffffffffffffffffffffff168273ffffffffffffffffffffffffffffffffffffffff161415610d16576040517f08c379a0000000000000000000000000000000000000000000000000000000008152600401610d0d906116c8565b60405180910390fd5b610d2260008383610e06565b8060026000828254610d3491906111e2565b92505081905550806000808473ffffffffffffffffffffffffffffffffffffffff1673ffffffffffffffffffffffffffffffffffffffff1681526020019081526020016000206000828254610d8991906111e2565b925050819055508173ffffffffffffffffffffffffffffffffffffffff16600073ffffffffffffffffffffffffffffffffffffffff167fddf252ad1be2c89b69c2b068fc378daa952ba7f163c4a11628f55a4df523b3ef83604051610dee9190610fe9565b60405180910390a3610e0260008383610e0b565b5050565b505050565b505050565b600081519050919050565b600082825260208201905092915050565b60005b83811015610e4a578082015181840152602081019050610e2f565b83811115610e59576000848401525b50505050565b6000601f19601f8301169050919050565b6000610e7b82610e10565b610e858185610e1b565b9350610e95818560208601610e2c565b610e9e81610e5f565b840191505092915050565b60006020820190508181036000830152610ec38184610e70565b905092915050565b600080fd5b600073ffffffffffffffffffffffffffffffffffffffff82169050919050565b6000610efb82610ed0565b9050919050565b610f0b81610ef0565b8114610f1657600080fd5b50565b600081359050610f2881610f02565b92915050565b6000819050919050565b610f4181610f2e565b8114610f4c57600080fd5b50565b600081359050610f5e81610f38565b92915050565b60008060408385031215610f7b57610f7a610ecb565b5b6000610f8985828601610f19565b9250506020610f9a85828601610f4f565b9150509250929050565b60008115159050919050565b610fb981610fa4565b82525050565b6000602082019050610fd46000830184610fb0565b92915050565b610fe381610f2e565b82525050565b6000602082019050610ffe6000830184610fda565b92915050565b60008060006060848603121561101d5761101c610ecb565b5b600061102b86828701610f19565b935050602061103c86828701610f19565b925050604061104d86828701610f4f565b9150509250925092565b600060ff82169050919050565b61106d81611057565b82525050565b60006020820190506110886000830184611064565b92915050565b6000602082840312156110a4576110a3610ecb565b5b60006110b284828501610f19565b91505092915050565b6110c481610ef0565b82525050565b60006020820190506110df60008301846110bb565b92915050565b6000602082840312156110fb576110fa610ecb565b5b600061110984828501610f4f565b91505092915050565b6000806040838503121561112957611128610ecb565b5b600061113785828601610f19565b925050602061114885828601610f19565b9150509250929050565b7f4e487b7100000000000000000000000000000000000000000000000000000000600052602260045260246000fd5b6000600282049050600182168061119957607f821691505b602082108114156111ad576111ac611152565b5b50919050565b7f4e487b7100000000000000000000000000000000000000000000000000000000600052601160045260246000fd5b60006111ed82610f2e565b91506111f883610f2e565b9250827fffffffffffffffffffffffffffffffffffffffffffffffffffffffffffffffff0382111561122d5761122c6111b3565b5b828201905092915050565b7f43616c6c6572206973206e6f74206f776e657200000000000000000000000000600082015250565b600061126e601383610e1b565b915061127982611238565b602082019050919050565b6000602082019050818103600083015261129d81611261565b9050919050565b7f45524332303a2064656372656173656420616c6c6f77616e63652062656c6f7760008201527f207a65726f000000000000000000000000000000000000000000000000000000602082015250565b6000611300602583610e1b565b915061130b826112a4565b604082019050919050565b6000602082019050818103600083015261132f816112f3565b9050919050565b7f45524332303a20617070726f76652066726f6d20746865207a65726f2061646460008201527f7265737300000000000000000000000000000000000000000000000000000000602082015250565b6000611392602483610e1b565b915061139d82611336565b604082019050919050565b600060208201905081810360008301526113c181611385565b9050919050565b7f45524332303a20617070726f766520746f20746865207a65726f20616464726560008201527f7373000000000000000000000000000000000000000000000000000000000000602082015250565b6000611424602283610e1b565b915061142f826113c8565b604082019050919050565b6000602082019050818103600083015261145381611417565b9050919050565b7f45524332303a20696e73756666696369656e7420616c6c6f77616e6365000000600082015250565b6000611490601d83610e1b565b915061149b8261145a565b602082019050919050565b600060208201905081810360008301526114bf81611483565b9050919050565b7f45524332303a207472616e736665722066726f6d20746865207a65726f20616460008201527f6472657373000000000000000000000000000000000000000000000000000000602082015250565b6000611522602583610e1b565b915061152d826114c6565b604082019050919050565b6000602082019050818103600083015261155181611515565b9050919050565b7f45524332303a207472616e7366657220746f20746865207a65726f206164647260008201527f6573730000000000000000000000000000000000000000000000000000000000602082015250565b60006115b4602383610e1b565b91506115bf82611558565b604082019050919050565b600060208201905081810360008301526115e3816115a7565b9050919050565b7f45524332303a207472616e7366657220616d6f756e742065786365656473206260008201527f616c616e63650000000000000000000000000000000000000000000000000000602082015250565b6000611646602683610e1b565b9150611651826115ea565b604082019050919050565b6000602082019050818103600083015261167581611639565b9050919050565b7f45524332303a206d696e7420746f20746865207a65726f206164647265737300600082015250565b60006116b2601f83610e1b565b91506116bd8261167c565b602082019050919050565b600060208201905081810360008301526116e1816116a5565b905091905056fea2646970667358221220fd468f260e50d12ac0a7ae51627436e785af5aaebd2aa852735083b55b21913564736f6c634300080b003360806040523480156200001157600080fd5b50604051620020183803806200201883398181016040528101906200003791906200019e565b80600073ffffffffffffffffffffffffffffffffffffffff168173ffffffffffffffffffffffffffffffffffffffff161415620000ab576040517f08c379a0000000000000000000000000000000000000000000000000000000008152600401620000a29062000231565b60405180910390fd5b816000806101000a81548173ffffffffffffffffffffffffffffffffffffffff021916908373ffffffffffffffffffffffffffffffffffffffff16021790555033600160006101000a81548173ffffffffffffffffffffffffffffffffffffffff021916908373ffffffffffffffffffffffffffffffffffffffff160217905550505062000253565b600080fd5b600073ffffffffffffffffffffffffffffffffffffffff82169050919050565b6000620001668262000139565b9050919050565b620001788162000159565b81146200018457600080fd5b50565b60008151905062000198816200016d565b92915050565b600060208284031215620001b757620001b662000134565b5b6000620001c78482850162000187565b91505092915050565b600082825260208201905092915050565b7f496e76616c696420616464726573730000000000000000000000000000000000600082015250565b600062000219600f83620001d0565b91506200022682620001e1565b602082019050919050565b600060208201905081810360008301526200024c816200020a565b9050919050565b611db580620002636000396000f3fe608060405234801561001057600080fd5b506004361061007d5760003560e01c8063873deb041161005b578063873deb04146100ea5780638c75d7b414610108578063966dae0e146101395780639ecebe2a146101575761007d565b80630c884bde1461008257806354dbc21e146100b25780635f1b9c28146100ce575b600080fd5b61009c60048036038101906100979190611487565b610189565b6040516100a991906114e9565b60405180910390f35b6100cc60048036038101906100c79190611487565b610401565b005b6100e860048036038101906100e3919061160d565b610c3e565b005b6100f2611089565b6040516100ff91906114e9565b60405180910390f35b610122600480360381019061011d919061163a565b6110ad565b604051610130929190611725565b60405180910390f35b610141611357565b60405161014e91906114e9565b60405180910390f35b610171600480360381019061016c919061175c565b61137d565b604051610180939291906117ab565b60405180910390f35b60008282600082116101d0576040517f08c379a00000000000000000000000000000000000000000000000000000000081526004016101c79061183f565b60405180910390fd5b60008111610213576040517f08c379a000000000000000000000000000000000000000000000000000000000815260040161020a9061183f565b60405180910390fd5b85600073ffffffffffffffffffffffffffffffffffffffff168173ffffffffffffffffffffffffffffffffffffffff161415610284576040517f08c379a000000000000000000000000000000000000000000000000000000000815260040161027b906118ab565b60405180910390fd5b6000600260008973ffffffffffffffffffffffffffffffffffffffff1673ffffffffffffffffffffffffffffffffffffffff168152602001908152602001600020805480602002602001604051908101604052809291908181526020016000905b8282101561038157838290600052602060002090600302016040518060600160405290816000820160009054906101000a900473ffffffffffffffffffffffffffffffffffffffff1673ffffffffffffffffffffffffffffffffffffffff1673ffffffffffffffffffffffffffffffffffffffff16815260200160018201548152602001600282015481525050815260200190600101906102e5565b50505050905060005b81518110156103f05760008282815181106103a8576103a76118cb565b5b602002602001015190508881602001511480156103c85750878160400151145b156103dc57806000015196505050506103f7565b5080806103e890611929565b91505061038a565b5060009450505b5050509392505050565b808260008211610446576040517f08c379a000000000000000000000000000000000000000000000000000000000815260040161043d9061183f565b60405180910390fd5b60008111610489576040517f08c379a00000000000000000000000000000000000000000000000000000000081526004016104809061183f565b60405180910390fd5b84600073ffffffffffffffffffffffffffffffffffffffff168173ffffffffffffffffffffffffffffffffffffffff1614156104fa576040517f08c379a00000000000000000000000000000000000000000000000000000000081526004016104f1906118ab565b60405180910390fd5b85600073ffffffffffffffffffffffffffffffffffffffff16600160009054906101000a900473ffffffffffffffffffffffffffffffffffffffff1673ffffffffffffffffffffffffffffffffffffffff16632f1d7fa7836040518263ffffffff1660e01b815260040161056e91906114e9565b602060405180830381865afa15801561058b573d6000803e3d6000fd5b505050506040513d601f19601f820116820180604052508101906105af9190611987565b73ffffffffffffffffffffffffffffffffffffffff161415610606576040517f08c379a00000000000000000000000000000000000000000000000000000000081526004016105fd90611a00565b60405180910390fd5b8460008054906101000a900473ffffffffffffffffffffffffffffffffffffffff16818173ffffffffffffffffffffffffffffffffffffffff166370a08231336040518263ffffffff1660e01b815260040161066291906114e9565b602060405180830381865afa15801561067f573d6000803e3d6000fd5b505050506040513d601f19601f820116820180604052508101906106a39190611a35565b10156106e4576040517f08c379a00000000000000000000000000000000000000000000000000000000081526004016106db90611aae565b60405180910390fd5b818173ffffffffffffffffffffffffffffffffffffffff1663dd62ed3e33306040518363ffffffff1660e01b8152600401610720929190611ace565b602060405180830381865afa15801561073d573d6000803e3d6000fd5b505050506040513d601f19601f820116820180604052508101906107619190611a35565b10156107a2576040517f08c379a000000000000000000000000000000000000000000000000000000000815260040161079990611b43565b60405180910390fd5b6000600160009054906101000a900473ffffffffffffffffffffffffffffffffffffffff1673ffffffffffffffffffffffffffffffffffffffff16632f1d7fa78b6040518263ffffffff1660e01b81526004016107ff91906114e9565b602060405180830381865afa15801561081c573d6000803e3d6000fd5b505050506040513d601f19601f820116820180604052508101906108409190611987565b9050600081905060008054906101000a900473ffffffffffffffffffffffffffffffffffffffff1673ffffffffffffffffffffffffffffffffffffffff166323b872dd33308c6040518463ffffffff1660e01b81526004016108a493929190611b63565b6020604051808303816000875af11580156108c3573d6000803e3d6000fd5b505050506040513d601f19601f820116820180604052508101906108e79190611bd2565b5060008173ffffffffffffffffffffffffffffffffffffffff16630c884bde60008054906101000a900473ffffffffffffffffffffffffffffffffffffffff168c8e6040518463ffffffff1660e01b8152600401610947939291906117ab565b602060405180830381865afa158015610964573d6000803e3d6000fd5b505050506040513d601f19601f820116820180604052508101906109889190611987565b9050600073ffffffffffffffffffffffffffffffffffffffff168173ffffffffffffffffffffffffffffffffffffffff1614610b395760008054906101000a900473ffffffffffffffffffffffffffffffffffffffff1673ffffffffffffffffffffffffffffffffffffffff1663a9059cbb828c6040518363ffffffff1660e01b8152600401610a19929190611bff565b6020604051808303816000875af1158015610a38573d6000803e3d6000fd5b505050506040513d601f19601f82011682018060405250810190610a5c9190611bd2565b508173ffffffffffffffffffffffffffffffffffffffff16635f1b9c2860405180608001604052803373ffffffffffffffffffffffffffffffffffffffff16815260200160008054906101000a900473ffffffffffffffffffffffffffffffffffffffff1673ffffffffffffffffffffffffffffffffffffffff1681526020018d81526020018e8152506040518263ffffffff1660e01b8152600401610b029190611c8c565b600060405180830381600087803b158015610b1c57600080fd5b505af1158015610b30573d6000803e3d6000fd5b50505050610c30565b600260008d73ffffffffffffffffffffffffffffffffffffffff1673ffffffffffffffffffffffffffffffffffffffff16815260200190815260200160002060405180606001604052803373ffffffffffffffffffffffffffffffffffffffff1681526020018d81526020018c815250908060018154018082558091505060019003906000526020600020906003020160009091909190915060008201518160000160006101000a81548173ffffffffffffffffffffffffffffffffffffffff021916908373ffffffffffffffffffffffffffffffffffffffff160217905550602082015181600101556040820151816002015550505b505050505050505050505050565b8060400151816060015160008211610c8b576040517f08c379a0000000000000000000000000000000000000000000000000000000008152600401610c829061183f565b60405180910390fd5b60008111610cce576040517f08c379a0000000000000000000000000000000000000000000000000000000008152600401610cc59061183f565b60405180910390fd5b8260200151600073ffffffffffffffffffffffffffffffffffffffff168173ffffffffffffffffffffffffffffffffffffffff161415610d43576040517f08c379a0000000000000000000000000000000000000000000000000000000008152600401610d3a906118ab565b60405180910390fd5b83602001513373ffffffffffffffffffffffffffffffffffffffff16600160009054906101000a900473ffffffffffffffffffffffffffffffffffffffff1673ffffffffffffffffffffffffffffffffffffffff16632f1d7fa7836040518263ffffffff1660e01b8152600401610dba91906114e9565b602060405180830381865afa158015610dd7573d6000803e3d6000fd5b505050506040513d601f19601f82011682018060405250810190610dfb9190611987565b73ffffffffffffffffffffffffffffffffffffffff1614610e51576040517f08c379a0000000000000000000000000000000000000000000000000000000008152600401610e4890611cf3565b60405180910390fd5b8460000151600073ffffffffffffffffffffffffffffffffffffffff168173ffffffffffffffffffffffffffffffffffffffff161415610ec6576040517f08c379a0000000000000000000000000000000000000000000000000000000008152600401610ebd906118ab565b60405180910390fd5b600060026000886020015173ffffffffffffffffffffffffffffffffffffffff1673ffffffffffffffffffffffffffffffffffffffff16815260200190815260200160002090506000805b828054905081101561103e576000838281548110610f3257610f316118cb565b5b9060005260206000209060030201905089604001518160010154148015610f60575089606001518160020154145b1561102a57600081600101819055506000816002018190555060008054906101000a900473ffffffffffffffffffffffffffffffffffffffff1673ffffffffffffffffffffffffffffffffffffffff1663a9059cbb8b600001518c606001516040518363ffffffff1660e01b8152600401610fdc929190611bff565b6020604051808303816000875af1158015610ffb573d6000803e3d6000fd5b505050506040513d601f19601f8201168201806040525081019061101f9190611bd2565b50600192505061103e565b50808061103690611929565b915050610f11565b508061107f576040517f08c379a000000000000000000000000000000000000000000000000000000000815260040161107690611d5f565b60405180910390fd5b5050505050505050565b60008054906101000a900473ffffffffffffffffffffffffffffffffffffffff1681565b60608082600073ffffffffffffffffffffffffffffffffffffffff168173ffffffffffffffffffffffffffffffffffffffff161415611121576040517f08c379a0000000000000000000000000000000000000000000000000000000008152600401611118906118ab565b60405180910390fd5b6000600260008673ffffffffffffffffffffffffffffffffffffffff1673ffffffffffffffffffffffffffffffffffffffff168152602001908152602001600020805480602002602001604051908101604052809291908181526020016000905b8282101561121e57838290600052602060002090600302016040518060600160405290816000820160009054906101000a900473ffffffffffffffffffffffffffffffffffffffff1673ffffffffffffffffffffffffffffffffffffffff1673ffffffffffffffffffffffffffffffffffffffff1681526020016001820154815260200160028201548152505081526020019060010190611182565b5050505090506000815167ffffffffffffffff8111156112415761124061151a565b5b60405190808252806020026020018201604052801561126f5781602001602082028036833780820191505090505b5090506000825167ffffffffffffffff81111561128f5761128e61151a565b5b6040519080825280602002602001820160405280156112bd5781602001602082028036833780820191505090505b50905060005b83518110156113475760008482815181106112e1576112e06118cb565b5b602002602001015190508060200151848381518110611303576113026118cb565b5b6020026020010181815250508060400151838381518110611327576113266118cb565b5b60200260200101818152505050808061133f90611929565b9150506112c3565b5081819550955050505050915091565b600160009054906101000a900473ffffffffffffffffffffffffffffffffffffffff1681565b6002602052816000526040600020818154811061139957600080fd5b9060005260206000209060030201600091509150508060000160009054906101000a900473ffffffffffffffffffffffffffffffffffffffff16908060010154908060020154905083565b6000604051905090565b600080fd5b600073ffffffffffffffffffffffffffffffffffffffff82169050919050565b600061141e826113f3565b9050919050565b61142e81611413565b811461143957600080fd5b50565b60008135905061144b81611425565b92915050565b6000819050919050565b61146481611451565b811461146f57600080fd5b50565b6000813590506114818161145b565b92915050565b6000806000606084860312156114a05761149f6113ee565b5b60006114ae8682870161143c565b93505060206114bf86828701611472565b92505060406114d086828701611472565b9150509250925092565b6114e381611413565b82525050565b60006020820190506114fe60008301846114da565b92915050565b600080fd5b6000601f19601f8301169050919050565b7f4e487b7100000000000000000000000000000000000000000000000000000000600052604160045260246000fd5b61155282611509565b810181811067ffffffffffffffff821117156115715761157061151a565b5b80604052505050565b60006115846113e4565b90506115908282611549565b919050565b6000608082840312156115ab576115aa611504565b5b6115b5608061157a565b905060006115c58482850161143c565b60008301525060206115d98482850161143c565b60208301525060406115ed84828501611472565b604083015250606061160184828501611472565b60608301525092915050565b600060808284031215611623576116226113ee565b5b600061163184828501611595565b91505092915050565b6000602082840312156116505761164f6113ee565b5b600061165e8482850161143c565b91505092915050565b600081519050919050565b600082825260208201905092915050565b6000819050602082019050919050565b61169c81611451565b82525050565b60006116ae8383611693565b60208301905092915050565b6000602082019050919050565b60006116d282611667565b6116dc8185611672565b93506116e783611683565b8060005b838110156117185781516116ff88826116a2565b975061170a836116ba565b9250506001810190506116eb565b5085935050505092915050565b6000604082019050818103600083015261173f81856116c7565b9050818103602083015261175381846116c7565b90509392505050565b60008060408385031215611773576117726113ee565b5b60006117818582860161143c565b925050602061179285828601611472565b9150509250929050565b6117a581611451565b82525050565b60006060820190506117c060008301866114da565b6117cd602083018561179c565b6117da604083018461179c565b949350505050565b600082825260208201905092915050565b7f4e756d62657220697320657175616c20746f207a65726f000000000000000000600082015250565b60006118296017836117e2565b9150611834826117f3565b602082019050919050565b600060208201905081810360008301526118588161181c565b9050919050565b7f496e76616c696420616464726573730000000000000000000000000000000000600082015250565b6000611895600f836117e2565b91506118a08261185f565b602082019050919050565b600060208201905081810360008301526118c481611888565b9050919050565b7f4e487b7100000000000000000000000000000000000000000000000000000000600052603260045260246000fd5b7f4e487b7100000000000000000000000000000000000000000000000000000000600052601160045260246000fd5b600061193482611451565b91507fffffffffffffffffffffffffffffffffffffffffffffffffffffffffffffffff821415611967576119666118fa565b5b600182019050919050565b60008151905061198181611425565b92915050565b60006020828403121561199d5761199c6113ee565b5b60006119ab84828501611972565b91505092915050565b7f45786368616e67657220666f7220646661206e6f7420666f756e640000000000600082015250565b60006119ea601b836117e2565b91506119f5826119b4565b602082019050919050565b60006020820190508181036000830152611a19816119dd565b9050919050565b600081519050611a2f8161145b565b92915050565b600060208284031215611a4b57611a4a6113ee565b5b6000611a5984828501611a20565b91505092915050565b7f53656e64657220646f6573206e6f74206861766520656e6f7567682064666100600082015250565b6000611a98601f836117e2565b9150611aa382611a62565b602082019050919050565b60006020820190508181036000830152611ac781611a8b565b9050919050565b6000604082019050611ae360008301856114da565b611af060208301846114da565b9392505050565b7f416d6f756e74206f6620444641206973206e6f7420616c6c6f77656400000000600082015250565b6000611b2d601c836117e2565b9150611b3882611af7565b602082019050919050565b60006020820190508181036000830152611b5c81611b20565b9050919050565b6000606082019050611b7860008301866114da565b611b8560208301856114da565b611b92604083018461179c565b949350505050565b60008115159050919050565b611baf81611b9a565b8114611bba57600080fd5b50565b600081519050611bcc81611ba6565b92915050565b600060208284031215611be857611be76113ee565b5b6000611bf684828501611bbd565b91505092915050565b6000604082019050611c1460008301856114da565b611c21602083018461179c565b9392505050565b611c3181611413565b82525050565b608082016000820151611c4d6000850182611c28565b506020820151611c606020850182611c28565b506040820151611c736040850182611693565b506060820151611c866060850182611693565b50505050565b6000608082019050611ca16000830184611c37565b92915050565b7f53656e646572206973206e6f742065786368616e676572000000000000000000600082015250565b6000611cdd6017836117e2565b9150611ce882611ca7565b602082019050919050565b60006020820190508181036000830152611d0c81611cd0565b9050919050565b7f56616c69642072657175657374206e6f7420666f756e64000000000000000000600082015250565b6000611d496017836117e2565b9150611d5482611d13565b602082019050919050565b60006020820190508181036000830152611d7881611d3c565b905091905056fea26469706673582212208b572e1341634f16f4f151780cff934fbd7f715b98aa6fe4b87272a9264a9b3964736f6c634300080b0033a26469706673582212209f1180b6cb5d85654147341740580c842e7ebd62cdee349e6a1fb8c6ed76b0a764736f6c634300080b0033",
  "immutableReferences": {},
  "source": "// SPDX-License-Identifier: MIT\r\npragma solidity ^0.8.3;\r\n\r\nimport \"./DFA.sol\";\r\nimport \"./Exchanger.sol\";\r\n\r\ncontract Factory {\r\n//  struct ExchangerRequestInfo {\r\n//    address user;\r\n//    uint amountToGet;\r\n//    uint amountToGive;\r\n//  }\r\n//\r\n//  struct ExchangerRequestFullInfo {\r\n//    address user;\r\n//    address dfaToGet;\r\n//    uint amountToGet;\r\n//    address dfaToGive;\r\n//    uint amountToGive;\r\n//  }\r\n//  struct DfaInfo {\r\n//    address dfaAddress;\r\n//    string name;\r\n//    string symbol;\r\n//    uint totalSupply;\r\n//  }\r\n\r\n  address[] dfaList;\r\n  mapping(address => address) dfaToExchanger;\r\n\r\n  modifier isAddressValid(address addressToCheck) {\r\n    require(addressToCheck != address(0), \"Invalid token address\");\r\n    _;\r\n  }\r\n\r\n  function createDfa(\r\n    uint initialSupply,\r\n    string memory name,\r\n    string memory symbol\r\n  ) external returns (address)\r\n  {\r\n    address dfaAddress = address(\r\n      new DFA(\r\n        initialSupply,\r\n        name,\r\n        symbol,\r\n        msg.sender\r\n      )\r\n    );\r\n    Exchanger exchanger = new Exchanger(dfaAddress);\r\n    dfaToExchanger[dfaAddress] = address(exchanger);\r\n    dfaList.push(dfaAddress);\r\n    return dfaAddress;\r\n  }\r\n\r\n  function getExchanger(address dfaAddress)\r\n    public\r\n    view\r\n    isAddressValid(dfaAddress)\r\n    returns (address)\r\n  {\r\n    return dfaToExchanger[dfaAddress];\r\n  }\r\n\r\n  function getAllDfa() external view\r\n    returns (\r\n      address[] memory,\r\n      address[] memory,\r\n      string[] memory,\r\n      string[] memory,\r\n      uint[] memory\r\n    )\r\n  {\r\n    address[] memory addresses = new address[](dfaList.length);\r\n    address[] memory owners = new address[](dfaList.length);\r\n    string[] memory names = new string[](dfaList.length);\r\n    string[] memory symbols = new string[](dfaList.length);\r\n    uint[] memory supplies = new uint[](dfaList.length);\r\n    for (uint i = 0; i < dfaList.length; i++) {\r\n      address dfaAddress = dfaList[i];\r\n      DFA dfa = DFA(dfaAddress);\r\n      addresses[i] = dfaAddress;\r\n      owners[i] = dfa.owner();\r\n      names[i] = dfa.name();\r\n      symbols[i] = dfa.symbol();\r\n      supplies[i] = dfa.totalSupply();\r\n    }\r\n    return (addresses, owners, names, symbols, supplies);\r\n  }\r\n\r\n  function getBalances()\r\n    external\r\n    view\r\n    returns (address[] memory, uint[] memory)\r\n  {\r\n    address[] memory addresses = new address[](dfaList.length);\r\n    uint[] memory balances = new uint[](dfaList.length);\r\n    for (uint i = 0; i < dfaList.length; i++) {\r\n      address dfaAddress = dfaList[i];\r\n      DFA dfa = DFA(dfaAddress);\r\n      addresses[i] = dfaAddress;\r\n      balances[i] = dfa.balanceOf(msg.sender);\r\n    }\r\n    return (addresses, balances);\r\n  }\r\n\r\n//  function getAllDfaTest() public view returns (DfaInfo[] memory) {\r\n//    DfaInfo[] memory info = new DfaInfo[](dfaList.length);\r\n//    for (uint i = 0; i < dfaList.length; i++) {\r\n//      address dfaAddress = dfaList[i];\r\n//      DFA dfa = DFA(dfaAddress);\r\n//      info[i] = DfaInfo(\r\n//        dfaAddress,\r\n//        dfa.name(),\r\n//        dfa.symbol(),\r\n//        dfa.totalSupply()\r\n//      );\r\n//    }\r\n//    return info;\r\n//  }\r\n\r\n//  function getAllRequests() public view returns (ExchangerRequestFullInfo[] memory) {\r\n//    ExchangerRequestFullInfo[] requestList = address[](dfaList.length);\r\n//    for (uint i = 0; i < dfaList.length; i++) {\r\n//\r\n//    }\r\n//    return requestList;\r\n//  }\r\n\r\n//  function getAllDfaByUser(address user)\r\n//    public\r\n//    view\r\n//    isAddressValid(user)\r\n//    returns (address[])\r\n//  {\r\n//    address[] usersDfa = address[]();\r\n//    for (uint i = 0; i < dfaList.length; i++) {\r\n//      if (DFA(dfaList[i]).owner() == user) {\r\n//        usersDfa.push(dfaList[i]);\r\n//      }\r\n//    }\r\n//    return usersDfa;\r\n//  }\r\n}",
  "sourcePath": "C:\\Users\\Vladislav\\Desktop\\Learning\\  4\\DFAService\\DFAContracts\\contracts\\Factory.sol",
  "compiler": {
    "name": "solc",
    "version": "0.8.11+commit.d7f03943.Emscripten.clang"
  },
  "schemaVersion": "3.4.4",
  "updatedAt": "2022-04-21T12:14:04.671Z",
  "networkType": "ethereum",
  "devdoc": {
    "kind": "dev",
    "methods": {},
    "version": 1
  },
  "userdoc": {
    "kind": "user",
    "methods": {},
    "version": 1
  }
}