{
  "contractName": "Factory",
  "abi": [
    {
      "inputs": [],
      "stateMutability": "nonpayable",
      "type": "constructor"
    },
    {
      "anonymous": false,
      "inputs": [
        {
          "indexed": false,
          "internalType": "address",
          "name": "whoCreate",
          "type": "address"
        },
        {
          "indexed": false,
          "internalType": "address",
          "name": "dfaAddress",
          "type": "address"
        },
        {
          "indexed": false,
          "internalType": "string",
          "name": "name",
          "type": "string"
        },
        {
          "indexed": false,
          "internalType": "string",
          "name": "symbol",
          "type": "string"
        },
        {
          "indexed": false,
          "internalType": "uint256",
          "name": "initialSupply",
          "type": "uint256"
        }
      ],
      "name": "DFACreated",
      "type": "event"
    },
    {
      "anonymous": false,
      "inputs": [
        {
          "indexed": false,
          "internalType": "address",
          "name": "user",
          "type": "address"
        }
      ],
      "name": "UserVerified",
      "type": "event"
    },
    {
      "inputs": [
        {
          "internalType": "uint256",
          "name": "initialSupply",
          "type": "uint256"
        },
        {
          "internalType": "string",
          "name": "name",
          "type": "string"
        },
        {
          "internalType": "string",
          "name": "symbol",
          "type": "string"
        }
      ],
      "name": "createDfa",
      "outputs": [
        {
          "internalType": "address",
          "name": "",
          "type": "address"
        }
      ],
      "stateMutability": "nonpayable",
      "type": "function"
    },
    {
      "inputs": [
        {
          "internalType": "address",
          "name": "user",
          "type": "address"
        }
      ],
      "name": "verifyUser",
      "outputs": [],
      "stateMutability": "nonpayable",
      "type": "function"
    },
    {
      "inputs": [
        {
          "internalType": "address",
          "name": "dfaAddress",
          "type": "address"
        }
      ],
      "name": "getExchanger",
      "outputs": [
        {
          "internalType": "address",
          "name": "",
          "type": "address"
        }
      ],
      "stateMutability": "view",
      "type": "function",
      "constant": true
    },
    {
      "inputs": [],
      "name": "getAllDfa",
      "outputs": [
        {
          "internalType": "address[]",
          "name": "",
          "type": "address[]"
        },
        {
          "internalType": "address[]",
          "name": "",
          "type": "address[]"
        },
        {
          "internalType": "string[]",
          "name": "",
          "type": "string[]"
        },
        {
          "internalType": "string[]",
          "name": "",
          "type": "string[]"
        },
        {
          "internalType": "uint256[]",
          "name": "",
          "type": "uint256[]"
        }
      ],
      "stateMutability": "view",
      "type": "function",
      "constant": true
    },
    {
      "inputs": [],
      "name": "getAllDfaAddresses",
      "outputs": [
        {
          "internalType": "address[]",
          "name": "",
          "type": "address[]"
        }
      ],
      "stateMutability": "view",
      "type": "function",
      "constant": true
    },
    {
      "inputs": [],
      "name": "getBalances",
      "outputs": [
        {
          "internalType": "address[]",
          "name": "",
          "type": "address[]"
        },
        {
          "internalType": "uint256[]",
          "name": "",
          "type": "uint256[]"
        }
      ],
      "stateMutability": "view",
      "type": "function",
      "constant": true
    },
    {
      "inputs": [],
      "name": "closeOldRequests",
      "outputs": [],
      "stateMutability": "nonpayable",
      "type": "function"
    },
    {
      "inputs": [
        {
          "internalType": "address",
          "name": "dfaToGet",
          "type": "address"
        },
        {
          "internalType": "address",
          "name": "dfaToGive",
          "type": "address"
        },
        {
          "internalType": "uint256",
          "name": "index",
          "type": "uint256"
        }
      ],
      "name": "closeRequest",
      "outputs": [],
      "stateMutability": "nonpayable",
      "type": "function"
    }
  ],
  "bytecode": "0x608060405234801561001057600080fd5b50600080546001600160a01b03191633179055614814806100326000396000f3fe60806040523480156200001157600080fd5b5060043610620000815760003560e01c8062113e08146200008657806310c1ca2b14620000a95780632e87cf2b14620000cf5780632f1d7fa714620000e8578063395d47b014620000ff5780634d81312014620001095780635d07a6041462000120578063b5f3ef5d146200013d575b600080fd5b6200009062000156565b604051620000a092919062000cf9565b60405180910390f35b620000c0620000ba36600462000dfa565b62000314565b604051620000a0919062000e6d565b620000e6620000e036600462000e97565b6200049f565b005b620000c0620000f936600462000edd565b62000524565b620000e662000570565b620000e66200011a36600462000edd565b62000668565b6200012a62000786565b604051620000a095949392919062000fbe565b6200014762000c01565b604051620000a0919062001035565b60608060006001805490506001600160401b038111156200017b576200017b62000d2b565b604051908082528060200260200182016040528015620001a5578160200160208202803683370190505b506001549091506000906001600160401b03811115620001c957620001c962000d2b565b604051908082528060200260200182016040528015620001f3578160200160208202803683370190505b50905060005b6001548110156200030a576000600182815481106200021c576200021c6200104a565b60009182526020909120015484516001600160a01b039091169150819081908690859081106200025057620002506200104a565b6001600160a01b0392831660209182029290920101526040516370a0823160e01b8152908216906370a08231906200028d90339060040162000e6d565b602060405180830381865afa158015620002ab573d6000803e3d6000fd5b505050506040513d601f19601f82011682018060405250810190620002d1919062001060565b848481518110620002e657620002e66200104a565b6020026020010181815250505050808062000301906200107a565b915050620001f9565b5090939092509050565b3360009081526003602052604081205460ff166200036d5760405162461bcd60e51b8152602060048201526011602482015270155cd95c881b9bdd081d995c9a599a5959607a1b60448201526064015b60405180910390fd5b600084848433604051620003819062000c65565b620003909493929190620010a4565b604051809103906000f080158015620003ad573d6000803e3d6000fd5b509050600081604051620003c19062000c73565b620003cd919062000e6d565b604051809103906000f080158015620003ea573d6000803e3d6000fd5b506001600160a01b0380841660008181526002602052604080822080549486166001600160a01b031995861617905560018054808201825592527fb10e2d527612073b26eecdfd717e6a320cf44b4afac2b0732d9fcbe2b7fa0cf69091018054909316909117909155519091507fdfae1556cb7f36a9d52c930e2986c55fcdef66c402f38194f645b04a15a196da906200048e9033908590899089908c90620010ed565b60405180910390a150949350505050565b6001600160a01b03828116600090815260026020526040908190205490516350a8194560e01b815285831660048201526024810184905233604482015291169081906350a8194590606401600060405180830381600087803b1580156200050557600080fd5b505af11580156200051a573d6000803e3d6000fd5b5050505050505050565b6000816001600160a01b038116620005505760405162461bcd60e51b8152600401620003649062001142565b50506001600160a01b039081166000908152600260205260409020541690565b6000546001600160a01b031633146200059d5760405162461bcd60e51b8152600401620003649062001171565b60005b600154811015620006655760006002600060018481548110620005c757620005c76200104a565b60009182526020808320909101546001600160a01b039081168452908301939093526040918201902054905163704eb61b60e11b815291169150819063e09d6c36906200061a906001906004016200119c565b600060405180830381600087803b1580156200063557600080fd5b505af11580156200064a573d6000803e3d6000fd5b505050505080806200065c906200107a565b915050620005a0565b50565b806001600160a01b038116620006925760405162461bcd60e51b8152600401620003649062001142565b6001600160a01b038216600090815260036020526040902054829060ff1615620006f75760405162461bcd60e51b8152602060048201526015602482015274155cd95c88185b1c9958591e481d995c9a599a5959605a1b604482015260640162000364565b6000546001600160a01b03163314620007245760405162461bcd60e51b8152600401620003649062001171565b6001600160a01b03831660009081526003602052604090819020805460ff19166001179055517fa6625d2d26e786e2f473111bea4b2fcdbbf1863d883a2359989ce3a103d2972a906200077990859062000e6d565b60405180910390a1505050565b606080606080606060006001805490506001600160401b03811115620007b057620007b062000d2b565b604051908082528060200260200182016040528015620007da578160200160208202803683370190505b506001549091506000906001600160401b03811115620007fe57620007fe62000d2b565b60405190808252806020026020018201604052801562000828578160200160208202803683370190505b506001549091506000906001600160401b038111156200084c576200084c62000d2b565b6040519080825280602002602001820160405280156200088157816020015b60608152602001906001900390816200086b5790505b506001549091506000906001600160401b03811115620008a557620008a562000d2b565b604051908082528060200260200182016040528015620008da57816020015b6060815260200190600190039081620008c45790505b506001549091506000906001600160401b03811115620008fe57620008fe62000d2b565b60405190808252806020026020018201604052801562000928578160200160208202803683370190505b50905060005b60015481101562000bef576000600182815481106200095157620009516200104a565b60009182526020909120015487516001600160a01b039091169150819081908990859081106200098557620009856200104a565b60200260200101906001600160a01b031690816001600160a01b031681525050806001600160a01b0316638da5cb5b6040518163ffffffff1660e01b8152600401602060405180830381865afa158015620009e4573d6000803e3d6000fd5b505050506040513d601f19601f8201168201806040525081019062000a0a9190620011ee565b87848151811062000a1f5762000a1f6200104a565b60200260200101906001600160a01b031690816001600160a01b031681525050806001600160a01b03166306fdde036040518163ffffffff1660e01b8152600401600060405180830381865afa15801562000a7e573d6000803e3d6000fd5b505050506040513d6000823e601f3d908101601f1916820160405262000aa891908101906200120e565b86848151811062000abd5762000abd6200104a565b6020026020010181905250806001600160a01b03166395d89b416040518163ffffffff1660e01b8152600401600060405180830381865afa15801562000b07573d6000803e3d6000fd5b505050506040513d6000823e601f3d908101601f1916820160405262000b3191908101906200120e565b85848151811062000b465762000b466200104a565b6020026020010181905250806001600160a01b03166318160ddd6040518163ffffffff1660e01b8152600401602060405180830381865afa15801562000b90573d6000803e3d6000fd5b505050506040513d601f19601f8201168201806040525081019062000bb6919062001060565b84848151811062000bcb5762000bcb6200104a565b6020026020010181815250505050808062000be6906200107a565b9150506200092e565b50939992985090965094509092509050565b6060600180548060200260200160405190810160405280929190818152602001828054801562000c5b57602002820191906000526020600020905b81546001600160a01b0316815260019091019060200180831162000c3c575b5050505050905090565b610ebb806200128583390190565b61269f806200214083390190565b600081518084526020808501945080840160005b8381101562000cbc5781516001600160a01b03168752958201959082019060010162000c95565b509495945050505050565b600081518084526020808501945080840160005b8381101562000cbc5781518752958201959082019060010162000cdb565b60408152600062000d0e604083018562000c81565b828103602084015262000d22818562000cc7565b95945050505050565b634e487b7160e01b600052604160045260246000fd5b604051601f8201601f191681016001600160401b038111828210171562000d6c5762000d6c62000d2b565b604052919050565b60006001600160401b0382111562000d905762000d9062000d2b565b50601f01601f191660200190565b600082601f83011262000db057600080fd5b813562000dc762000dc18262000d74565b62000d41565b81815284602083860101111562000ddd57600080fd5b816020850160208301376000918101602001919091529392505050565b60008060006060848603121562000e1057600080fd5b8335925060208401356001600160401b038082111562000e2f57600080fd5b62000e3d8783880162000d9e565b9350604086013591508082111562000e5457600080fd5b5062000e638682870162000d9e565b9150509250925092565b6001600160a01b0391909116815260200190565b6001600160a01b03811681146200066557600080fd5b60008060006060848603121562000ead57600080fd5b833562000eba8162000e81565b9250602084013562000ecc8162000e81565b929592945050506040919091013590565b60006020828403121562000ef057600080fd5b813562000efd8162000e81565b9392505050565b60005b8381101562000f2157818101518382015260200162000f07565b8381111562000f31576000848401525b50505050565b6000815180845262000f5181602086016020860162000f04565b601f01601f19169290920160200192915050565b600081518084526020808501808196508360051b8101915082860160005b8581101562000fb157828403895262000f9e84835162000f37565b9885019893509084019060010162000f83565b5091979650505050505050565b60a08152600062000fd360a083018862000c81565b828103602084015262000fe7818862000c81565b9050828103604084015262000ffd818762000f65565b9050828103606084015262001013818662000f65565b9050828103608084015262001029818562000cc7565b98975050505050505050565b60208152600062000efd602083018462000c81565b634e487b7160e01b600052603260045260246000fd5b6000602082840312156200107357600080fd5b5051919050565b60006000198214156200109d57634e487b7160e01b600052601160045260246000fd5b5060010190565b848152608060208201526000620010bf608083018662000f37565b8281036040840152620010d3818662000f37565b91505060018060a01b038316606083015295945050505050565b6001600160a01b0386811682528516602082015260a0604082018190526000906200111b9083018662000f37565b82810360608401526200112f818662000f37565b9150508260808301529695505050505050565b602080825260159082015274496e76616c696420746f6b656e206164647265737360581b604082015260600190565b6020808252601190820152702ab9b2b91034b9903737ba1037bbb732b960791b604082015260600190565b6020808252825482820181905260008481528281209092916040850190845b81811015620011e25783546001600160a01b031683526001938401939285019201620011bb565b50909695505050505050565b6000602082840312156200120157600080fd5b815162000efd8162000e81565b6000602082840312156200122157600080fd5b81516001600160401b038111156200123857600080fd5b8201601f810184136200124a57600080fd5b80516200125b62000dc18262000d74565b8181528560208385010111156200127157600080fd5b62000d2282602083016020860162000f0456fe60806040523480156200001157600080fd5b5060405162000ebb38038062000ebb833981016040819052620000349162000353565b8251839083906200004d906003906020850190620001e0565b50805162000063906004906020840190620001e0565b50829150506001600160a01b038116620000c45760405162461bcd60e51b815260206004820152601560248201527f496e76616c696420746f6b656e2061646472657373000000000000000000000060448201526064015b60405180910390fd5b620000d08286620000fb565b50600580546001600160a01b0319166001600160a01b0392909216919091179055506200044d915050565b6001600160a01b038216620001535760405162461bcd60e51b815260206004820152601f60248201527f45524332303a206d696e7420746f20746865207a65726f2061646472657373006044820152606401620000bb565b8060026000828254620001679190620003e9565b90915550506001600160a01b0382166000908152602081905260408120805483929062000196908490620003e9565b90915550506040518181526001600160a01b038316906000907fddf252ad1be2c89b69c2b068fc378daa952ba7f163c4a11628f55a4df523b3ef9060200160405180910390a35050565b828054620001ee9062000410565b90600052602060002090601f0160209004810192826200021257600085556200025d565b82601f106200022d57805160ff19168380011785556200025d565b828001600101855582156200025d579182015b828111156200025d57825182559160200191906001019062000240565b506200026b9291506200026f565b5090565b5b808211156200026b576000815560010162000270565b634e487b7160e01b600052604160045260246000fd5b600082601f830112620002ae57600080fd5b81516001600160401b0380821115620002cb57620002cb62000286565b604051601f8301601f19908116603f01168101908282118183101715620002f657620002f662000286565b816040528381526020925086838588010111156200031357600080fd5b600091505b8382101562000337578582018301518183018401529082019062000318565b83821115620003495760008385830101525b9695505050505050565b600080600080608085870312156200036a57600080fd5b845160208601519094506001600160401b03808211156200038a57600080fd5b62000398888389016200029c565b94506040870151915080821115620003af57600080fd5b50620003be878288016200029c565b606087015190935090506001600160a01b0381168114620003de57600080fd5b939692955090935050565b600082198211156200040b57634e487b7160e01b600052601160045260246000fd5b500190565b600181811c908216806200042557607f821691505b602082108114156200044757634e487b7160e01b600052602260045260246000fd5b50919050565b610a5e806200045d6000396000f3fe608060405234801561001057600080fd5b50600436106100af5760003560e01c806306fdde03146100b4578063095ea7b3146100d257806318160ddd146100f557806323b872dd14610107578063313ce5671461011a578063395093511461012957806370a082311461013c5780638da5cb5b1461016557806395d89b4114610190578063a0712d6814610198578063a457c2d7146101ad578063a9059cbb146101c0578063dd62ed3e146101d3575b600080fd5b6100bc6101e6565b6040516100c99190610862565b60405180910390f35b6100e56100e03660046108d3565b610278565b60405190151581526020016100c9565b6002545b6040519081526020016100c9565b6100e56101153660046108fd565b610290565b604051600081526020016100c9565b6100e56101373660046108d3565b6102b4565b6100f961014a366004610939565b6001600160a01b031660009081526020819052604090205490565b600554610178906001600160a01b031681565b6040516001600160a01b0390911681526020016100c9565b6100bc6102f3565b6101ab6101a636600461095b565b610302565b005b6100e56101bb3660046108d3565b610370565b6100e56101ce3660046108d3565b610402565b6100f96101e1366004610974565b610410565b6060600380546101f5906109a7565b80601f0160208091040260200160405190810160405280929190818152602001828054610221906109a7565b801561026e5780601f106102435761010080835404028352916020019161026e565b820191906000526020600020905b81548152906001019060200180831161025157829003601f168201915b5050505050905090565b60003361028681858561043b565b5060019392505050565b60003361029e85828561055f565b6102a98585856105d9565b506001949350505050565b3360008181526001602090815260408083206001600160a01b038716845290915281205490919061028690829086906102ee9087906109e2565b61043b565b6060600480546101f5906109a7565b6005546001600160a01b031633146103575760405162461bcd60e51b815260206004820152601360248201527221b0b63632b91034b9903737ba1037bbb732b960691b60448201526064015b60405180910390fd5b60055461036d906001600160a01b031682610795565b50565b3360008181526001602090815260408083206001600160a01b0387168452909152812054909190838110156103f55760405162461bcd60e51b815260206004820152602560248201527f45524332303a2064656372656173656420616c6c6f77616e63652062656c6f77604482015264207a65726f60d81b606482015260840161034e565b6102a9828686840361043b565b6000336102868185856105d9565b6001600160a01b03918216600090815260016020908152604080832093909416825291909152205490565b6001600160a01b03831661049d5760405162461bcd60e51b8152602060048201526024808201527f45524332303a20617070726f76652066726f6d20746865207a65726f206164646044820152637265737360e01b606482015260840161034e565b6001600160a01b0382166104fe5760405162461bcd60e51b815260206004820152602260248201527f45524332303a20617070726f766520746f20746865207a65726f206164647265604482015261737360f01b606482015260840161034e565b6001600160a01b0383811660008181526001602090815260408083209487168084529482529182902085905590518481527f8c5be1e5ebec7d5bd14f71427d1e84f3dd0314c0f7b2291e5b200ac8c7c3b925910160405180910390a3505050565b600061056b8484610410565b905060001981146105d357818110156105c65760405162461bcd60e51b815260206004820152601d60248201527f45524332303a20696e73756666696369656e7420616c6c6f77616e6365000000604482015260640161034e565b6105d3848484840361043b565b50505050565b6001600160a01b03831661063d5760405162461bcd60e51b815260206004820152602560248201527f45524332303a207472616e736665722066726f6d20746865207a65726f206164604482015264647265737360d81b606482015260840161034e565b6001600160a01b03821661069f5760405162461bcd60e51b815260206004820152602360248201527f45524332303a207472616e7366657220746f20746865207a65726f206164647260448201526265737360e81b606482015260840161034e565b6001600160a01b038316600090815260208190526040902054818110156107175760405162461bcd60e51b815260206004820152602660248201527f45524332303a207472616e7366657220616d6f756e7420657863656564732062604482015265616c616e636560d01b606482015260840161034e565b6001600160a01b0380851660009081526020819052604080822085850390559185168152908120805484929061074e9084906109e2565b92505081905550826001600160a01b0316846001600160a01b0316600080516020610a098339815191528460405161078891815260200190565b60405180910390a36105d3565b6001600160a01b0382166107eb5760405162461bcd60e51b815260206004820152601f60248201527f45524332303a206d696e7420746f20746865207a65726f206164647265737300604482015260640161034e565b80600260008282546107fd91906109e2565b90915550506001600160a01b0382166000908152602081905260408120805483929061082a9084906109e2565b90915550506040518181526001600160a01b03831690600090600080516020610a098339815191529060200160405180910390a35050565b600060208083528351808285015260005b8181101561088f57858101830151858201604001528201610873565b818111156108a1576000604083870101525b50601f01601f1916929092016040019392505050565b80356001600160a01b03811681146108ce57600080fd5b919050565b600080604083850312156108e657600080fd5b6108ef836108b7565b946020939093013593505050565b60008060006060848603121561091257600080fd5b61091b846108b7565b9250610929602085016108b7565b9150604084013590509250925092565b60006020828403121561094b57600080fd5b610954826108b7565b9392505050565b60006020828403121561096d57600080fd5b5035919050565b6000806040838503121561098757600080fd5b610990836108b7565b915061099e602084016108b7565b90509250929050565b600181811c908216806109bb57607f821691505b602082108114156109dc57634e487b7160e01b600052602260045260246000fd5b50919050565b60008219821115610a0357634e487b7160e01b600052601160045260246000fd5b50019056feddf252ad1be2c89b69c2b068fc378daa952ba7f163c4a11628f55a4df523b3efa264697066735822122094c987657665c238adb58c41cea1cb48ac72fdf6fdc212543d393d6fb0553fa264736f6c634300080b003360806040523480156200001157600080fd5b506040516200269f3803806200269f8339810160408190526200003491620000b2565b806001600160a01b038116620000825760405162461bcd60e51b815260206004820152600f60248201526e496e76616c6964206164647265737360881b604482015260640160405180910390fd5b50600080546001600160a01b039092166001600160a01b03199283161790556001805490911633179055620000e4565b600060208284031215620000c557600080fd5b81516001600160a01b0381168114620000dd57600080fd5b9392505050565b6125ab80620000f46000396000f3fe608060405234801561001057600080fd5b50600436106100835760003560e01c806350a81945146100885780636bef7a2b1461009d578063873deb04146100b05780638c75d7b4146100d9578063966dae0e146100fd5780639ecebe2a14610110578063c31f271014610135578063d550a5d414610148578063e09d6c36146101a3575b600080fd5b61009b610096366004611e45565b6101b6565b005b61009b6100ab366004611f09565b610344565b6000546100c3906001600160a01b031681565b6040516100d09190611f6b565b60405180910390f35b6100ec6100e7366004611f7f565b610f29565b6040516100d0959493929190612044565b6001546100c3906001600160a01b031681565b61012361011e3660046120e3565b6113e6565b6040516100d09695949392919061210f565b61009b61014336600461215d565b61144b565b61015b6101563660046121be565b611777565b6040516100d091908151151581526020808301516001600160a01b03169082015260408083015190820152606080830151908201526080918201519181019190915260a00190565b61009b6101b1366004612245565b611c01565b6001546001600160a01b031633146101e95760405162461bcd60e51b81526004016101e0906122ea565b60405180910390fd5b6001600160a01b0383166000908152600260205260408120805490919082908590811061021857610218612319565b6000918252602090912060059091020180549091506001600160a01b03848116610100909204161461028c5760405162461bcd60e51b815260206004820152601e60248201527f53656e646572206469646e74206372656174652061207265717565737421000060448201526064016101e0565b6000600482015460ff1660018111156102a7576102a7611fd7565b141561033d576004818101805460ff191660011790556000548254600284015460405163a9059cbb60e01b81526001600160a01b039384169463a9059cbb946102f89461010090041692910161232f565b6020604051808303816000875af1158015610317573d6000803e3d6000fd5b505050506040513d601f19601f8201168201806040525081019061033b9190612358565b505b5050505050565b806060015181604001516000821161036e5760405162461bcd60e51b81526004016101e090612373565b6000811161038e5760405162461bcd60e51b81526004016101e090612373565b60208301516001600160a01b0381166103b95760405162461bcd60e51b81526004016101e0906123a4565b6020840151600154604051632f1d7fa760e01b81526000916001600160a01b031690632f1d7fa7906103ef908590600401611f6b565b602060405180830381865afa15801561040c573d6000803e3d6000fd5b505050506040513d601f19601f8201168201806040525081019061043091906123cd565b6001600160a01b031614156104855760405162461bcd60e51b815260206004820152601b60248201527a115e18da185b99d95c88199bdc88191998481b9bdd08199bdd5b99602a1b60448201526064016101e0565b60608501516000546040516370a0823160e01b815282916001600160a01b0316906370a08231906104ba903390600401611f6b565b602060405180830381865afa1580156104d7573d6000803e3d6000fd5b505050506040513d601f19601f820116820180604052508101906104fb91906123ea565b10156105495760405162461bcd60e51b815260206004820152601f60248201527f53656e64657220646f6573206e6f74206861766520656e6f756768206466610060448201526064016101e0565b600054604051636eb1769f60e11b815233600482015230602482015282916001600160a01b03169063dd62ed3e90604401602060405180830381865afa158015610597573d6000803e3d6000fd5b505050506040513d601f19601f820116820180604052508101906105bb91906123ea565b10156106085760405162461bcd60e51b815260206004820152601c60248201527b105b5bdd5b9d081bd988111190481a5cc81b9bdd08185b1b1bddd95960221b60448201526064016101e0565b6001546020870151604051632f1d7fa760e01b81526000926001600160a01b031691632f1d7fa79161063d9190600401611f6b565b602060405180830381865afa15801561065a573d6000803e3d6000fd5b505050506040513d601f19601f8201168201806040525081019061067e91906123cd565b60005460608901516040516323b872dd60e01b8152336004820152306024820152604481019190915291925082916001600160a01b03909116906323b872dd906064016020604051808303816000875af11580156106e0573d6000803e3d6000fd5b505050506040513d601f19601f820116820180604052508101906107049190612358565b506000816001600160a01b031663d550a5d460405180608001604052808c60000151600181111561073757610737611fd7565b8152600080546001600160a01b031660208301526060808f01516040808501919091528f810151919093015290516001600160e01b031960e085901b168152610784929190600401612438565b60a060405180830381865afa1580156107a1573d6000803e3d6000fd5b505050506040513d601f19601f820116820180604052508101906107c59190612453565b90506000895160018111156107dc576107dc611fd7565b1415610a3a5780511561090a57600054602082015160608b015160405163a9059cbb60e01b81526001600160a01b039093169263a9059cbb9261082392909160040161232f565b6020604051808303816000875af1158015610842573d6000803e3d6000fd5b505050506040513d601f19601f820116820180604052508101906108669190612358565b506040805160a0810182526000546001600160a01b0390811682526060808d015160208401528c8401518385015284840151908301523360808301529151630c31f27160e41b81529184169163c31f2710916108c4916004016124b5565b600060405180830381600087803b1580156108de57600080fd5b505af11580156108f2573d6000803e3d6000fd5b5050600060608c0181905260408c015250610f1e9050565b600260008a602001516001600160a01b03166001600160a01b031681526020019081526020016000206040518060c001604052808b60000151600181111561095457610954611fd7565b815233602082015260408c810151908201526060808d0151908201526080808d01519082015260a00160009052815460018181018455600093845260209093208251600590920201805492939092839160ff199091169083818111156109bc576109bc611fd7565b0217905550602082015181546001600160a01b0390911661010002610100600160a81b03199091161781556040820151600180830191909155606083015160028301556080830151600383015560a08301516004830180549192909160ff1916908381811115610a2e57610a2e611fd7565b02179055505050610f1e565b80518015610a4c575060008960600151115b8015610a5c575060008960400151115b15610dd5578860600151816060015111158015610a8157508860400151816080015111155b15610bce576000546020820151606083015160405163a9059cbb60e01b81526001600160a01b039093169263a9059cbb92610ac092909160040161232f565b6020604051808303816000875af1158015610adf573d6000803e3d6000fd5b505050506040513d601f19601f82011682018060405250810190610b039190612358565b506040805160a0810182526000546001600160a01b039081168252606080850151602084015260808086015184860152858501519184019190915233908301529151630c31f27160e41b81529184169163c31f271091610b65916004016124b5565b600060405180830381600087803b158015610b7f57600080fd5b505af1158015610b93573d6000803e3d6000fd5b50505050806060015189606001818151610bad919061250c565b905250608081015160408a018051610bc690839061250c565b905250610cea565b600054602082015160608b015160405163a9059cbb60e01b81526001600160a01b039093169263a9059cbb92610c0892909160040161232f565b6020604051808303816000875af1158015610c27573d6000803e3d6000fd5b505050506040513d601f19601f82011682018060405250810190610c4b9190612358565b506040805160a0810182526000546001600160a01b0390811682526060808d015160208401528c8401518385015284840151908301523360808301529151630c31f27160e41b81529184169163c31f271091610ca9916004016124b5565b600060405180830381600087803b158015610cc357600080fd5b505af1158015610cd7573d6000803e3d6000fd5b5050600060608c0181905260408c015250505b60608901511580610cfd57506040890151155b15610d0757610dd5565b816001600160a01b031663d550a5d460405180608001604052808c600001516001811115610d3757610d37611fd7565b81526000546001600160a01b031660208201526060808e01516040808401919091528e8101519190920152840151610d70906001612523565b6040518363ffffffff1660e01b8152600401610d8d929190612438565b60a060405180830381865afa158015610daa573d6000803e3d6000fd5b505050506040513d601f19601f82011682018060405250810190610dce9190612453565b9050610a3a565b60008960400151118015610ded575060008960600151115b15610f1e57600260008a602001516001600160a01b03166001600160a01b031681526020019081526020016000206040518060c001604052808b600001516001811115610e3c57610e3c611fd7565b815233602082015260408c810151908201526060808d0151908201526080808d01519082015260a00160009052815460018181018455600093845260209093208251600590920201805492939092839160ff19909116908381811115610ea457610ea4611fd7565b0217905550602082015181546001600160a01b0390911661010002610100600160a81b03199091161781556040820151600180830191909155606083015160028301556080830151600383015560a08301516004830180549192909160ff1916908381811115610f1657610f16611fd7565b021790555050505b505050505050505050565b606080808080856001600160a01b038116610f565760405162461bcd60e51b81526004016101e0906123a4565b6001600160a01b038716600090815260026020908152604080832080548251818502810185019093528083529192909190849084015b82821015611050576000848152602090206040805160c08101909152600584029091018054829060ff166001811115610fc757610fc7611fd7565b6001811115610fd857610fd8611fd7565b8152815461010090046001600160a01b0316602082015260018083015460408301526002830154606083015260038301546080830152600483015460a09092019160ff169081111561102c5761102c611fd7565b600181111561103d5761103d611fd7565b8152505081526020019060010190610f8c565b5050505090506000805b82518110156110e357600083828151811061107757611077612319565b602002602001015160a00151600181111561109457611094611fd7565b1480156110be5750428382815181106110af576110af612319565b60200260200101516080015110155b156110d157816110cd8161253b565b9250505b806110db8161253b565b91505061105a565b506000816001600160401b038111156110fe576110fe611e87565b604051908082528060200260200182016040528015611127578160200160208202803683370190505b5090506000826001600160401b0381111561114457611144611e87565b60405190808252806020026020018201604052801561116d578160200160208202803683370190505b5090506000836001600160401b0381111561118a5761118a611e87565b6040519080825280602002602001820160405280156111b3578160200160208202803683370190505b5090506000846001600160401b038111156111d0576111d0611e87565b6040519080825280602002602001820160405280156111f9578160200160208202803683370190505b5090506000856001600160401b0381111561121657611216611e87565b60405190808252806020026020018201604052801561123f578160200160208202803683370190505b5090506000805b88518110156113d057600089828151811061126357611263612319565b602002602001015160a00151600181111561128057611280611fd7565b1480156112aa57504289828151811061129b5761129b612319565b60200260200101516080015110155b156113be5760008982815181106112c3576112c3612319565b6020026020010151905080602001518884815181106112e4576112e4612319565b60200260200101906001600160a01b031690816001600160a01b031681525050806040015187848151811061131b5761131b612319565b602002602001018181525050806060015186848151811061133e5761133e612319565b602002602001018181525050806000015185848151811061136157611361612319565b6020026020010190600181111561137a5761137a611fd7565b9081600181111561138d5761138d611fd7565b81525050818484815181106113a4576113a4612319565b60209081029190910101526113ba600184612523565b9250505b806113c88161253b565b915050611246565b50949e939d50919b509950975095505050505050565b6002602052816000526040600020818154811061140257600080fd5b60009182526020909120600590910201805460018201546002830154600384015460049094015460ff80851697506101009094046001600160a01b031695509193909290911686565b80602001518160400151600082116114755760405162461bcd60e51b81526004016101e090612373565b600081116114955760405162461bcd60e51b81526004016101e090612373565b82516001600160a01b0381166114bd5760405162461bcd60e51b81526004016101e0906123a4565b8351600154604051632f1d7fa760e01b815233916001600160a01b031690632f1d7fa7906114ef908590600401611f6b565b602060405180830381865afa15801561150c573d6000803e3d6000fd5b505050506040513d601f19601f8201168201806040525081019061153091906123cd565b6001600160a01b0316146115805760405162461bcd60e51b815260206004820152601760248201527629b2b73232b91034b9903737ba1032bc31b430b733b2b960491b60448201526064016101e0565b60808501516001600160a01b0381166115ab5760405162461bcd60e51b81526004016101e0906123a4565b85516001600160a01b031660009081526002602052604081206060880151815481106115d9576115d9612319565b600091825260208220915460808a01516040808c0151905163a9059cbb60e01b8152600590940290940194506001600160a01b039091169263a9059cbb9261162592919060040161232f565b6020604051808303816000875af1158015611644573d6000803e3d6000fd5b505050506040513d601f19601f820116820180604052508101906116689190612358565b5080546000546040898101516080808c01518c516020808f015186516101009099046001600160a01b039081168a5297881691890191909152948701939093528416606086015292169183019190915260a08201527f3fcd82abd7b4aa2dae161019e066c1909e297f3a20b3b4757ef4aa36b1a122429060c00160405180910390a18660200151816001016000828254611702919061250c565b9091555050604087015160028201805460009061172090849061250c565b9091555060009050815460ff16600181111561173e5761173e611fd7565b148061174c57506001810154155b8061175957506002810154155b1561176e5760048101805460ff191660011790555b50505050505050565b6117b46040518060a0016040528060001515815260200160006001600160a01b031681526020016000815260200160008152602001600081525090565b82604001518360600151600082116117de5760405162461bcd60e51b81526004016101e090612373565b600081116117fe5760405162461bcd60e51b81526004016101e090612373565b60208501516001600160a01b0381166118295760405162461bcd60e51b81526004016101e0906123a4565b6020808701516001600160a01b031660009081526002825260408082208054825181860281018601909352808352929391929091849084015b82821015611926576000848152602090206040805160c08101909152600584029091018054829060ff16600181111561189d5761189d611fd7565b60018111156118ae576118ae611fd7565b8152815461010090046001600160a01b0316602082015260018083015460408301526002830154606083015260038301546080830152600483015460a09092019160ff169081111561190257611902611fd7565b600181111561191357611913611fd7565b8152505081526020019060010190611862565b5092935088925050505b8151811015611bbc57600082828151811061194d5761194d612319565b6020026020010151905060018081111561196957611969611fd7565b8160a00151600181111561197f5761197f611fd7565b148061198e5750428160800151105b156119995750611baa565b600080825160018111156119af576119af611fd7565b1480156119ce575060008a5160018111156119cc576119cc611fd7565b145b15611a1c57611a1560405180604001604052808c6060015181526020018c604001518152506040518060400160405280856040015181526020018560600151815250611d94565b9050611b57565b600082516001811115611a3157611a31611fd7565b148015611a50575060018a516001811115611a4e57611a4e611fd7565b145b15611a9757611a1560405180604001604052808c6060015181526020018c604001518152506040518060400160405280856040015181526020018560600151815250611db6565b600182516001811115611aac57611aac611fd7565b148015611acb575060008a516001811115611ac957611ac9611fd7565b145b15611b1257611a15604051806040016040528084604001518152602001846060015181525060405180604001604052808d6060015181526020018d60400151815250611db6565b611b5460405180604001604052808c6060015181526020018c604001518152506040518060400160405280856040015181526020018560600151815250611e01565b90505b8015611ba7576040518060a0016040528060011515815260200183602001516001600160a01b03168152602001848152602001836040015181526020018360600151815250975050505050611bf8565b50505b80611bb48161253b565b915050611930565b506040518060a0016040528060001515815260200160006001600160a01b03168152602001600081526020016000815260200160008152509450505b50505092915050565b6001546001600160a01b03163314611c2b5760405162461bcd60e51b81526004016101e0906122ea565b60005b8151811015611d9057600060026000848481518110611c4f57611c4f612319565b60200260200101516001600160a01b03166001600160a01b03168152602001908152602001600020905060005b8154811015611d7b576000828281548110611c9957611c99612319565b6000918252602082206005909102019150600482015460ff166001811115611cc357611cc3611fd7565b148015611cd35750428160030154105b15611d68576004818101805460ff191660011790556000548254600284015460405163a9059cbb60e01b81526001600160a01b039384169463a9059cbb94611d239461010090041692910161232f565b6020604051808303816000875af1158015611d42573d6000803e3d6000fd5b505050506040513d601f19601f82011682018060405250810190611d669190612358565b505b5080611d738161253b565b915050611c7c565b50508080611d889061253b565b915050611c2e565b5050565b60208101518251600091148015611daf575060208301518251145b9392505050565b80518251600091611dc691612556565b82602001518460200151611dda9190612556565b148015611dec57506020820151835110155b8015611daf5750505160209190910151101590565b80518251600091611e1191612556565b82602001518460200151611e259190612556565b149392505050565b6001600160a01b0381168114611e4257600080fd5b50565b600080600060608486031215611e5a57600080fd5b8335611e6581611e2d565b9250602084013591506040840135611e7c81611e2d565b809150509250925092565b634e487b7160e01b600052604160045260246000fd5b60405160a081016001600160401b0381118282101715611ebf57611ebf611e87565b60405290565b604051601f8201601f191681016001600160401b0381118282101715611eed57611eed611e87565b604052919050565b803560028110611f0457600080fd5b919050565b600060a08284031215611f1b57600080fd5b611f23611e9d565b611f2c83611ef5565b81526020830135611f3c81611e2d565b806020830152506040830135604082015260608301356060820152608083013560808201528091505092915050565b6001600160a01b0391909116815260200190565b600060208284031215611f9157600080fd5b8135611daf81611e2d565b600081518084526020808501945080840160005b83811015611fcc57815187529582019590820190600101611fb0565b509495945050505050565b634e487b7160e01b600052602160045260246000fd5b60028110611e4257634e487b7160e01b600052602160045260246000fd5b600081518084526020808501945080840160005b83811015611fcc57815161203281611fed565b8752958201959082019060010161201f565b60a0808252865190820181905260009060209060c0840190828a01845b828110156120865781516001600160a01b031684529284019290840190600101612061565b5050508381038285015261209a8189611f9c565b91505082810360408401526120af8187611f9c565b905082810360608401526120c3818661200b565b905082810360808401526120d78185611f9c565b98975050505050505050565b600080604083850312156120f657600080fd5b823561210181611e2d565b946020939093013593505050565b60c0810161211c88611fed565b8782526001600160a01b038716602083015260408201869052606082018590526080820184905261214c83611fed565b8260a0830152979650505050505050565b600060a0828403121561216f57600080fd5b612177611e9d565b823561218281611e2d565b8082525060208301356020820152604083013560408201526060830135606082015260808301356121b281611e2d565b60808201529392505050565b60008082840360a08112156121d257600080fd5b60808112156121e057600080fd5b50604051608081016001600160401b038111828210171561220357612203611e87565b60405261220f84611ef5565b8152602084013561221f81611e2d565b602082015260408481013590820152606080850135908201529460809093013593505050565b6000602080838503121561225857600080fd5b82356001600160401b038082111561226f57600080fd5b818501915085601f83011261228357600080fd5b81358181111561229557612295611e87565b8060051b91506122a6848301611ec5565b81815291830184019184810190888411156122c057600080fd5b938501935b838510156120d757843592506122da83611e2d565b82825293850193908501906122c5565b60208082526015908201527443616c6c6572206973206e6f7420666163746f727960581b604082015260600190565b634e487b7160e01b600052603260045260246000fd5b6001600160a01b03929092168252602082015260400190565b80518015158114611f0457600080fd5b60006020828403121561236a57600080fd5b611daf82612348565b6020808252601790820152764e756d62657220697320657175616c20746f207a65726f60481b604082015260600190565b6020808252600f908201526e496e76616c6964206164647265737360881b604082015260600190565b6000602082840312156123df57600080fd5b8151611daf81611e2d565b6000602082840312156123fc57600080fd5b5051919050565b805161240e81611fed565b82526020818101516001600160a01b03169083015260408082015190830152606090810151910152565b60a081016124468285612403565b8260808301529392505050565b600060a0828403121561246557600080fd5b61246d611e9d565b61247683612348565b8152602083015161248681611e2d565b806020830152506040830151604082015260608301516060820152608083015160808201528091505092915050565b81516001600160a01b039081168252602080840151908301526040808401519083015260608084015190830152608092830151169181019190915260a00190565b634e487b7160e01b600052601160045260246000fd5b60008282101561251e5761251e6124f6565b500390565b60008219821115612536576125366124f6565b500190565b600060001982141561254f5761254f6124f6565b5060010190565b6000816000190483118215151615612570576125706124f6565b50029056fea2646970667358221220bb46fb98ff5bc8238c9b21753d55a69a50d4b401335a8218ed9561a7f004426a64736f6c634300080b0033a264697066735822122076477daf6a311575ef2a81b7fed175b4ae0b59e2964608c70599c56dec95a3de64736f6c634300080b0033",
  "immutableReferences": {},
  "source": "// SPDX-License-Identifier: MIT\r\npragma solidity ^0.8.3;\r\n\r\nimport \"./DFA.sol\";\r\nimport \"./Exchanger.sol\";\r\n\r\ncontract Factory {\r\n  address owner;\r\n  address[] dfaList;\r\n  mapping(address => address) dfaToExchanger;\r\n  mapping(address => bool) verifiedUsers;\r\n\r\n  modifier isAddressValid(address addressToCheck) {\r\n    require(addressToCheck != address(0), \"Invalid token address\");\r\n    _;\r\n  }\r\n\r\n  modifier isUserVerified() {\r\n    require(verifiedUsers[msg.sender], \"User not verified\");\r\n    _;\r\n  }\r\n\r\n  modifier isUserNotVerified(address user) {\r\n    require(!verifiedUsers[user], \"User already verified\");\r\n    _;\r\n  }\r\n\r\n  modifier isOwner() {\r\n    require(msg.sender == owner, \"User is not owner\");\r\n    _;\r\n  }\r\n\r\n  constructor() {\r\n    owner = msg.sender;\r\n  }\r\n\r\n  event DFACreated(address whoCreate, address dfaAddress, string name, string symbol, uint initialSupply);\r\n\r\n  event UserVerified(address user);\r\n\r\n  function createDfa(\r\n    uint initialSupply,\r\n    string memory name,\r\n    string memory symbol\r\n  ) external isUserVerified returns (address) {\r\n    address dfaAddress = address(\r\n      new DFA(\r\n        initialSupply,\r\n        name,\r\n        symbol,\r\n        msg.sender\r\n      )\r\n    );\r\n    Exchanger exchanger = new Exchanger(dfaAddress);\r\n    dfaToExchanger[dfaAddress] = address(exchanger);\r\n    dfaList.push(dfaAddress);\r\n    emit DFACreated(\r\n      msg.sender,\r\n      dfaAddress,\r\n      name,\r\n      symbol,\r\n      initialSupply\r\n    );\r\n    return dfaAddress;\r\n  }\r\n\r\n  function verifyUser(address user)\r\n    external\r\n    isAddressValid(user)\r\n    isUserNotVerified(user)\r\n    isOwner\r\n  {\r\n    verifiedUsers[user] = true;\r\n    emit UserVerified(user);\r\n  }\r\n\r\n  function getExchanger(address dfaAddress)\r\n    public\r\n    view\r\n    isAddressValid(dfaAddress)\r\n    returns (address)\r\n  {\r\n    return dfaToExchanger[dfaAddress];\r\n  }\r\n\r\n  function getAllDfa() external view\r\n    returns (\r\n      address[] memory,\r\n      address[] memory,\r\n      string[] memory,\r\n      string[] memory,\r\n      uint[] memory\r\n    )\r\n  {\r\n    address[] memory addresses = new address[](dfaList.length);\r\n    address[] memory owners = new address[](dfaList.length);\r\n    string[] memory names = new string[](dfaList.length);\r\n    string[] memory symbols = new string[](dfaList.length);\r\n    uint[] memory supplies = new uint[](dfaList.length);\r\n    for (uint i = 0; i < dfaList.length; i++) {\r\n      address dfaAddress = dfaList[i];\r\n      DFA dfa = DFA(dfaAddress);\r\n      addresses[i] = dfaAddress;\r\n      owners[i] = dfa.owner();\r\n      names[i] = dfa.name();\r\n      symbols[i] = dfa.symbol();\r\n      supplies[i] = dfa.totalSupply();\r\n    }\r\n    return (addresses, owners, names, symbols, supplies);\r\n  }\r\n\r\n  function getAllDfaAddresses() external view returns (address[] memory)\r\n  {\r\n    return dfaList;\r\n  }\r\n\r\n  function getBalances()\r\n    external\r\n    view\r\n    returns (address[] memory, uint[] memory)\r\n  {\r\n    address[] memory addresses = new address[](dfaList.length);\r\n    uint[] memory balances = new uint[](dfaList.length);\r\n    for (uint i = 0; i < dfaList.length; i++) {\r\n      address dfaAddress = dfaList[i];\r\n      DFA dfa = DFA(dfaAddress);\r\n      addresses[i] = dfaAddress;\r\n      balances[i] = dfa.balanceOf(msg.sender);\r\n    }\r\n    return (addresses, balances);\r\n  }\r\n\r\n  function closeOldRequests() public isOwner {\r\n    for (uint i = 0; i < dfaList.length; i++) {\r\n      address exchangerAddress = dfaToExchanger[dfaList[i]];\r\n      Exchanger(exchangerAddress).closeOldRequests(dfaList);\r\n    }\r\n  }\r\n\r\n  function closeRequest(address dfaToGet, address dfaToGive, uint index) public {\r\n    address exchangerAddress = dfaToExchanger[dfaToGive];\r\n    Exchanger(exchangerAddress).closeRequest(dfaToGet, index, msg.sender);\r\n  }\r\n}",
  "sourcePath": "C:\\Users\\Vladislav\\Desktop\\Learning\\  4\\DFAService\\DFAContracts\\contracts\\Factory.sol",
  "compiler": {
    "name": "solc",
    "version": "0.8.11+commit.d7f03943.Emscripten.clang"
  },
  "schemaVersion": "3.4.4",
  "updatedAt": "2022-05-23T21:04:35.866Z",
  "networkType": "ethereum",
  "devdoc": {
    "kind": "dev",
    "methods": {},
    "version": 1
  },
  "userdoc": {
    "kind": "user",
    "methods": {},
    "version": 1
  }
}