{
  "contractName": "Factory",
  "abi": [
    {
      "inputs": [
        {
          "internalType": "uint256",
          "name": "initialSupply",
          "type": "uint256"
        },
        {
          "internalType": "string",
          "name": "name",
          "type": "string"
        },
        {
          "internalType": "string",
          "name": "symbol",
          "type": "string"
        }
      ],
      "name": "createDfa",
      "outputs": [
        {
          "internalType": "address",
          "name": "",
          "type": "address"
        }
      ],
      "stateMutability": "nonpayable",
      "type": "function"
    },
    {
      "inputs": [
        {
          "internalType": "address",
          "name": "dfaAddress",
          "type": "address"
        }
      ],
      "name": "getExchanger",
      "outputs": [
        {
          "internalType": "address",
          "name": "",
          "type": "address"
        }
      ],
      "stateMutability": "view",
      "type": "function"
    },
    {
      "inputs": [],
      "name": "getAllDfa",
      "outputs": [
        {
          "components": [
            {
              "internalType": "address",
              "name": "dfaAddress",
              "type": "address"
            },
            {
              "internalType": "string",
              "name": "name",
              "type": "string"
            },
            {
              "internalType": "string",
              "name": "symbol",
              "type": "string"
            },
            {
              "internalType": "uint256",
              "name": "totalSupply",
              "type": "uint256"
            }
          ],
          "internalType": "struct Factory.DfaInfo[]",
          "name": "",
          "type": "tuple[]"
        }
      ],
      "stateMutability": "view",
      "type": "function"
    }
  ],
  "bytecode": "0x608060405234801561001057600080fd5b50614c37806100206000396000f3fe60806040523480156200001157600080fd5b5060043610620000465760003560e01c806310c1ca2b146200004b5780632f1d7fa714620000815780635d07a60414620000b7575b600080fd5b62000069600480360381019062000063919062000750565b620000d9565b6040516200007891906200082f565b60405180910390f35b6200009f60048036038101906200009991906200087d565b62000247565b604051620000ae91906200082f565b60405180910390f35b620000c1620002b0565b604051620000d0919062000aa6565b60405180910390f35b60008084848433604051620000ee9062000545565b620000fd949392919062000b2d565b604051809103906000f0801580156200011a573d6000803e3d6000fd5b5090506000816040516200012e9062000553565b6200013a91906200082f565b604051809103906000f08015801562000157573d6000803e3d6000fd5b50905080600160008473ffffffffffffffffffffffffffffffffffffffff1673ffffffffffffffffffffffffffffffffffffffff16815260200190815260200160002060006101000a81548173ffffffffffffffffffffffffffffffffffffffff021916908373ffffffffffffffffffffffffffffffffffffffff1602179055506000829080600181540180825580915050600190039060005260206000200160009091909190916101000a81548173ffffffffffffffffffffffffffffffffffffffff021916908373ffffffffffffffffffffffffffffffffffffffff16021790555081925050509392505050565b6000600160008373ffffffffffffffffffffffffffffffffffffffff1673ffffffffffffffffffffffffffffffffffffffff16815260200190815260200160002060009054906101000a900473ffffffffffffffffffffffffffffffffffffffff169050919050565b60606000808054905067ffffffffffffffff811115620002d557620002d462000609565b5b6040519080825280602002602001820160405280156200031257816020015b620002fe62000561565b815260200190600190039081620002f45790505b50905060005b6000805490508110156200053d5760008082815481106200033e576200033d62000b88565b5b9060005260206000200160009054906101000a900473ffffffffffffffffffffffffffffffffffffffff169050600081905060405180608001604052808373ffffffffffffffffffffffffffffffffffffffff1681526020018273ffffffffffffffffffffffffffffffffffffffff166306fdde036040518163ffffffff1660e01b8152600401600060405180830381865afa158015620003e3573d6000803e3d6000fd5b505050506040513d6000823e3d601f19601f820116820180604052508101906200040e919062000c35565b81526020018273ffffffffffffffffffffffffffffffffffffffff166395d89b416040518163ffffffff1660e01b8152600401600060405180830381865afa1580156200045f573d6000803e3d6000fd5b505050506040513d6000823e3d601f19601f820116820180604052508101906200048a919062000c35565b81526020018273ffffffffffffffffffffffffffffffffffffffff166318160ddd6040518163ffffffff1660e01b8152600401602060405180830381865afa158015620004db573d6000803e3d6000fd5b505050506040513d601f19601f8201168201806040525081019062000501919062000c9d565b8152508484815181106200051a576200051962000b88565b5b602002602001018190525050508080620005349062000cfe565b91505062000318565b508091505090565b611fa18062000d4d83390190565b611f148062002cee83390190565b6040518060800160405280600073ffffffffffffffffffffffffffffffffffffffff1681526020016060815260200160608152602001600081525090565b6000604051905090565b600080fd5b600080fd5b6000819050919050565b620005c881620005b3565b8114620005d457600080fd5b50565b600081359050620005e881620005bd565b92915050565b600080fd5b600080fd5b6000601f19601f8301169050919050565b7f4e487b7100000000000000000000000000000000000000000000000000000000600052604160045260246000fd5b6200064382620005f8565b810181811067ffffffffffffffff8211171562000665576200066462000609565b5b80604052505050565b60006200067a6200059f565b905062000688828262000638565b919050565b600067ffffffffffffffff821115620006ab57620006aa62000609565b5b620006b682620005f8565b9050602081019050919050565b82818337600083830152505050565b6000620006e9620006e3846200068d565b6200066e565b905082815260208101848484011115620007085762000707620005f3565b5b62000715848285620006c3565b509392505050565b600082601f830112620007355762000734620005ee565b5b813562000747848260208601620006d2565b91505092915050565b6000806000606084860312156200076c576200076b620005a9565b5b60006200077c86828701620005d7565b935050602084013567ffffffffffffffff811115620007a0576200079f620005ae565b5b620007ae868287016200071d565b925050604084013567ffffffffffffffff811115620007d257620007d1620005ae565b5b620007e0868287016200071d565b9150509250925092565b600073ffffffffffffffffffffffffffffffffffffffff82169050919050565b60006200081782620007ea565b9050919050565b62000829816200080a565b82525050565b60006020820190506200084660008301846200081e565b92915050565b62000857816200080a565b81146200086357600080fd5b50565b60008135905062000877816200084c565b92915050565b600060208284031215620008965762000895620005a9565b5b6000620008a68482850162000866565b91505092915050565b600081519050919050565b600082825260208201905092915050565b6000819050602082019050919050565b620008e6816200080a565b82525050565b600081519050919050565b600082825260208201905092915050565b60005b83811015620009285780820151818401526020810190506200090b565b8381111562000938576000848401525b50505050565b60006200094b82620008ec565b620009578185620008f7565b93506200096981856020860162000908565b6200097481620005f8565b840191505092915050565b6200098a81620005b3565b82525050565b6000608083016000830151620009aa6000860182620008db565b5060208301518482036020860152620009c482826200093e565b91505060408301518482036040860152620009e082826200093e565b9150506060830151620009f760608601826200097f565b508091505092915050565b600062000a10838362000990565b905092915050565b6000602082019050919050565b600062000a3282620008af565b62000a3e8185620008ba565b93508360208202850162000a5285620008cb565b8060005b8581101562000a94578484038952815162000a72858262000a02565b945062000a7f8362000a18565b925060208a0199505060018101905062000a56565b50829750879550505050505092915050565b6000602082019050818103600083015262000ac2818462000a25565b905092915050565b62000ad581620005b3565b82525050565b600082825260208201905092915050565b600062000af982620008ec565b62000b05818562000adb565b935062000b1781856020860162000908565b62000b2281620005f8565b840191505092915050565b600060808201905062000b44600083018762000aca565b818103602083015262000b58818662000aec565b9050818103604083015262000b6e818562000aec565b905062000b7f60608301846200081e565b95945050505050565b7f4e487b7100000000000000000000000000000000000000000000000000000000600052603260045260246000fd5b600062000bce62000bc8846200068d565b6200066e565b90508281526020810184848401111562000bed5762000bec620005f3565b5b62000bfa84828562000908565b509392505050565b600082601f83011262000c1a5762000c19620005ee565b5b815162000c2c84826020860162000bb7565b91505092915050565b60006020828403121562000c4e5762000c4d620005a9565b5b600082015167ffffffffffffffff81111562000c6f5762000c6e620005ae565b5b62000c7d8482850162000c02565b91505092915050565b60008151905062000c9781620005bd565b92915050565b60006020828403121562000cb65762000cb5620005a9565b5b600062000cc68482850162000c86565b91505092915050565b7f4e487b7100000000000000000000000000000000000000000000000000000000600052601160045260246000fd5b600062000d0b82620005b3565b91507fffffffffffffffffffffffffffffffffffffffffffffffffffffffffffffffff82141562000d415762000d4062000ccf565b5b60018201905091905056fe60806040523480156200001157600080fd5b5060405162001fa138038062001fa18339818101604052810190620000379190620005af565b8282816003908051906020019062000051929190620002c2565b5080600490805190602001906200006a929190620002c2565b50505080600073ffffffffffffffffffffffffffffffffffffffff168173ffffffffffffffffffffffffffffffffffffffff161415620000e1576040517f08c379a0000000000000000000000000000000000000000000000000000000008152600401620000d890620006c0565b60405180910390fd5b620000f382866200013f60201b60201c565b81600560006101000a81548173ffffffffffffffffffffffffffffffffffffffff021916908373ffffffffffffffffffffffffffffffffffffffff160217905550505050505062000873565b600073ffffffffffffffffffffffffffffffffffffffff168273ffffffffffffffffffffffffffffffffffffffff161415620001b2576040517f08c379a0000000000000000000000000000000000000000000000000000000008152600401620001a99062000732565b60405180910390fd5b620001c660008383620002b860201b60201c565b8060026000828254620001da919062000783565b92505081905550806000808473ffffffffffffffffffffffffffffffffffffffff1673ffffffffffffffffffffffffffffffffffffffff168152602001908152602001600020600082825462000231919062000783565b925050819055508173ffffffffffffffffffffffffffffffffffffffff16600073ffffffffffffffffffffffffffffffffffffffff167fddf252ad1be2c89b69c2b068fc378daa952ba7f163c4a11628f55a4df523b3ef83604051620002989190620007f1565b60405180910390a3620002b460008383620002bd60201b60201c565b5050565b505050565b505050565b828054620002d0906200083d565b90600052602060002090601f016020900481019282620002f4576000855562000340565b82601f106200030f57805160ff191683800117855562000340565b8280016001018555821562000340579182015b828111156200033f57825182559160200191906001019062000322565b5b5090506200034f919062000353565b5090565b5b808211156200036e57600081600090555060010162000354565b5090565b6000604051905090565b600080fd5b600080fd5b6000819050919050565b6200039b8162000386565b8114620003a757600080fd5b50565b600081519050620003bb8162000390565b92915050565b600080fd5b600080fd5b6000601f19601f8301169050919050565b7f4e487b7100000000000000000000000000000000000000000000000000000000600052604160045260246000fd5b6200041682620003cb565b810181811067ffffffffffffffff82111715620004385762000437620003dc565b5b80604052505050565b60006200044d62000372565b90506200045b82826200040b565b919050565b600067ffffffffffffffff8211156200047e576200047d620003dc565b5b6200048982620003cb565b9050602081019050919050565b60005b83811015620004b657808201518184015260208101905062000499565b83811115620004c6576000848401525b50505050565b6000620004e3620004dd8462000460565b62000441565b905082815260208101848484011115620005025762000501620003c6565b5b6200050f84828562000496565b509392505050565b600082601f8301126200052f576200052e620003c1565b5b815162000541848260208601620004cc565b91505092915050565b600073ffffffffffffffffffffffffffffffffffffffff82169050919050565b600062000577826200054a565b9050919050565b62000589816200056a565b81146200059557600080fd5b50565b600081519050620005a9816200057e565b92915050565b60008060008060808587031215620005cc57620005cb6200037c565b5b6000620005dc87828801620003aa565b945050602085015167ffffffffffffffff8111156200060057620005ff62000381565b5b6200060e8782880162000517565b935050604085015167ffffffffffffffff81111562000632576200063162000381565b5b620006408782880162000517565b9250506060620006538782880162000598565b91505092959194509250565b600082825260208201905092915050565b7f496e76616c696420746f6b656e20616464726573730000000000000000000000600082015250565b6000620006a86015836200065f565b9150620006b58262000670565b602082019050919050565b60006020820190508181036000830152620006db8162000699565b9050919050565b7f45524332303a206d696e7420746f20746865207a65726f206164647265737300600082015250565b60006200071a601f836200065f565b91506200072782620006e2565b602082019050919050565b600060208201905081810360008301526200074d816200070b565b9050919050565b7f4e487b7100000000000000000000000000000000000000000000000000000000600052601160045260246000fd5b6000620007908262000386565b91506200079d8362000386565b9250827fffffffffffffffffffffffffffffffffffffffffffffffffffffffffffffffff03821115620007d557620007d462000754565b5b828201905092915050565b620007eb8162000386565b82525050565b6000602082019050620008086000830184620007e0565b92915050565b7f4e487b7100000000000000000000000000000000000000000000000000000000600052602260045260246000fd5b600060028204905060018216806200085657607f821691505b602082108114156200086d576200086c6200080e565b5b50919050565b61171e80620008836000396000f3fe608060405234801561001057600080fd5b50600436106100cf5760003560e01c806370a082311161008c578063a0712d6811610066578063a0712d681461022a578063a457c2d714610246578063a9059cbb14610276578063dd62ed3e146102a6576100cf565b806370a08231146101be5780638da5cb5b146101ee57806395d89b411461020c576100cf565b806306fdde03146100d4578063095ea7b3146100f257806318160ddd1461012257806323b872dd14610140578063313ce56714610170578063395093511461018e575b600080fd5b6100dc6102d6565b6040516100e99190610ea9565b60405180910390f35b61010c60048036038101906101079190610f64565b610368565b6040516101199190610fbf565b60405180910390f35b61012a61038b565b6040516101379190610fe9565b60405180910390f35b61015a60048036038101906101559190611004565b610395565b6040516101679190610fbf565b60405180910390f35b6101786103c4565b6040516101859190611073565b60405180910390f35b6101a860048036038101906101a39190610f64565b6103c9565b6040516101b59190610fbf565b60405180910390f35b6101d860048036038101906101d3919061108e565b610473565b6040516101e59190610fe9565b60405180910390f35b6101f66104bb565b60405161020391906110ca565b60405180910390f35b6102146104e1565b6040516102219190610ea9565b60405180910390f35b610244600480360381019061023f91906110e5565b610573565b005b610260600480360381019061025b9190610f64565b610632565b60405161026d9190610fbf565b60405180910390f35b610290600480360381019061028b9190610f64565b61071c565b60405161029d9190610fbf565b60405180910390f35b6102c060048036038101906102bb9190611112565b61073f565b6040516102cd9190610fe9565b60405180910390f35b6060600380546102e590611181565b80601f016020809104026020016040519081016040528092919081815260200182805461031190611181565b801561035e5780601f106103335761010080835404028352916020019161035e565b820191906000526020600020905b81548152906001019060200180831161034157829003601f168201915b5050505050905090565b6000806103736107c6565b90506103808185856107ce565b600191505092915050565b6000600254905090565b6000806103a06107c6565b90506103ad858285610999565b6103b8858585610a25565b60019150509392505050565b600090565b6000806103d46107c6565b9050610468818585600160008673ffffffffffffffffffffffffffffffffffffffff1673ffffffffffffffffffffffffffffffffffffffff16815260200190815260200160002060008973ffffffffffffffffffffffffffffffffffffffff1673ffffffffffffffffffffffffffffffffffffffff1681526020019081526020016000205461046391906111e2565b6107ce565b600191505092915050565b60008060008373ffffffffffffffffffffffffffffffffffffffff1673ffffffffffffffffffffffffffffffffffffffff168152602001908152602001600020549050919050565b600560009054906101000a900473ffffffffffffffffffffffffffffffffffffffff1681565b6060600480546104f090611181565b80601f016020809104026020016040519081016040528092919081815260200182805461051c90611181565b80156105695780601f1061053e57610100808354040283529160200191610569565b820191906000526020600020905b81548152906001019060200180831161054c57829003601f168201915b5050505050905090565b600560009054906101000a900473ffffffffffffffffffffffffffffffffffffffff1673ffffffffffffffffffffffffffffffffffffffff163373ffffffffffffffffffffffffffffffffffffffff1614610603576040517f08c379a00000000000000000000000000000000000000000000000000000000081526004016105fa90611284565b60405180910390fd5b61062f600560009054906101000a900473ffffffffffffffffffffffffffffffffffffffff1682610ca6565b50565b60008061063d6107c6565b90506000600160008373ffffffffffffffffffffffffffffffffffffffff1673ffffffffffffffffffffffffffffffffffffffff16815260200190815260200160002060008673ffffffffffffffffffffffffffffffffffffffff1673ffffffffffffffffffffffffffffffffffffffff16815260200190815260200160002054905083811015610703576040517f08c379a00000000000000000000000000000000000000000000000000000000081526004016106fa90611316565b60405180910390fd5b61071082868684036107ce565b60019250505092915050565b6000806107276107c6565b9050610734818585610a25565b600191505092915050565b6000600160008473ffffffffffffffffffffffffffffffffffffffff1673ffffffffffffffffffffffffffffffffffffffff16815260200190815260200160002060008373ffffffffffffffffffffffffffffffffffffffff1673ffffffffffffffffffffffffffffffffffffffff16815260200190815260200160002054905092915050565b600033905090565b600073ffffffffffffffffffffffffffffffffffffffff168373ffffffffffffffffffffffffffffffffffffffff16141561083e576040517f08c379a0000000000000000000000000000000000000000000000000000000008152600401610835906113a8565b60405180910390fd5b600073ffffffffffffffffffffffffffffffffffffffff168273ffffffffffffffffffffffffffffffffffffffff1614156108ae576040517f08c379a00000000000000000000000000000000000000000000000000000000081526004016108a59061143a565b60405180910390fd5b80600160008573ffffffffffffffffffffffffffffffffffffffff1673ffffffffffffffffffffffffffffffffffffffff16815260200190815260200160002060008473ffffffffffffffffffffffffffffffffffffffff1673ffffffffffffffffffffffffffffffffffffffff168152602001908152602001600020819055508173ffffffffffffffffffffffffffffffffffffffff168373ffffffffffffffffffffffffffffffffffffffff167f8c5be1e5ebec7d5bd14f71427d1e84f3dd0314c0f7b2291e5b200ac8c7c3b9258360405161098c9190610fe9565b60405180910390a3505050565b60006109a5848461073f565b90507fffffffffffffffffffffffffffffffffffffffffffffffffffffffffffffffff8114610a1f5781811015610a11576040517f08c379a0000000000000000000000000000000000000000000000000000000008152600401610a08906114a6565b60405180910390fd5b610a1e84848484036107ce565b5b50505050565b600073ffffffffffffffffffffffffffffffffffffffff168373ffffffffffffffffffffffffffffffffffffffff161415610a95576040517f08c379a0000000000000000000000000000000000000000000000000000000008152600401610a8c90611538565b60405180910390fd5b600073ffffffffffffffffffffffffffffffffffffffff168273ffffffffffffffffffffffffffffffffffffffff161415610b05576040517f08c379a0000000000000000000000000000000000000000000000000000000008152600401610afc906115ca565b60405180910390fd5b610b10838383610e06565b60008060008573ffffffffffffffffffffffffffffffffffffffff1673ffffffffffffffffffffffffffffffffffffffff16815260200190815260200160002054905081811015610b96576040517f08c379a0000000000000000000000000000000000000000000000000000000008152600401610b8d9061165c565b60405180910390fd5b8181036000808673ffffffffffffffffffffffffffffffffffffffff1673ffffffffffffffffffffffffffffffffffffffff16815260200190815260200160002081905550816000808573ffffffffffffffffffffffffffffffffffffffff1673ffffffffffffffffffffffffffffffffffffffff1681526020019081526020016000206000828254610c2991906111e2565b925050819055508273ffffffffffffffffffffffffffffffffffffffff168473ffffffffffffffffffffffffffffffffffffffff167fddf252ad1be2c89b69c2b068fc378daa952ba7f163c4a11628f55a4df523b3ef84604051610c8d9190610fe9565b60405180910390a3610ca0848484610e0b565b50505050565b600073ffffffffffffffffffffffffffffffffffffffff168273ffffffffffffffffffffffffffffffffffffffff161415610d16576040517f08c379a0000000000000000000000000000000000000000000000000000000008152600401610d0d906116c8565b60405180910390fd5b610d2260008383610e06565b8060026000828254610d3491906111e2565b92505081905550806000808473ffffffffffffffffffffffffffffffffffffffff1673ffffffffffffffffffffffffffffffffffffffff1681526020019081526020016000206000828254610d8991906111e2565b925050819055508173ffffffffffffffffffffffffffffffffffffffff16600073ffffffffffffffffffffffffffffffffffffffff167fddf252ad1be2c89b69c2b068fc378daa952ba7f163c4a11628f55a4df523b3ef83604051610dee9190610fe9565b60405180910390a3610e0260008383610e0b565b5050565b505050565b505050565b600081519050919050565b600082825260208201905092915050565b60005b83811015610e4a578082015181840152602081019050610e2f565b83811115610e59576000848401525b50505050565b6000601f19601f8301169050919050565b6000610e7b82610e10565b610e858185610e1b565b9350610e95818560208601610e2c565b610e9e81610e5f565b840191505092915050565b60006020820190508181036000830152610ec38184610e70565b905092915050565b600080fd5b600073ffffffffffffffffffffffffffffffffffffffff82169050919050565b6000610efb82610ed0565b9050919050565b610f0b81610ef0565b8114610f1657600080fd5b50565b600081359050610f2881610f02565b92915050565b6000819050919050565b610f4181610f2e565b8114610f4c57600080fd5b50565b600081359050610f5e81610f38565b92915050565b60008060408385031215610f7b57610f7a610ecb565b5b6000610f8985828601610f19565b9250506020610f9a85828601610f4f565b9150509250929050565b60008115159050919050565b610fb981610fa4565b82525050565b6000602082019050610fd46000830184610fb0565b92915050565b610fe381610f2e565b82525050565b6000602082019050610ffe6000830184610fda565b92915050565b60008060006060848603121561101d5761101c610ecb565b5b600061102b86828701610f19565b935050602061103c86828701610f19565b925050604061104d86828701610f4f565b9150509250925092565b600060ff82169050919050565b61106d81611057565b82525050565b60006020820190506110886000830184611064565b92915050565b6000602082840312156110a4576110a3610ecb565b5b60006110b284828501610f19565b91505092915050565b6110c481610ef0565b82525050565b60006020820190506110df60008301846110bb565b92915050565b6000602082840312156110fb576110fa610ecb565b5b600061110984828501610f4f565b91505092915050565b6000806040838503121561112957611128610ecb565b5b600061113785828601610f19565b925050602061114885828601610f19565b9150509250929050565b7f4e487b7100000000000000000000000000000000000000000000000000000000600052602260045260246000fd5b6000600282049050600182168061119957607f821691505b602082108114156111ad576111ac611152565b5b50919050565b7f4e487b7100000000000000000000000000000000000000000000000000000000600052601160045260246000fd5b60006111ed82610f2e565b91506111f883610f2e565b9250827fffffffffffffffffffffffffffffffffffffffffffffffffffffffffffffffff0382111561122d5761122c6111b3565b5b828201905092915050565b7f43616c6c6572206973206e6f74206f776e657200000000000000000000000000600082015250565b600061126e601383610e1b565b915061127982611238565b602082019050919050565b6000602082019050818103600083015261129d81611261565b9050919050565b7f45524332303a2064656372656173656420616c6c6f77616e63652062656c6f7760008201527f207a65726f000000000000000000000000000000000000000000000000000000602082015250565b6000611300602583610e1b565b915061130b826112a4565b604082019050919050565b6000602082019050818103600083015261132f816112f3565b9050919050565b7f45524332303a20617070726f76652066726f6d20746865207a65726f2061646460008201527f7265737300000000000000000000000000000000000000000000000000000000602082015250565b6000611392602483610e1b565b915061139d82611336565b604082019050919050565b600060208201905081810360008301526113c181611385565b9050919050565b7f45524332303a20617070726f766520746f20746865207a65726f20616464726560008201527f7373000000000000000000000000000000000000000000000000000000000000602082015250565b6000611424602283610e1b565b915061142f826113c8565b604082019050919050565b6000602082019050818103600083015261145381611417565b9050919050565b7f45524332303a20696e73756666696369656e7420616c6c6f77616e6365000000600082015250565b6000611490601d83610e1b565b915061149b8261145a565b602082019050919050565b600060208201905081810360008301526114bf81611483565b9050919050565b7f45524332303a207472616e736665722066726f6d20746865207a65726f20616460008201527f6472657373000000000000000000000000000000000000000000000000000000602082015250565b6000611522602583610e1b565b915061152d826114c6565b604082019050919050565b6000602082019050818103600083015261155181611515565b9050919050565b7f45524332303a207472616e7366657220746f20746865207a65726f206164647260008201527f6573730000000000000000000000000000000000000000000000000000000000602082015250565b60006115b4602383610e1b565b91506115bf82611558565b604082019050919050565b600060208201905081810360008301526115e3816115a7565b9050919050565b7f45524332303a207472616e7366657220616d6f756e742065786365656473206260008201527f616c616e63650000000000000000000000000000000000000000000000000000602082015250565b6000611646602683610e1b565b9150611651826115ea565b604082019050919050565b6000602082019050818103600083015261167581611639565b9050919050565b7f45524332303a206d696e7420746f20746865207a65726f206164647265737300600082015250565b60006116b2601f83610e1b565b91506116bd8261167c565b602082019050919050565b600060208201905081810360008301526116e1816116a5565b905091905056fea2646970667358221220968f3c25b4c6f9853f2305731c16d403d22f863bb7df48daf39c26c32c51ef2664736f6c634300080b003360806040523480156200001157600080fd5b5060405162001f1438038062001f1483398181016040528101906200003791906200019e565b80600073ffffffffffffffffffffffffffffffffffffffff168173ffffffffffffffffffffffffffffffffffffffff161415620000ab576040517f08c379a0000000000000000000000000000000000000000000000000000000008152600401620000a29062000231565b60405180910390fd5b816000806101000a81548173ffffffffffffffffffffffffffffffffffffffff021916908373ffffffffffffffffffffffffffffffffffffffff16021790555033600160006101000a81548173ffffffffffffffffffffffffffffffffffffffff021916908373ffffffffffffffffffffffffffffffffffffffff160217905550505062000253565b600080fd5b600073ffffffffffffffffffffffffffffffffffffffff82169050919050565b6000620001668262000139565b9050919050565b620001788162000159565b81146200018457600080fd5b50565b60008151905062000198816200016d565b92915050565b600060208284031215620001b757620001b662000134565b5b6000620001c78482850162000187565b91505092915050565b600082825260208201905092915050565b7f496e76616c696420616464726573730000000000000000000000000000000000600082015250565b600062000219600f83620001d0565b91506200022682620001e1565b602082019050919050565b600060208201905081810360008301526200024c816200020a565b9050919050565b611cb180620002636000396000f3fe608060405234801561001057600080fd5b506004361061007d5760003560e01c8063873deb041161005b578063873deb04146100ea5780638c75d7b414610108578063966dae0e146101385780639ecebe2a146101565761007d565b80630c884bde1461008257806354dbc21e146100b25780635f1b9c28146100ce575b600080fd5b61009c60048036038101906100979190611356565b610188565b6040516100a991906113b8565b60405180910390f35b6100cc60048036038101906100c79190611356565b610400565b005b6100e860048036038101906100e391906114dc565b610c3d565b005b6100f2611088565b6040516100ff91906113b8565b60405180910390f35b610122600480360381019061011d9190611509565b6110ac565b60405161012f9190611645565b60405180910390f35b610140611226565b60405161014d91906113b8565b60405180910390f35b610170600480360381019061016b9190611667565b61124c565b60405161017f939291906116b6565b60405180910390f35b60008282600082116101cf576040517f08c379a00000000000000000000000000000000000000000000000000000000081526004016101c69061174a565b60405180910390fd5b60008111610212576040517f08c379a00000000000000000000000000000000000000000000000000000000081526004016102099061174a565b60405180910390fd5b85600073ffffffffffffffffffffffffffffffffffffffff168173ffffffffffffffffffffffffffffffffffffffff161415610283576040517f08c379a000000000000000000000000000000000000000000000000000000000815260040161027a906117b6565b60405180910390fd5b6000600260008973ffffffffffffffffffffffffffffffffffffffff1673ffffffffffffffffffffffffffffffffffffffff168152602001908152602001600020805480602002602001604051908101604052809291908181526020016000905b8282101561038057838290600052602060002090600302016040518060600160405290816000820160009054906101000a900473ffffffffffffffffffffffffffffffffffffffff1673ffffffffffffffffffffffffffffffffffffffff1673ffffffffffffffffffffffffffffffffffffffff16815260200160018201548152602001600282015481525050815260200190600101906102e4565b50505050905060005b81518110156103ef5760008282815181106103a7576103a66117d6565b5b602002602001015190508881602001511480156103c75750878160400151145b156103db57806000015196505050506103f6565b5080806103e790611834565b915050610389565b5060009450505b5050509392505050565b808260008211610445576040517f08c379a000000000000000000000000000000000000000000000000000000000815260040161043c9061174a565b60405180910390fd5b60008111610488576040517f08c379a000000000000000000000000000000000000000000000000000000000815260040161047f9061174a565b60405180910390fd5b84600073ffffffffffffffffffffffffffffffffffffffff168173ffffffffffffffffffffffffffffffffffffffff1614156104f9576040517f08c379a00000000000000000000000000000000000000000000000000000000081526004016104f0906117b6565b60405180910390fd5b85600073ffffffffffffffffffffffffffffffffffffffff16600160009054906101000a900473ffffffffffffffffffffffffffffffffffffffff1673ffffffffffffffffffffffffffffffffffffffff16632f1d7fa7836040518263ffffffff1660e01b815260040161056d91906113b8565b602060405180830381865afa15801561058a573d6000803e3d6000fd5b505050506040513d601f19601f820116820180604052508101906105ae9190611892565b73ffffffffffffffffffffffffffffffffffffffff161415610605576040517f08c379a00000000000000000000000000000000000000000000000000000000081526004016105fc9061190b565b60405180910390fd5b8460008054906101000a900473ffffffffffffffffffffffffffffffffffffffff16818173ffffffffffffffffffffffffffffffffffffffff166370a08231336040518263ffffffff1660e01b815260040161066191906113b8565b602060405180830381865afa15801561067e573d6000803e3d6000fd5b505050506040513d601f19601f820116820180604052508101906106a29190611940565b10156106e3576040517f08c379a00000000000000000000000000000000000000000000000000000000081526004016106da906119b9565b60405180910390fd5b818173ffffffffffffffffffffffffffffffffffffffff1663dd62ed3e33306040518363ffffffff1660e01b815260040161071f9291906119d9565b602060405180830381865afa15801561073c573d6000803e3d6000fd5b505050506040513d601f19601f820116820180604052508101906107609190611940565b10156107a1576040517f08c379a000000000000000000000000000000000000000000000000000000000815260040161079890611a4e565b60405180910390fd5b6000600160009054906101000a900473ffffffffffffffffffffffffffffffffffffffff1673ffffffffffffffffffffffffffffffffffffffff16632f1d7fa78b6040518263ffffffff1660e01b81526004016107fe91906113b8565b602060405180830381865afa15801561081b573d6000803e3d6000fd5b505050506040513d601f19601f8201168201806040525081019061083f9190611892565b9050600081905060008054906101000a900473ffffffffffffffffffffffffffffffffffffffff1673ffffffffffffffffffffffffffffffffffffffff166323b872dd33308c6040518463ffffffff1660e01b81526004016108a393929190611a6e565b6020604051808303816000875af11580156108c2573d6000803e3d6000fd5b505050506040513d601f19601f820116820180604052508101906108e69190611add565b5060008173ffffffffffffffffffffffffffffffffffffffff16630c884bde60008054906101000a900473ffffffffffffffffffffffffffffffffffffffff168c8e6040518463ffffffff1660e01b8152600401610946939291906116b6565b602060405180830381865afa158015610963573d6000803e3d6000fd5b505050506040513d601f19601f820116820180604052508101906109879190611892565b9050600073ffffffffffffffffffffffffffffffffffffffff168173ffffffffffffffffffffffffffffffffffffffff1614610b385760008054906101000a900473ffffffffffffffffffffffffffffffffffffffff1673ffffffffffffffffffffffffffffffffffffffff1663a9059cbb828c6040518363ffffffff1660e01b8152600401610a18929190611b0a565b6020604051808303816000875af1158015610a37573d6000803e3d6000fd5b505050506040513d601f19601f82011682018060405250810190610a5b9190611add565b508173ffffffffffffffffffffffffffffffffffffffff16635f1b9c2860405180608001604052803373ffffffffffffffffffffffffffffffffffffffff16815260200160008054906101000a900473ffffffffffffffffffffffffffffffffffffffff1673ffffffffffffffffffffffffffffffffffffffff1681526020018d81526020018e8152506040518263ffffffff1660e01b8152600401610b019190611b88565b600060405180830381600087803b158015610b1b57600080fd5b505af1158015610b2f573d6000803e3d6000fd5b50505050610c2f565b600260008d73ffffffffffffffffffffffffffffffffffffffff1673ffffffffffffffffffffffffffffffffffffffff16815260200190815260200160002060405180606001604052803373ffffffffffffffffffffffffffffffffffffffff1681526020018d81526020018c815250908060018154018082558091505060019003906000526020600020906003020160009091909190915060008201518160000160006101000a81548173ffffffffffffffffffffffffffffffffffffffff021916908373ffffffffffffffffffffffffffffffffffffffff160217905550602082015181600101556040820151816002015550505b505050505050505050505050565b8060400151816060015160008211610c8a576040517f08c379a0000000000000000000000000000000000000000000000000000000008152600401610c819061174a565b60405180910390fd5b60008111610ccd576040517f08c379a0000000000000000000000000000000000000000000000000000000008152600401610cc49061174a565b60405180910390fd5b8260200151600073ffffffffffffffffffffffffffffffffffffffff168173ffffffffffffffffffffffffffffffffffffffff161415610d42576040517f08c379a0000000000000000000000000000000000000000000000000000000008152600401610d39906117b6565b60405180910390fd5b83602001513373ffffffffffffffffffffffffffffffffffffffff16600160009054906101000a900473ffffffffffffffffffffffffffffffffffffffff1673ffffffffffffffffffffffffffffffffffffffff16632f1d7fa7836040518263ffffffff1660e01b8152600401610db991906113b8565b602060405180830381865afa158015610dd6573d6000803e3d6000fd5b505050506040513d601f19601f82011682018060405250810190610dfa9190611892565b73ffffffffffffffffffffffffffffffffffffffff1614610e50576040517f08c379a0000000000000000000000000000000000000000000000000000000008152600401610e4790611bef565b60405180910390fd5b8460000151600073ffffffffffffffffffffffffffffffffffffffff168173ffffffffffffffffffffffffffffffffffffffff161415610ec5576040517f08c379a0000000000000000000000000000000000000000000000000000000008152600401610ebc906117b6565b60405180910390fd5b600060026000886020015173ffffffffffffffffffffffffffffffffffffffff1673ffffffffffffffffffffffffffffffffffffffff16815260200190815260200160002090506000805b828054905081101561103d576000838281548110610f3157610f306117d6565b5b9060005260206000209060030201905089604001518160010154148015610f5f575089606001518160020154145b1561102957600081600101819055506000816002018190555060008054906101000a900473ffffffffffffffffffffffffffffffffffffffff1673ffffffffffffffffffffffffffffffffffffffff1663a9059cbb8b600001518c606001516040518363ffffffff1660e01b8152600401610fdb929190611b0a565b6020604051808303816000875af1158015610ffa573d6000803e3d6000fd5b505050506040513d601f19601f8201168201806040525081019061101e9190611add565b50600192505061103d565b50808061103590611834565b915050610f10565b508061107e576040517f08c379a000000000000000000000000000000000000000000000000000000000815260040161107590611c5b565b60405180910390fd5b5050505050505050565b60008054906101000a900473ffffffffffffffffffffffffffffffffffffffff1681565b606081600073ffffffffffffffffffffffffffffffffffffffff168173ffffffffffffffffffffffffffffffffffffffff16141561111f576040517f08c379a0000000000000000000000000000000000000000000000000000000008152600401611116906117b6565b60405180910390fd5b600260008473ffffffffffffffffffffffffffffffffffffffff1673ffffffffffffffffffffffffffffffffffffffff168152602001908152602001600020805480602002602001604051908101604052809291908181526020016000905b8282101561121a57838290600052602060002090600302016040518060600160405290816000820160009054906101000a900473ffffffffffffffffffffffffffffffffffffffff1673ffffffffffffffffffffffffffffffffffffffff1673ffffffffffffffffffffffffffffffffffffffff168152602001600182015481526020016002820154815250508152602001906001019061117e565b50505050915050919050565b600160009054906101000a900473ffffffffffffffffffffffffffffffffffffffff1681565b6002602052816000526040600020818154811061126857600080fd5b9060005260206000209060030201600091509150508060000160009054906101000a900473ffffffffffffffffffffffffffffffffffffffff16908060010154908060020154905083565b6000604051905090565b600080fd5b600073ffffffffffffffffffffffffffffffffffffffff82169050919050565b60006112ed826112c2565b9050919050565b6112fd816112e2565b811461130857600080fd5b50565b60008135905061131a816112f4565b92915050565b6000819050919050565b61133381611320565b811461133e57600080fd5b50565b6000813590506113508161132a565b92915050565b60008060006060848603121561136f5761136e6112bd565b5b600061137d8682870161130b565b935050602061138e86828701611341565b925050604061139f86828701611341565b9150509250925092565b6113b2816112e2565b82525050565b60006020820190506113cd60008301846113a9565b92915050565b600080fd5b6000601f19601f8301169050919050565b7f4e487b7100000000000000000000000000000000000000000000000000000000600052604160045260246000fd5b611421826113d8565b810181811067ffffffffffffffff821117156114405761143f6113e9565b5b80604052505050565b60006114536112b3565b905061145f8282611418565b919050565b60006080828403121561147a576114796113d3565b5b6114846080611449565b905060006114948482850161130b565b60008301525060206114a88482850161130b565b60208301525060406114bc84828501611341565b60408301525060606114d084828501611341565b60608301525092915050565b6000608082840312156114f2576114f16112bd565b5b600061150084828501611464565b91505092915050565b60006020828403121561151f5761151e6112bd565b5b600061152d8482850161130b565b91505092915050565b600081519050919050565b600082825260208201905092915050565b6000819050602082019050919050565b61156b816112e2565b82525050565b61157a81611320565b82525050565b6060820160008201516115966000850182611562565b5060208201516115a96020850182611571565b5060408201516115bc6040850182611571565b50505050565b60006115ce8383611580565b60608301905092915050565b6000602082019050919050565b60006115f282611536565b6115fc8185611541565b935061160783611552565b8060005b8381101561163857815161161f88826115c2565b975061162a836115da565b92505060018101905061160b565b5085935050505092915050565b6000602082019050818103600083015261165f81846115e7565b905092915050565b6000806040838503121561167e5761167d6112bd565b5b600061168c8582860161130b565b925050602061169d85828601611341565b9150509250929050565b6116b081611320565b82525050565b60006060820190506116cb60008301866113a9565b6116d860208301856116a7565b6116e560408301846116a7565b949350505050565b600082825260208201905092915050565b7f4e756d62657220697320657175616c20746f207a65726f000000000000000000600082015250565b60006117346017836116ed565b915061173f826116fe565b602082019050919050565b6000602082019050818103600083015261176381611727565b9050919050565b7f496e76616c696420616464726573730000000000000000000000000000000000600082015250565b60006117a0600f836116ed565b91506117ab8261176a565b602082019050919050565b600060208201905081810360008301526117cf81611793565b9050919050565b7f4e487b7100000000000000000000000000000000000000000000000000000000600052603260045260246000fd5b7f4e487b7100000000000000000000000000000000000000000000000000000000600052601160045260246000fd5b600061183f82611320565b91507fffffffffffffffffffffffffffffffffffffffffffffffffffffffffffffffff82141561187257611871611805565b5b600182019050919050565b60008151905061188c816112f4565b92915050565b6000602082840312156118a8576118a76112bd565b5b60006118b68482850161187d565b91505092915050565b7f45786368616e67657220666f7220646661206e6f7420666f756e640000000000600082015250565b60006118f5601b836116ed565b9150611900826118bf565b602082019050919050565b60006020820190508181036000830152611924816118e8565b9050919050565b60008151905061193a8161132a565b92915050565b600060208284031215611956576119556112bd565b5b60006119648482850161192b565b91505092915050565b7f53656e64657220646f6573206e6f74206861766520656e6f7567682064666100600082015250565b60006119a3601f836116ed565b91506119ae8261196d565b602082019050919050565b600060208201905081810360008301526119d281611996565b9050919050565b60006040820190506119ee60008301856113a9565b6119fb60208301846113a9565b9392505050565b7f416d6f756e74206f6620444641206973206e6f7420616c6c6f77656400000000600082015250565b6000611a38601c836116ed565b9150611a4382611a02565b602082019050919050565b60006020820190508181036000830152611a6781611a2b565b9050919050565b6000606082019050611a8360008301866113a9565b611a9060208301856113a9565b611a9d60408301846116a7565b949350505050565b60008115159050919050565b611aba81611aa5565b8114611ac557600080fd5b50565b600081519050611ad781611ab1565b92915050565b600060208284031215611af357611af26112bd565b5b6000611b0184828501611ac8565b91505092915050565b6000604082019050611b1f60008301856113a9565b611b2c60208301846116a7565b9392505050565b608082016000820151611b496000850182611562565b506020820151611b5c6020850182611562565b506040820151611b6f6040850182611571565b506060820151611b826060850182611571565b50505050565b6000608082019050611b9d6000830184611b33565b92915050565b7f53656e646572206973206e6f742065786368616e676572000000000000000000600082015250565b6000611bd96017836116ed565b9150611be482611ba3565b602082019050919050565b60006020820190508181036000830152611c0881611bcc565b9050919050565b7f56616c69642072657175657374206e6f7420666f756e64000000000000000000600082015250565b6000611c456017836116ed565b9150611c5082611c0f565b602082019050919050565b60006020820190508181036000830152611c7481611c38565b905091905056fea264697066735822122054a585f6ce78be73328da0a31a1e2029820d388c363224f87242e3709c9f00f064736f6c634300080b0033a2646970667358221220fa3a7d932c9d72dacfeb9d14369be85a30443d01af3ea1cc1c39a0aa3dc35df864736f6c634300080b0033",
  "immutableReferences": {},
  "source": "// SPDX-License-Identifier: MIT\r\npragma solidity ^0.8.3;\r\n\r\nimport \"./DFA.sol\";\r\nimport \"./Exchanger.sol\";\r\n\r\ncontract Factory {\r\n//  struct ExchangerRequestInfo {\r\n//    address user;\r\n//    uint amountToGet;\r\n//    uint amountToGive;\r\n//  }\r\n//\r\n//  struct ExchangerRequestFullInfo {\r\n//    address user;\r\n//    address dfaToGet;\r\n//    uint amountToGet;\r\n//    address dfaToGive;\r\n//    uint amountToGive;\r\n//  }\r\n  struct DfaInfo {\r\n    address dfaAddress;\r\n    string name;\r\n    string symbol;\r\n    uint totalSupply;\r\n  }\r\n\r\n  address[] dfaList;\r\n  mapping(address => address) dfaToExchanger;\r\n\r\n  modifier isAddressValid(address addressToCheck) {\r\n    require(addressToCheck != address(0), \"Invalid token address\");\r\n    _;\r\n  }\r\n\r\n  function createDfa(\r\n    uint initialSupply,\r\n    string memory name,\r\n    string memory symbol\r\n  ) external returns (address) {\r\n    address dfaAddress = address(\r\n      new DFA(\r\n        initialSupply,\r\n        name,\r\n        symbol,\r\n        msg.sender\r\n      )\r\n    );\r\n    Exchanger exchanger = new Exchanger(dfaAddress);\r\n    dfaToExchanger[address(dfaAddress)] = address(exchanger);\r\n    dfaList.push(dfaAddress);\r\n    return dfaAddress;\r\n  }\r\n\r\n  function getExchanger(address dfaAddress) public view returns (address) {\r\n    return dfaToExchanger[dfaAddress];\r\n  }\r\n\r\n  function getAllDfa() public view returns (DfaInfo[] memory) {\r\n    DfaInfo[] memory info = new DfaInfo[](dfaList.length);\r\n    for (uint i = 0; i < dfaList.length; i++) {\r\n      address dfaAddress = dfaList[i];\r\n      DFA dfa = DFA(dfaAddress);\r\n      info[i] = DfaInfo(\r\n        dfaAddress,\r\n        dfa.name(),\r\n        dfa.symbol(),\r\n        dfa.totalSupply()\r\n      );\r\n    }\r\n    return info;\r\n  }\r\n\r\n//  function getAllRequests() public view returns (ExchangerRequestFullInfo[] memory) {\r\n//    ExchangerRequestFullInfo[] requestList = address[](dfaList.length);\r\n//    for (uint i = 0; i < dfaList.length; i++) {\r\n//\r\n//    }\r\n//    return requestList;\r\n//  }\r\n\r\n//  function getAllDfaByUser(address user)\r\n//    public\r\n//    view\r\n//    isAddressValid(user)\r\n//    returns (address[])\r\n//  {\r\n//    address[] usersDfa = address[]();\r\n//    for (uint i = 0; i < dfaList.length; i++) {\r\n//      if (DFA(dfaList[i]).owner() == user) {\r\n//        usersDfa.push(dfaList[i]);\r\n//      }\r\n//    }\r\n//    return usersDfa;\r\n//  }\r\n}",
  "sourcePath": "C:\\Users\\Vladislav\\Desktop\\Learning\\  4\\DFAService\\DFAContracts\\contracts\\Factory.sol",
  "compiler": {
    "name": "solc",
    "version": "0.8.11+commit.d7f03943.Emscripten.clang"
  },
  "schemaVersion": "3.4.4",
  "updatedAt": "2022-04-19T13:55:05.668Z",
  "devdoc": {
    "kind": "dev",
    "methods": {},
    "version": 1
  },
  "userdoc": {
    "kind": "user",
    "methods": {},
    "version": 1
  }
}