{
  "contractName": "Factory",
  "abi": [
    {
      "inputs": [],
      "stateMutability": "nonpayable",
      "type": "constructor"
    },
    {
      "anonymous": false,
      "inputs": [
        {
          "indexed": false,
          "internalType": "address",
          "name": "whoCreate",
          "type": "address"
        },
        {
          "indexed": false,
          "internalType": "address",
          "name": "dfaAddress",
          "type": "address"
        },
        {
          "indexed": false,
          "internalType": "string",
          "name": "name",
          "type": "string"
        },
        {
          "indexed": false,
          "internalType": "string",
          "name": "symbol",
          "type": "string"
        },
        {
          "indexed": false,
          "internalType": "uint256",
          "name": "initialSupply",
          "type": "uint256"
        }
      ],
      "name": "DFACreated",
      "type": "event"
    },
    {
      "anonymous": false,
      "inputs": [
        {
          "indexed": false,
          "internalType": "address",
          "name": "user",
          "type": "address"
        }
      ],
      "name": "UserVerified",
      "type": "event"
    },
    {
      "inputs": [
        {
          "internalType": "uint256",
          "name": "initialSupply",
          "type": "uint256"
        },
        {
          "internalType": "string",
          "name": "name",
          "type": "string"
        },
        {
          "internalType": "string",
          "name": "symbol",
          "type": "string"
        }
      ],
      "name": "createDfa",
      "outputs": [
        {
          "internalType": "address",
          "name": "",
          "type": "address"
        }
      ],
      "stateMutability": "nonpayable",
      "type": "function"
    },
    {
      "inputs": [
        {
          "internalType": "address",
          "name": "user",
          "type": "address"
        }
      ],
      "name": "verifyUser",
      "outputs": [],
      "stateMutability": "nonpayable",
      "type": "function"
    },
    {
      "inputs": [
        {
          "internalType": "address",
          "name": "dfaAddress",
          "type": "address"
        }
      ],
      "name": "getExchanger",
      "outputs": [
        {
          "internalType": "address",
          "name": "",
          "type": "address"
        }
      ],
      "stateMutability": "view",
      "type": "function",
      "constant": true
    },
    {
      "inputs": [],
      "name": "getAllDfa",
      "outputs": [
        {
          "internalType": "address[]",
          "name": "",
          "type": "address[]"
        },
        {
          "internalType": "address[]",
          "name": "",
          "type": "address[]"
        },
        {
          "internalType": "string[]",
          "name": "",
          "type": "string[]"
        },
        {
          "internalType": "string[]",
          "name": "",
          "type": "string[]"
        },
        {
          "internalType": "uint256[]",
          "name": "",
          "type": "uint256[]"
        }
      ],
      "stateMutability": "view",
      "type": "function",
      "constant": true
    },
    {
      "inputs": [],
      "name": "getAllDfaAddresses",
      "outputs": [
        {
          "internalType": "address[]",
          "name": "",
          "type": "address[]"
        }
      ],
      "stateMutability": "view",
      "type": "function",
      "constant": true
    },
    {
      "inputs": [],
      "name": "getBalances",
      "outputs": [
        {
          "internalType": "address[]",
          "name": "",
          "type": "address[]"
        },
        {
          "internalType": "uint256[]",
          "name": "",
          "type": "uint256[]"
        }
      ],
      "stateMutability": "view",
      "type": "function",
      "constant": true
    }
  ],
  "bytecode": "0x608060405234801561001057600080fd5b50336000806101000a81548173ffffffffffffffffffffffffffffffffffffffff021916908373ffffffffffffffffffffffffffffffffffffffff160217905550615eb1806100606000396000f3fe60806040523480156200001157600080fd5b5060043610620000695760003560e01c8062113e08146200006e57806310c1ca2b14620000915780632f1d7fa714620000c75780634d81312014620000fd5780635d07a604146200011d578063b5f3ef5d1462000143575b600080fd5b6200007862000165565b604051620000889291906200107f565b60405180910390f35b620000af6004803603810190620000a9919062001261565b62000387565b604051620000be91906200130c565b60405180910390f35b620000e56004803603810190620000df91906200135a565b620005c6565b604051620000f491906200130c565b60405180910390f35b6200011b60048036038101906200011591906200135a565b620006a4565b005b62000127620008d0565b6040516200013a959493929190620014ef565b60405180910390f35b6200014d62000df9565b6040516200015c91906200156f565b60405180910390f35b606080600060018054905067ffffffffffffffff8111156200018c576200018b6200111a565b5b604051908082528060200260200182016040528015620001bb5781602001602082028036833780820191505090505b509050600060018054905067ffffffffffffffff811115620001e257620001e16200111a565b5b604051908082528060200260200182016040528015620002115781602001602082028036833780820191505090505b50905060005b6001805490508110156200037a576000600182815481106200023e576200023d62001593565b5b9060005260206000200160009054906101000a900473ffffffffffffffffffffffffffffffffffffffff16905060008190508185848151811062000287576200028662001593565b5b602002602001019073ffffffffffffffffffffffffffffffffffffffff16908173ffffffffffffffffffffffffffffffffffffffff16815250508073ffffffffffffffffffffffffffffffffffffffff166370a08231336040518263ffffffff1660e01b8152600401620002fc91906200130c565b602060405180830381865afa1580156200031a573d6000803e3d6000fd5b505050506040513d601f19601f82011682018060405250810190620003409190620015d9565b84848151811062000356576200035562001593565b5b6020026020010181815250505050808062000371906200163a565b91505062000217565b5081819350935050509091565b6000600360003373ffffffffffffffffffffffffffffffffffffffff1673ffffffffffffffffffffffffffffffffffffffff16815260200190815260200160002060009054906101000a900460ff1662000418576040517f08c379a00000000000000000000000000000000000000000000000000000000081526004016200040f90620016e9565b60405180910390fd5b6000848484336040516200042c9062000e89565b6200043b94939291906200175d565b604051809103906000f08015801562000458573d6000803e3d6000fd5b5090506000816040516200046c9062000e97565b6200047891906200130c565b604051809103906000f08015801562000495573d6000803e3d6000fd5b50905080600260008473ffffffffffffffffffffffffffffffffffffffff1673ffffffffffffffffffffffffffffffffffffffff16815260200190815260200160002060006101000a81548173ffffffffffffffffffffffffffffffffffffffff021916908373ffffffffffffffffffffffffffffffffffffffff1602179055506001829080600181540180825580915050600190039060005260206000200160009091909190916101000a81548173ffffffffffffffffffffffffffffffffffffffff021916908373ffffffffffffffffffffffffffffffffffffffff1602179055507fdfae1556cb7f36a9d52c930e2986c55fcdef66c402f38194f645b04a15a196da338387878a604051620005b2959493929190620017b8565b60405180910390a181925050509392505050565b600081600073ffffffffffffffffffffffffffffffffffffffff168173ffffffffffffffffffffffffffffffffffffffff1614156200063c576040517f08c379a0000000000000000000000000000000000000000000000000000000008152600401620006339062001873565b60405180910390fd5b600260008473ffffffffffffffffffffffffffffffffffffffff1673ffffffffffffffffffffffffffffffffffffffff16815260200190815260200160002060009054906101000a900473ffffffffffffffffffffffffffffffffffffffff16915050919050565b80600073ffffffffffffffffffffffffffffffffffffffff168173ffffffffffffffffffffffffffffffffffffffff16141562000718576040517f08c379a00000000000000000000000000000000000000000000000000000000081526004016200070f9062001873565b60405180910390fd5b81600360008273ffffffffffffffffffffffffffffffffffffffff1673ffffffffffffffffffffffffffffffffffffffff16815260200190815260200160002060009054906101000a900460ff1615620007a9576040517f08c379a0000000000000000000000000000000000000000000000000000000008152600401620007a090620018e5565b60405180910390fd5b60008054906101000a900473ffffffffffffffffffffffffffffffffffffffff1673ffffffffffffffffffffffffffffffffffffffff163373ffffffffffffffffffffffffffffffffffffffff16146200083a576040517f08c379a0000000000000000000000000000000000000000000000000000000008152600401620008319062001957565b60405180910390fd5b6001600360008573ffffffffffffffffffffffffffffffffffffffff1673ffffffffffffffffffffffffffffffffffffffff16815260200190815260200160002060006101000a81548160ff0219169083151502179055507fa6625d2d26e786e2f473111bea4b2fcdbbf1863d883a2359989ce3a103d2972a83604051620008c391906200130c565b60405180910390a1505050565b6060806060806060600060018054905067ffffffffffffffff811115620008fc57620008fb6200111a565b5b6040519080825280602002602001820160405280156200092b5781602001602082028036833780820191505090505b509050600060018054905067ffffffffffffffff8111156200095257620009516200111a565b5b604051908082528060200260200182016040528015620009815781602001602082028036833780820191505090505b509050600060018054905067ffffffffffffffff811115620009a857620009a76200111a565b5b604051908082528060200260200182016040528015620009dd57816020015b6060815260200190600190039081620009c75790505b509050600060018054905067ffffffffffffffff81111562000a045762000a036200111a565b5b60405190808252806020026020018201604052801562000a3957816020015b606081526020019060019003908162000a235790505b509050600060018054905067ffffffffffffffff81111562000a605762000a5f6200111a565b5b60405190808252806020026020018201604052801562000a8f5781602001602082028036833780820191505090505b50905060005b60018054905081101562000ddd5760006001828154811062000abc5762000abb62001593565b5b9060005260206000200160009054906101000a900473ffffffffffffffffffffffffffffffffffffffff16905060008190508188848151811062000b055762000b0462001593565b5b602002602001019073ffffffffffffffffffffffffffffffffffffffff16908173ffffffffffffffffffffffffffffffffffffffff16815250508073ffffffffffffffffffffffffffffffffffffffff16638da5cb5b6040518163ffffffff1660e01b8152600401602060405180830381865afa15801562000b8b573d6000803e3d6000fd5b505050506040513d601f19601f8201168201806040525081019062000bb1919062001990565b87848151811062000bc75762000bc662001593565b5b602002602001019073ffffffffffffffffffffffffffffffffffffffff16908173ffffffffffffffffffffffffffffffffffffffff16815250508073ffffffffffffffffffffffffffffffffffffffff166306fdde036040518163ffffffff1660e01b8152600401600060405180830381865afa15801562000c4d573d6000803e3d6000fd5b505050506040513d6000823e3d601f19601f8201168201806040525081019062000c78919062001a40565b86848151811062000c8e5762000c8d62001593565b5b60200260200101819052508073ffffffffffffffffffffffffffffffffffffffff166395d89b416040518163ffffffff1660e01b8152600401600060405180830381865afa15801562000ce5573d6000803e3d6000fd5b505050506040513d6000823e3d601f19601f8201168201806040525081019062000d10919062001a40565b85848151811062000d265762000d2562001593565b5b60200260200101819052508073ffffffffffffffffffffffffffffffffffffffff166318160ddd6040518163ffffffff1660e01b8152600401602060405180830381865afa15801562000d7d573d6000803e3d6000fd5b505050506040513d601f19601f8201168201806040525081019062000da39190620015d9565b84848151811062000db95762000db862001593565b5b6020026020010181815250505050808062000dd4906200163a565b91505062000a95565b5084848484849950995099509950995050505050509091929394565b6060600180548060200260200160405190810160405280929190818152602001828054801562000e7f57602002820191906000526020600020905b8160009054906101000a900473ffffffffffffffffffffffffffffffffffffffff1673ffffffffffffffffffffffffffffffffffffffff168152602001906001019080831162000e34575b5050505050905090565b611fa18062001a9283390190565b6124498062003a3383390190565b600081519050919050565b600082825260208201905092915050565b6000819050602082019050919050565b600073ffffffffffffffffffffffffffffffffffffffff82169050919050565b600062000efe8262000ed1565b9050919050565b62000f108162000ef1565b82525050565b600062000f24838362000f05565b60208301905092915050565b6000602082019050919050565b600062000f4a8262000ea5565b62000f56818562000eb0565b935062000f638362000ec1565b8060005b8381101562000f9a57815162000f7e888262000f16565b975062000f8b8362000f30565b92505060018101905062000f67565b5085935050505092915050565b600081519050919050565b600082825260208201905092915050565b6000819050602082019050919050565b6000819050919050565b62000fe88162000fd3565b82525050565b600062000ffc838362000fdd565b60208301905092915050565b6000602082019050919050565b6000620010228262000fa7565b6200102e818562000fb2565b93506200103b8362000fc3565b8060005b838110156200107257815162001056888262000fee565b9750620010638362001008565b9250506001810190506200103f565b5085935050505092915050565b600060408201905081810360008301526200109b818562000f3d565b90508181036020830152620010b1818462001015565b90509392505050565b6000604051905090565b600080fd5b600080fd5b620010d98162000fd3565b8114620010e557600080fd5b50565b600081359050620010f981620010ce565b92915050565b600080fd5b600080fd5b6000601f19601f8301169050919050565b7f4e487b7100000000000000000000000000000000000000000000000000000000600052604160045260246000fd5b620011548262001109565b810181811067ffffffffffffffff821117156200117657620011756200111a565b5b80604052505050565b60006200118b620010ba565b905062001199828262001149565b919050565b600067ffffffffffffffff821115620011bc57620011bb6200111a565b5b620011c78262001109565b9050602081019050919050565b82818337600083830152505050565b6000620011fa620011f4846200119e565b6200117f565b90508281526020810184848401111562001219576200121862001104565b5b62001226848285620011d4565b509392505050565b600082601f830112620012465762001245620010ff565b5b813562001258848260208601620011e3565b91505092915050565b6000806000606084860312156200127d576200127c620010c4565b5b60006200128d86828701620010e8565b935050602084013567ffffffffffffffff811115620012b157620012b0620010c9565b5b620012bf868287016200122e565b925050604084013567ffffffffffffffff811115620012e357620012e2620010c9565b5b620012f1868287016200122e565b9150509250925092565b620013068162000ef1565b82525050565b6000602082019050620013236000830184620012fb565b92915050565b620013348162000ef1565b81146200134057600080fd5b50565b600081359050620013548162001329565b92915050565b600060208284031215620013735762001372620010c4565b5b6000620013838482850162001343565b91505092915050565b600081519050919050565b600082825260208201905092915050565b6000819050602082019050919050565b600081519050919050565b600082825260208201905092915050565b60005b83811015620013f4578082015181840152602081019050620013d7565b8381111562001404576000848401525b50505050565b60006200141782620013b8565b620014238185620013c3565b935062001435818560208601620013d4565b620014408162001109565b840191505092915050565b60006200145983836200140a565b905092915050565b6000602082019050919050565b60006200147b826200138c565b62001487818562001397565b9350836020820285016200149b85620013a8565b8060005b85811015620014dd5784840389528151620014bb85826200144b565b9450620014c88362001461565b925060208a019950506001810190506200149f565b50829750879550505050505092915050565b600060a08201905081810360008301526200150b818862000f3d565b9050818103602083015262001521818762000f3d565b905081810360408301526200153781866200146e565b905081810360608301526200154d81856200146e565b9050818103608083015262001563818462001015565b90509695505050505050565b600060208201905081810360008301526200158b818462000f3d565b905092915050565b7f4e487b7100000000000000000000000000000000000000000000000000000000600052603260045260246000fd5b600081519050620015d381620010ce565b92915050565b600060208284031215620015f257620015f1620010c4565b5b60006200160284828501620015c2565b91505092915050565b7f4e487b7100000000000000000000000000000000000000000000000000000000600052601160045260246000fd5b6000620016478262000fd3565b91507fffffffffffffffffffffffffffffffffffffffffffffffffffffffffffffffff8214156200167d576200167c6200160b565b5b600182019050919050565b600082825260208201905092915050565b7f55736572206e6f74207665726966696564000000000000000000000000000000600082015250565b6000620016d160118362001688565b9150620016de8262001699565b602082019050919050565b600060208201905081810360008301526200170481620016c2565b9050919050565b620017168162000fd3565b82525050565b60006200172982620013b8565b62001735818562001688565b935062001747818560208601620013d4565b620017528162001109565b840191505092915050565b60006080820190506200177460008301876200170b565b81810360208301526200178881866200171c565b905081810360408301526200179e81856200171c565b9050620017af6060830184620012fb565b95945050505050565b600060a082019050620017cf6000830188620012fb565b620017de6020830187620012fb565b8181036040830152620017f281866200171c565b905081810360608301526200180881856200171c565b90506200181960808301846200170b565b9695505050505050565b7f496e76616c696420746f6b656e20616464726573730000000000000000000000600082015250565b60006200185b60158362001688565b9150620018688262001823565b602082019050919050565b600060208201905081810360008301526200188e816200184c565b9050919050565b7f5573657220616c72656164792076657269666965640000000000000000000000600082015250565b6000620018cd60158362001688565b9150620018da8262001895565b602082019050919050565b600060208201905081810360008301526200190081620018be565b9050919050565b7f55736572206973206e6f74206f776e6572000000000000000000000000000000600082015250565b60006200193f60118362001688565b91506200194c8262001907565b602082019050919050565b60006020820190508181036000830152620019728162001930565b9050919050565b6000815190506200198a8162001329565b92915050565b600060208284031215620019a957620019a8620010c4565b5b6000620019b98482850162001979565b91505092915050565b6000620019d9620019d3846200119e565b6200117f565b905082815260208101848484011115620019f857620019f762001104565b5b62001a05848285620013d4565b509392505050565b600082601f83011262001a255762001a24620010ff565b5b815162001a37848260208601620019c2565b91505092915050565b60006020828403121562001a595762001a58620010c4565b5b600082015167ffffffffffffffff81111562001a7a5762001a79620010c9565b5b62001a888482850162001a0d565b9150509291505056fe60806040523480156200001157600080fd5b5060405162001fa138038062001fa18339818101604052810190620000379190620005af565b8282816003908051906020019062000051929190620002c2565b5080600490805190602001906200006a929190620002c2565b50505080600073ffffffffffffffffffffffffffffffffffffffff168173ffffffffffffffffffffffffffffffffffffffff161415620000e1576040517f08c379a0000000000000000000000000000000000000000000000000000000008152600401620000d890620006c0565b60405180910390fd5b620000f382866200013f60201b60201c565b81600560006101000a81548173ffffffffffffffffffffffffffffffffffffffff021916908373ffffffffffffffffffffffffffffffffffffffff160217905550505050505062000873565b600073ffffffffffffffffffffffffffffffffffffffff168273ffffffffffffffffffffffffffffffffffffffff161415620001b2576040517f08c379a0000000000000000000000000000000000000000000000000000000008152600401620001a99062000732565b60405180910390fd5b620001c660008383620002b860201b60201c565b8060026000828254620001da919062000783565b92505081905550806000808473ffffffffffffffffffffffffffffffffffffffff1673ffffffffffffffffffffffffffffffffffffffff168152602001908152602001600020600082825462000231919062000783565b925050819055508173ffffffffffffffffffffffffffffffffffffffff16600073ffffffffffffffffffffffffffffffffffffffff167fddf252ad1be2c89b69c2b068fc378daa952ba7f163c4a11628f55a4df523b3ef83604051620002989190620007f1565b60405180910390a3620002b460008383620002bd60201b60201c565b5050565b505050565b505050565b828054620002d0906200083d565b90600052602060002090601f016020900481019282620002f4576000855562000340565b82601f106200030f57805160ff191683800117855562000340565b8280016001018555821562000340579182015b828111156200033f57825182559160200191906001019062000322565b5b5090506200034f919062000353565b5090565b5b808211156200036e57600081600090555060010162000354565b5090565b6000604051905090565b600080fd5b600080fd5b6000819050919050565b6200039b8162000386565b8114620003a757600080fd5b50565b600081519050620003bb8162000390565b92915050565b600080fd5b600080fd5b6000601f19601f8301169050919050565b7f4e487b7100000000000000000000000000000000000000000000000000000000600052604160045260246000fd5b6200041682620003cb565b810181811067ffffffffffffffff82111715620004385762000437620003dc565b5b80604052505050565b60006200044d62000372565b90506200045b82826200040b565b919050565b600067ffffffffffffffff8211156200047e576200047d620003dc565b5b6200048982620003cb565b9050602081019050919050565b60005b83811015620004b657808201518184015260208101905062000499565b83811115620004c6576000848401525b50505050565b6000620004e3620004dd8462000460565b62000441565b905082815260208101848484011115620005025762000501620003c6565b5b6200050f84828562000496565b509392505050565b600082601f8301126200052f576200052e620003c1565b5b815162000541848260208601620004cc565b91505092915050565b600073ffffffffffffffffffffffffffffffffffffffff82169050919050565b600062000577826200054a565b9050919050565b62000589816200056a565b81146200059557600080fd5b50565b600081519050620005a9816200057e565b92915050565b60008060008060808587031215620005cc57620005cb6200037c565b5b6000620005dc87828801620003aa565b945050602085015167ffffffffffffffff8111156200060057620005ff62000381565b5b6200060e8782880162000517565b935050604085015167ffffffffffffffff81111562000632576200063162000381565b5b620006408782880162000517565b9250506060620006538782880162000598565b91505092959194509250565b600082825260208201905092915050565b7f496e76616c696420746f6b656e20616464726573730000000000000000000000600082015250565b6000620006a86015836200065f565b9150620006b58262000670565b602082019050919050565b60006020820190508181036000830152620006db8162000699565b9050919050565b7f45524332303a206d696e7420746f20746865207a65726f206164647265737300600082015250565b60006200071a601f836200065f565b91506200072782620006e2565b602082019050919050565b600060208201905081810360008301526200074d816200070b565b9050919050565b7f4e487b7100000000000000000000000000000000000000000000000000000000600052601160045260246000fd5b6000620007908262000386565b91506200079d8362000386565b9250827fffffffffffffffffffffffffffffffffffffffffffffffffffffffffffffffff03821115620007d557620007d462000754565b5b828201905092915050565b620007eb8162000386565b82525050565b6000602082019050620008086000830184620007e0565b92915050565b7f4e487b7100000000000000000000000000000000000000000000000000000000600052602260045260246000fd5b600060028204905060018216806200085657607f821691505b602082108114156200086d576200086c6200080e565b5b50919050565b61171e80620008836000396000f3fe608060405234801561001057600080fd5b50600436106100cf5760003560e01c806370a082311161008c578063a0712d6811610066578063a0712d681461022a578063a457c2d714610246578063a9059cbb14610276578063dd62ed3e146102a6576100cf565b806370a08231146101be5780638da5cb5b146101ee57806395d89b411461020c576100cf565b806306fdde03146100d4578063095ea7b3146100f257806318160ddd1461012257806323b872dd14610140578063313ce56714610170578063395093511461018e575b600080fd5b6100dc6102d6565b6040516100e99190610ea9565b60405180910390f35b61010c60048036038101906101079190610f64565b610368565b6040516101199190610fbf565b60405180910390f35b61012a61038b565b6040516101379190610fe9565b60405180910390f35b61015a60048036038101906101559190611004565b610395565b6040516101679190610fbf565b60405180910390f35b6101786103c4565b6040516101859190611073565b60405180910390f35b6101a860048036038101906101a39190610f64565b6103c9565b6040516101b59190610fbf565b60405180910390f35b6101d860048036038101906101d3919061108e565b610473565b6040516101e59190610fe9565b60405180910390f35b6101f66104bb565b60405161020391906110ca565b60405180910390f35b6102146104e1565b6040516102219190610ea9565b60405180910390f35b610244600480360381019061023f91906110e5565b610573565b005b610260600480360381019061025b9190610f64565b610632565b60405161026d9190610fbf565b60405180910390f35b610290600480360381019061028b9190610f64565b61071c565b60405161029d9190610fbf565b60405180910390f35b6102c060048036038101906102bb9190611112565b61073f565b6040516102cd9190610fe9565b60405180910390f35b6060600380546102e590611181565b80601f016020809104026020016040519081016040528092919081815260200182805461031190611181565b801561035e5780601f106103335761010080835404028352916020019161035e565b820191906000526020600020905b81548152906001019060200180831161034157829003601f168201915b5050505050905090565b6000806103736107c6565b90506103808185856107ce565b600191505092915050565b6000600254905090565b6000806103a06107c6565b90506103ad858285610999565b6103b8858585610a25565b60019150509392505050565b600090565b6000806103d46107c6565b9050610468818585600160008673ffffffffffffffffffffffffffffffffffffffff1673ffffffffffffffffffffffffffffffffffffffff16815260200190815260200160002060008973ffffffffffffffffffffffffffffffffffffffff1673ffffffffffffffffffffffffffffffffffffffff1681526020019081526020016000205461046391906111e2565b6107ce565b600191505092915050565b60008060008373ffffffffffffffffffffffffffffffffffffffff1673ffffffffffffffffffffffffffffffffffffffff168152602001908152602001600020549050919050565b600560009054906101000a900473ffffffffffffffffffffffffffffffffffffffff1681565b6060600480546104f090611181565b80601f016020809104026020016040519081016040528092919081815260200182805461051c90611181565b80156105695780601f1061053e57610100808354040283529160200191610569565b820191906000526020600020905b81548152906001019060200180831161054c57829003601f168201915b5050505050905090565b600560009054906101000a900473ffffffffffffffffffffffffffffffffffffffff1673ffffffffffffffffffffffffffffffffffffffff163373ffffffffffffffffffffffffffffffffffffffff1614610603576040517f08c379a00000000000000000000000000000000000000000000000000000000081526004016105fa90611284565b60405180910390fd5b61062f600560009054906101000a900473ffffffffffffffffffffffffffffffffffffffff1682610ca6565b50565b60008061063d6107c6565b90506000600160008373ffffffffffffffffffffffffffffffffffffffff1673ffffffffffffffffffffffffffffffffffffffff16815260200190815260200160002060008673ffffffffffffffffffffffffffffffffffffffff1673ffffffffffffffffffffffffffffffffffffffff16815260200190815260200160002054905083811015610703576040517f08c379a00000000000000000000000000000000000000000000000000000000081526004016106fa90611316565b60405180910390fd5b61071082868684036107ce565b60019250505092915050565b6000806107276107c6565b9050610734818585610a25565b600191505092915050565b6000600160008473ffffffffffffffffffffffffffffffffffffffff1673ffffffffffffffffffffffffffffffffffffffff16815260200190815260200160002060008373ffffffffffffffffffffffffffffffffffffffff1673ffffffffffffffffffffffffffffffffffffffff16815260200190815260200160002054905092915050565b600033905090565b600073ffffffffffffffffffffffffffffffffffffffff168373ffffffffffffffffffffffffffffffffffffffff16141561083e576040517f08c379a0000000000000000000000000000000000000000000000000000000008152600401610835906113a8565b60405180910390fd5b600073ffffffffffffffffffffffffffffffffffffffff168273ffffffffffffffffffffffffffffffffffffffff1614156108ae576040517f08c379a00000000000000000000000000000000000000000000000000000000081526004016108a59061143a565b60405180910390fd5b80600160008573ffffffffffffffffffffffffffffffffffffffff1673ffffffffffffffffffffffffffffffffffffffff16815260200190815260200160002060008473ffffffffffffffffffffffffffffffffffffffff1673ffffffffffffffffffffffffffffffffffffffff168152602001908152602001600020819055508173ffffffffffffffffffffffffffffffffffffffff168373ffffffffffffffffffffffffffffffffffffffff167f8c5be1e5ebec7d5bd14f71427d1e84f3dd0314c0f7b2291e5b200ac8c7c3b9258360405161098c9190610fe9565b60405180910390a3505050565b60006109a5848461073f565b90507fffffffffffffffffffffffffffffffffffffffffffffffffffffffffffffffff8114610a1f5781811015610a11576040517f08c379a0000000000000000000000000000000000000000000000000000000008152600401610a08906114a6565b60405180910390fd5b610a1e84848484036107ce565b5b50505050565b600073ffffffffffffffffffffffffffffffffffffffff168373ffffffffffffffffffffffffffffffffffffffff161415610a95576040517f08c379a0000000000000000000000000000000000000000000000000000000008152600401610a8c90611538565b60405180910390fd5b600073ffffffffffffffffffffffffffffffffffffffff168273ffffffffffffffffffffffffffffffffffffffff161415610b05576040517f08c379a0000000000000000000000000000000000000000000000000000000008152600401610afc906115ca565b60405180910390fd5b610b10838383610e06565b60008060008573ffffffffffffffffffffffffffffffffffffffff1673ffffffffffffffffffffffffffffffffffffffff16815260200190815260200160002054905081811015610b96576040517f08c379a0000000000000000000000000000000000000000000000000000000008152600401610b8d9061165c565b60405180910390fd5b8181036000808673ffffffffffffffffffffffffffffffffffffffff1673ffffffffffffffffffffffffffffffffffffffff16815260200190815260200160002081905550816000808573ffffffffffffffffffffffffffffffffffffffff1673ffffffffffffffffffffffffffffffffffffffff1681526020019081526020016000206000828254610c2991906111e2565b925050819055508273ffffffffffffffffffffffffffffffffffffffff168473ffffffffffffffffffffffffffffffffffffffff167fddf252ad1be2c89b69c2b068fc378daa952ba7f163c4a11628f55a4df523b3ef84604051610c8d9190610fe9565b60405180910390a3610ca0848484610e0b565b50505050565b600073ffffffffffffffffffffffffffffffffffffffff168273ffffffffffffffffffffffffffffffffffffffff161415610d16576040517f08c379a0000000000000000000000000000000000000000000000000000000008152600401610d0d906116c8565b60405180910390fd5b610d2260008383610e06565b8060026000828254610d3491906111e2565b92505081905550806000808473ffffffffffffffffffffffffffffffffffffffff1673ffffffffffffffffffffffffffffffffffffffff1681526020019081526020016000206000828254610d8991906111e2565b925050819055508173ffffffffffffffffffffffffffffffffffffffff16600073ffffffffffffffffffffffffffffffffffffffff167fddf252ad1be2c89b69c2b068fc378daa952ba7f163c4a11628f55a4df523b3ef83604051610dee9190610fe9565b60405180910390a3610e0260008383610e0b565b5050565b505050565b505050565b600081519050919050565b600082825260208201905092915050565b60005b83811015610e4a578082015181840152602081019050610e2f565b83811115610e59576000848401525b50505050565b6000601f19601f8301169050919050565b6000610e7b82610e10565b610e858185610e1b565b9350610e95818560208601610e2c565b610e9e81610e5f565b840191505092915050565b60006020820190508181036000830152610ec38184610e70565b905092915050565b600080fd5b600073ffffffffffffffffffffffffffffffffffffffff82169050919050565b6000610efb82610ed0565b9050919050565b610f0b81610ef0565b8114610f1657600080fd5b50565b600081359050610f2881610f02565b92915050565b6000819050919050565b610f4181610f2e565b8114610f4c57600080fd5b50565b600081359050610f5e81610f38565b92915050565b60008060408385031215610f7b57610f7a610ecb565b5b6000610f8985828601610f19565b9250506020610f9a85828601610f4f565b9150509250929050565b60008115159050919050565b610fb981610fa4565b82525050565b6000602082019050610fd46000830184610fb0565b92915050565b610fe381610f2e565b82525050565b6000602082019050610ffe6000830184610fda565b92915050565b60008060006060848603121561101d5761101c610ecb565b5b600061102b86828701610f19565b935050602061103c86828701610f19565b925050604061104d86828701610f4f565b9150509250925092565b600060ff82169050919050565b61106d81611057565b82525050565b60006020820190506110886000830184611064565b92915050565b6000602082840312156110a4576110a3610ecb565b5b60006110b284828501610f19565b91505092915050565b6110c481610ef0565b82525050565b60006020820190506110df60008301846110bb565b92915050565b6000602082840312156110fb576110fa610ecb565b5b600061110984828501610f4f565b91505092915050565b6000806040838503121561112957611128610ecb565b5b600061113785828601610f19565b925050602061114885828601610f19565b9150509250929050565b7f4e487b7100000000000000000000000000000000000000000000000000000000600052602260045260246000fd5b6000600282049050600182168061119957607f821691505b602082108114156111ad576111ac611152565b5b50919050565b7f4e487b7100000000000000000000000000000000000000000000000000000000600052601160045260246000fd5b60006111ed82610f2e565b91506111f883610f2e565b9250827fffffffffffffffffffffffffffffffffffffffffffffffffffffffffffffffff0382111561122d5761122c6111b3565b5b828201905092915050565b7f43616c6c6572206973206e6f74206f776e657200000000000000000000000000600082015250565b600061126e601383610e1b565b915061127982611238565b602082019050919050565b6000602082019050818103600083015261129d81611261565b9050919050565b7f45524332303a2064656372656173656420616c6c6f77616e63652062656c6f7760008201527f207a65726f000000000000000000000000000000000000000000000000000000602082015250565b6000611300602583610e1b565b915061130b826112a4565b604082019050919050565b6000602082019050818103600083015261132f816112f3565b9050919050565b7f45524332303a20617070726f76652066726f6d20746865207a65726f2061646460008201527f7265737300000000000000000000000000000000000000000000000000000000602082015250565b6000611392602483610e1b565b915061139d82611336565b604082019050919050565b600060208201905081810360008301526113c181611385565b9050919050565b7f45524332303a20617070726f766520746f20746865207a65726f20616464726560008201527f7373000000000000000000000000000000000000000000000000000000000000602082015250565b6000611424602283610e1b565b915061142f826113c8565b604082019050919050565b6000602082019050818103600083015261145381611417565b9050919050565b7f45524332303a20696e73756666696369656e7420616c6c6f77616e6365000000600082015250565b6000611490601d83610e1b565b915061149b8261145a565b602082019050919050565b600060208201905081810360008301526114bf81611483565b9050919050565b7f45524332303a207472616e736665722066726f6d20746865207a65726f20616460008201527f6472657373000000000000000000000000000000000000000000000000000000602082015250565b6000611522602583610e1b565b915061152d826114c6565b604082019050919050565b6000602082019050818103600083015261155181611515565b9050919050565b7f45524332303a207472616e7366657220746f20746865207a65726f206164647260008201527f6573730000000000000000000000000000000000000000000000000000000000602082015250565b60006115b4602383610e1b565b91506115bf82611558565b604082019050919050565b600060208201905081810360008301526115e3816115a7565b9050919050565b7f45524332303a207472616e7366657220616d6f756e742065786365656473206260008201527f616c616e63650000000000000000000000000000000000000000000000000000602082015250565b6000611646602683610e1b565b9150611651826115ea565b604082019050919050565b6000602082019050818103600083015261167581611639565b9050919050565b7f45524332303a206d696e7420746f20746865207a65726f206164647265737300600082015250565b60006116b2601f83610e1b565b91506116bd8261167c565b602082019050919050565b600060208201905081810360008301526116e1816116a5565b905091905056fea2646970667358221220fd468f260e50d12ac0a7ae51627436e785af5aaebd2aa852735083b55b21913564736f6c634300080b003360806040523480156200001157600080fd5b50604051620024493803806200244983398181016040528101906200003791906200019e565b80600073ffffffffffffffffffffffffffffffffffffffff168173ffffffffffffffffffffffffffffffffffffffff161415620000ab576040517f08c379a0000000000000000000000000000000000000000000000000000000008152600401620000a29062000231565b60405180910390fd5b816000806101000a81548173ffffffffffffffffffffffffffffffffffffffff021916908373ffffffffffffffffffffffffffffffffffffffff16021790555033600160006101000a81548173ffffffffffffffffffffffffffffffffffffffff021916908373ffffffffffffffffffffffffffffffffffffffff160217905550505062000253565b600080fd5b600073ffffffffffffffffffffffffffffffffffffffff82169050919050565b6000620001668262000139565b9050919050565b620001788162000159565b81146200018457600080fd5b50565b60008151905062000198816200016d565b92915050565b600060208284031215620001b757620001b662000134565b5b6000620001c78482850162000187565b91505092915050565b600082825260208201905092915050565b7f496e76616c696420616464726573730000000000000000000000000000000000600082015250565b600062000219600f83620001d0565b91506200022682620001e1565b602082019050919050565b600060208201905081810360008301526200024c816200020a565b9050919050565b6121e680620002636000396000f3fe608060405234801561001057600080fd5b506004361061007d5760003560e01c806374adad1d1161005b57806374adad1d146100ea578063873deb041461011a5780638c75d7b414610138578063966dae0e1461016a5761007d565b80630c884bde1461008257806354dbc21e146100b25780635f1b9c28146100ce575b600080fd5b61009c6004803603810190610097919061172e565b610188565b6040516100a99190611790565b60405180910390f35b6100cc60048036038101906100c7919061172e565b61042c565b005b6100e860048036038101906100e391906118b4565b610cef565b005b61010460048036038101906100ff91906118e1565b611239565b604051610111919061191d565b60405180910390f35b610122611257565b60405161012f9190611790565b60405180910390f35b610152600480360381019061014d91906118e1565b61127b565b60405161016193929190611ab4565b60405180910390f35b610172611665565b60405161017f9190611790565b60405180910390f35b60008282600082116101cf576040517f08c379a00000000000000000000000000000000000000000000000000000000081526004016101c690611b5d565b60405180910390fd5b60008111610212576040517f08c379a000000000000000000000000000000000000000000000000000000000815260040161020990611b5d565b60405180910390fd5b85600073ffffffffffffffffffffffffffffffffffffffff168173ffffffffffffffffffffffffffffffffffffffff161415610283576040517f08c379a000000000000000000000000000000000000000000000000000000000815260040161027a90611bc9565b60405180910390fd5b6000600260008973ffffffffffffffffffffffffffffffffffffffff1673ffffffffffffffffffffffffffffffffffffffff168152602001908152602001600020600001805480602002602001604051908101604052809291908181526020016000905b8282101561039e57838290600052602060002090600402016040518060800160405290816000820160009054906101000a900473ffffffffffffffffffffffffffffffffffffffff1673ffffffffffffffffffffffffffffffffffffffff1673ffffffffffffffffffffffffffffffffffffffff16815260200160018201548152602001600282015481526020016003820160009054906101000a900460ff161515151581525050815260200190600101906102e7565b50505050905060005b815181101561041b5760008282815181106103c5576103c4611be9565b5b6020026020010151905080606001511580156103e45750888160200151145b80156103f35750878160400151145b156104075780600001519650505050610422565b50808061041390611c47565b9150506103a7565b5060009450505b5050509392505050565b808260008211610471576040517f08c379a000000000000000000000000000000000000000000000000000000000815260040161046890611b5d565b60405180910390fd5b600081116104b4576040517f08c379a00000000000000000000000000000000000000000000000000000000081526004016104ab90611b5d565b60405180910390fd5b84600073ffffffffffffffffffffffffffffffffffffffff168173ffffffffffffffffffffffffffffffffffffffff161415610525576040517f08c379a000000000000000000000000000000000000000000000000000000000815260040161051c90611bc9565b60405180910390fd5b85600073ffffffffffffffffffffffffffffffffffffffff16600160009054906101000a900473ffffffffffffffffffffffffffffffffffffffff1673ffffffffffffffffffffffffffffffffffffffff16632f1d7fa7836040518263ffffffff1660e01b81526004016105999190611790565b602060405180830381865afa1580156105b6573d6000803e3d6000fd5b505050506040513d601f19601f820116820180604052508101906105da9190611ca5565b73ffffffffffffffffffffffffffffffffffffffff161415610631576040517f08c379a000000000000000000000000000000000000000000000000000000000815260040161062890611d1e565b60405180910390fd5b8460008054906101000a900473ffffffffffffffffffffffffffffffffffffffff16818173ffffffffffffffffffffffffffffffffffffffff166370a08231336040518263ffffffff1660e01b815260040161068d9190611790565b602060405180830381865afa1580156106aa573d6000803e3d6000fd5b505050506040513d601f19601f820116820180604052508101906106ce9190611d53565b101561070f576040517f08c379a000000000000000000000000000000000000000000000000000000000815260040161070690611dcc565b60405180910390fd5b818173ffffffffffffffffffffffffffffffffffffffff1663dd62ed3e33306040518363ffffffff1660e01b815260040161074b929190611dec565b602060405180830381865afa158015610768573d6000803e3d6000fd5b505050506040513d601f19601f8201168201806040525081019061078c9190611d53565b10156107cd576040517f08c379a00000000000000000000000000000000000000000000000000000000081526004016107c490611e61565b60405180910390fd5b6000600160009054906101000a900473ffffffffffffffffffffffffffffffffffffffff1673ffffffffffffffffffffffffffffffffffffffff16632f1d7fa78b6040518263ffffffff1660e01b815260040161082a9190611790565b602060405180830381865afa158015610847573d6000803e3d6000fd5b505050506040513d601f19601f8201168201806040525081019061086b9190611ca5565b9050600081905060008054906101000a900473ffffffffffffffffffffffffffffffffffffffff1673ffffffffffffffffffffffffffffffffffffffff166323b872dd33308c6040518463ffffffff1660e01b81526004016108cf93929190611e81565b6020604051808303816000875af11580156108ee573d6000803e3d6000fd5b505050506040513d601f19601f820116820180604052508101906109129190611ef0565b5060008173ffffffffffffffffffffffffffffffffffffffff16630c884bde60008054906101000a900473ffffffffffffffffffffffffffffffffffffffff168c8e6040518463ffffffff1660e01b815260040161097293929190611f1d565b602060405180830381865afa15801561098f573d6000803e3d6000fd5b505050506040513d601f19601f820116820180604052508101906109b39190611ca5565b9050600073ffffffffffffffffffffffffffffffffffffffff168173ffffffffffffffffffffffffffffffffffffffff1614610b645760008054906101000a900473ffffffffffffffffffffffffffffffffffffffff1673ffffffffffffffffffffffffffffffffffffffff1663a9059cbb828c6040518363ffffffff1660e01b8152600401610a44929190611f54565b6020604051808303816000875af1158015610a63573d6000803e3d6000fd5b505050506040513d601f19601f82011682018060405250810190610a879190611ef0565b508173ffffffffffffffffffffffffffffffffffffffff16635f1b9c2860405180608001604052803373ffffffffffffffffffffffffffffffffffffffff16815260200160008054906101000a900473ffffffffffffffffffffffffffffffffffffffff1673ffffffffffffffffffffffffffffffffffffffff1681526020018d81526020018e8152506040518263ffffffff1660e01b8152600401610b2d9190611fd2565b600060405180830381600087803b158015610b4757600080fd5b505af1158015610b5b573d6000803e3d6000fd5b50505050610ce1565b600260008d73ffffffffffffffffffffffffffffffffffffffff1673ffffffffffffffffffffffffffffffffffffffff16815260200190815260200160002060000160405180608001604052803373ffffffffffffffffffffffffffffffffffffffff1681526020018d81526020018c815260200160001515815250908060018154018082558091505060019003906000526020600020906004020160009091909190915060008201518160000160006101000a81548173ffffffffffffffffffffffffffffffffffffffff021916908373ffffffffffffffffffffffffffffffffffffffff160217905550602082015181600101556040820151816002015560608201518160030160006101000a81548160ff02191690831515021790555050506001600260008e73ffffffffffffffffffffffffffffffffffffffff1673ffffffffffffffffffffffffffffffffffffffff1681526020019081526020016000206001016000828254610cd99190611fed565b925050819055505b505050505050505050505050565b8060400151816060015160008211610d3c576040517f08c379a0000000000000000000000000000000000000000000000000000000008152600401610d3390611b5d565b60405180910390fd5b60008111610d7f576040517f08c379a0000000000000000000000000000000000000000000000000000000008152600401610d7690611b5d565b60405180910390fd5b8260200151600073ffffffffffffffffffffffffffffffffffffffff168173ffffffffffffffffffffffffffffffffffffffff161415610df4576040517f08c379a0000000000000000000000000000000000000000000000000000000008152600401610deb90611bc9565b60405180910390fd5b83602001513373ffffffffffffffffffffffffffffffffffffffff16600160009054906101000a900473ffffffffffffffffffffffffffffffffffffffff1673ffffffffffffffffffffffffffffffffffffffff16632f1d7fa7836040518263ffffffff1660e01b8152600401610e6b9190611790565b602060405180830381865afa158015610e88573d6000803e3d6000fd5b505050506040513d601f19601f82011682018060405250810190610eac9190611ca5565b73ffffffffffffffffffffffffffffffffffffffff1614610f02576040517f08c379a0000000000000000000000000000000000000000000000000000000008152600401610ef99061208f565b60405180910390fd5b8460000151600073ffffffffffffffffffffffffffffffffffffffff168173ffffffffffffffffffffffffffffffffffffffff161415610f77576040517f08c379a0000000000000000000000000000000000000000000000000000000008152600401610f6e90611bc9565b60405180910390fd5b600060026000886020015173ffffffffffffffffffffffffffffffffffffffff1673ffffffffffffffffffffffffffffffffffffffff16815260200190815260200160002060000190506000805b82805490508110156111ee576000838281548110610fe657610fe5611be9565b5b9060005260206000209060040201905089604001518160010154148015611014575089606001518160020154145b156111da5760018160030160006101000a81548160ff02191690831515021790555060008054906101000a900473ffffffffffffffffffffffffffffffffffffffff1673ffffffffffffffffffffffffffffffffffffffff1663a9059cbb8b600001518c606001516040518363ffffffff1660e01b8152600401611099929190611f54565b6020604051808303816000875af11580156110b8573d6000803e3d6000fd5b505050506040513d601f19601f820116820180604052508101906110dc9190611ef0565b50600192506001600260008c6020015173ffffffffffffffffffffffffffffffffffffffff1673ffffffffffffffffffffffffffffffffffffffff168152602001908152602001600020600101600082825461113891906120af565b925050819055507f3fcd82abd7b4aa2dae161019e066c1909e297f3a20b3b4757ef4aa36b1a122428160000160009054906101000a900473ffffffffffffffffffffffffffffffffffffffff1660008054906101000a900473ffffffffffffffffffffffffffffffffffffffff1683600201548d600001518e602001518f604001516040516111cc969594939291906120e3565b60405180910390a1506111ee565b5080806111e690611c47565b915050610fc5565b508061122f576040517f08c379a000000000000000000000000000000000000000000000000000000000815260040161122690612190565b60405180910390fd5b5050505050505050565b60026020528060005260406000206000915090508060010154905081565b60008054906101000a900473ffffffffffffffffffffffffffffffffffffffff1681565b606080606083600073ffffffffffffffffffffffffffffffffffffffff168173ffffffffffffffffffffffffffffffffffffffff1614156112f1576040517f08c379a00000000000000000000000000000000000000000000000000000000081526004016112e890611bc9565b60405180910390fd5b6000600260008773ffffffffffffffffffffffffffffffffffffffff1673ffffffffffffffffffffffffffffffffffffffff168152602001908152602001600020600001805480602002602001604051908101604052809291908181526020016000905b8282101561140c57838290600052602060002090600402016040518060800160405290816000820160009054906101000a900473ffffffffffffffffffffffffffffffffffffffff1673ffffffffffffffffffffffffffffffffffffffff1673ffffffffffffffffffffffffffffffffffffffff16815260200160018201548152602001600282015481526020016003820160009054906101000a900460ff16151515158152505081526020019060010190611355565b5050505090506000600260008873ffffffffffffffffffffffffffffffffffffffff1673ffffffffffffffffffffffffffffffffffffffff16815260200190815260200160002060010154905060008167ffffffffffffffff811115611475576114746117c1565b5b6040519080825280602002602001820160405280156114a35781602001602082028036833780820191505090505b50905060008267ffffffffffffffff8111156114c2576114c16117c1565b5b6040519080825280602002602001820160405280156114f05781602001602082028036833780820191505090505b50905060008367ffffffffffffffff81111561150f5761150e6117c1565b5b60405190808252806020026020018201604052801561153d5781602001602082028036833780820191505090505b5090506000805b865181101561164d578681815181106115605761155f611be9565b5b60200260200101516060015161163a57600087828151811061158557611584611be9565b5b6020026020010151905080600001518684815181106115a7576115a6611be9565b5b602002602001019073ffffffffffffffffffffffffffffffffffffffff16908173ffffffffffffffffffffffffffffffffffffffff168152505080602001518584815181106115f9576115f8611be9565b5b602002602001018181525050806040015184848151811061161d5761161c611be9565b5b6020026020010181815250506001836116369190611fed565b9250505b808061164590611c47565b915050611544565b50838383995099509950505050505050509193909250565b600160009054906101000a900473ffffffffffffffffffffffffffffffffffffffff1681565b6000604051905090565b600080fd5b600073ffffffffffffffffffffffffffffffffffffffff82169050919050565b60006116c58261169a565b9050919050565b6116d5816116ba565b81146116e057600080fd5b50565b6000813590506116f2816116cc565b92915050565b6000819050919050565b61170b816116f8565b811461171657600080fd5b50565b60008135905061172881611702565b92915050565b60008060006060848603121561174757611746611695565b5b6000611755868287016116e3565b935050602061176686828701611719565b925050604061177786828701611719565b9150509250925092565b61178a816116ba565b82525050565b60006020820190506117a56000830184611781565b92915050565b600080fd5b6000601f19601f8301169050919050565b7f4e487b7100000000000000000000000000000000000000000000000000000000600052604160045260246000fd5b6117f9826117b0565b810181811067ffffffffffffffff82111715611818576118176117c1565b5b80604052505050565b600061182b61168b565b905061183782826117f0565b919050565b600060808284031215611852576118516117ab565b5b61185c6080611821565b9050600061186c848285016116e3565b6000830152506020611880848285016116e3565b602083015250604061189484828501611719565b60408301525060606118a884828501611719565b60608301525092915050565b6000608082840312156118ca576118c9611695565b5b60006118d88482850161183c565b91505092915050565b6000602082840312156118f7576118f6611695565b5b6000611905848285016116e3565b91505092915050565b611917816116f8565b82525050565b6000602082019050611932600083018461190e565b92915050565b600081519050919050565b600082825260208201905092915050565b6000819050602082019050919050565b61196d816116ba565b82525050565b600061197f8383611964565b60208301905092915050565b6000602082019050919050565b60006119a382611938565b6119ad8185611943565b93506119b883611954565b8060005b838110156119e95781516119d08882611973565b97506119db8361198b565b9250506001810190506119bc565b5085935050505092915050565b600081519050919050565b600082825260208201905092915050565b6000819050602082019050919050565b611a2b816116f8565b82525050565b6000611a3d8383611a22565b60208301905092915050565b6000602082019050919050565b6000611a61826119f6565b611a6b8185611a01565b9350611a7683611a12565b8060005b83811015611aa7578151611a8e8882611a31565b9750611a9983611a49565b925050600181019050611a7a565b5085935050505092915050565b60006060820190508181036000830152611ace8186611998565b90508181036020830152611ae28185611a56565b90508181036040830152611af68184611a56565b9050949350505050565b600082825260208201905092915050565b7f4e756d62657220697320657175616c20746f207a65726f000000000000000000600082015250565b6000611b47601783611b00565b9150611b5282611b11565b602082019050919050565b60006020820190508181036000830152611b7681611b3a565b9050919050565b7f496e76616c696420616464726573730000000000000000000000000000000000600082015250565b6000611bb3600f83611b00565b9150611bbe82611b7d565b602082019050919050565b60006020820190508181036000830152611be281611ba6565b9050919050565b7f4e487b7100000000000000000000000000000000000000000000000000000000600052603260045260246000fd5b7f4e487b7100000000000000000000000000000000000000000000000000000000600052601160045260246000fd5b6000611c52826116f8565b91507fffffffffffffffffffffffffffffffffffffffffffffffffffffffffffffffff821415611c8557611c84611c18565b5b600182019050919050565b600081519050611c9f816116cc565b92915050565b600060208284031215611cbb57611cba611695565b5b6000611cc984828501611c90565b91505092915050565b7f45786368616e67657220666f7220646661206e6f7420666f756e640000000000600082015250565b6000611d08601b83611b00565b9150611d1382611cd2565b602082019050919050565b60006020820190508181036000830152611d3781611cfb565b9050919050565b600081519050611d4d81611702565b92915050565b600060208284031215611d6957611d68611695565b5b6000611d7784828501611d3e565b91505092915050565b7f53656e64657220646f6573206e6f74206861766520656e6f7567682064666100600082015250565b6000611db6601f83611b00565b9150611dc182611d80565b602082019050919050565b60006020820190508181036000830152611de581611da9565b9050919050565b6000604082019050611e016000830185611781565b611e0e6020830184611781565b9392505050565b7f416d6f756e74206f6620444641206973206e6f7420616c6c6f77656400000000600082015250565b6000611e4b601c83611b00565b9150611e5682611e15565b602082019050919050565b60006020820190508181036000830152611e7a81611e3e565b9050919050565b6000606082019050611e966000830186611781565b611ea36020830185611781565b611eb0604083018461190e565b949350505050565b60008115159050919050565b611ecd81611eb8565b8114611ed857600080fd5b50565b600081519050611eea81611ec4565b92915050565b600060208284031215611f0657611f05611695565b5b6000611f1484828501611edb565b91505092915050565b6000606082019050611f326000830186611781565b611f3f602083018561190e565b611f4c604083018461190e565b949350505050565b6000604082019050611f696000830185611781565b611f76602083018461190e565b9392505050565b608082016000820151611f936000850182611964565b506020820151611fa66020850182611964565b506040820151611fb96040850182611a22565b506060820151611fcc6060850182611a22565b50505050565b6000608082019050611fe76000830184611f7d565b92915050565b6000611ff8826116f8565b9150612003836116f8565b9250827fffffffffffffffffffffffffffffffffffffffffffffffffffffffffffffffff0382111561203857612037611c18565b5b828201905092915050565b7f53656e646572206973206e6f742065786368616e676572000000000000000000600082015250565b6000612079601783611b00565b915061208482612043565b602082019050919050565b600060208201905081810360008301526120a88161206c565b9050919050565b60006120ba826116f8565b91506120c5836116f8565b9250828210156120d8576120d7611c18565b5b828203905092915050565b600060c0820190506120f86000830189611781565b6121056020830188611781565b612112604083018761190e565b61211f6060830186611781565b61212c6080830185611781565b61213960a083018461190e565b979650505050505050565b7f56616c69642072657175657374206e6f7420666f756e64000000000000000000600082015250565b600061217a601783611b00565b915061218582612144565b602082019050919050565b600060208201905081810360008301526121a98161216d565b905091905056fea26469706673582212207b76cc3db29aa012f0265934bf498f32c4ef076fcbf25f7577bf1eedf2ffb04764736f6c634300080b0033a26469706673582212208244c57af227ce39dea99c99e67b14904562d9b70b0a6f4677f57f933324726f64736f6c634300080b0033",
  "immutableReferences": {},
  "source": "// SPDX-License-Identifier: MIT\r\npragma solidity ^0.8.3;\r\n\r\nimport \"./DFA.sol\";\r\nimport \"./Exchanger.sol\";\r\n\r\n\r\ncontract Factory {\r\n  //  struct ExchangerRequestInfo {\r\n  //    address user;\r\n  //    uint amountToGet;\r\n  //    uint amountToGive;\r\n  //  }\r\n  //\r\n  //  struct ExchangerRequestFullInfo {\r\n  //    address user;\r\n  //    address dfaToGet;\r\n  //    uint amountToGet;\r\n  //    address dfaToGive;\r\n  //    uint amountToGive;\r\n  //  }\r\n  //  struct DfaInfo {\r\n  //    address dfaAddress;\r\n  //    string name;\r\n  //    string symbol;\r\n  //    uint totalSupply;\r\n  //  }\r\n\r\n  address owner;\r\n  address[] dfaList;\r\n  mapping(address => address) dfaToExchanger;\r\n  mapping(address => bool) verifiedUsers;\r\n\r\n  modifier isAddressValid(address addressToCheck) {\r\n    require(addressToCheck != address(0), \"Invalid token address\");\r\n    _;\r\n  }\r\n\r\n  modifier isUserVerified() {\r\n    require(verifiedUsers[msg.sender], \"User not verified\");\r\n    _;\r\n  }\r\n\r\n  modifier isUserNotVerified(address user) {\r\n    require(!verifiedUsers[user], \"User already verified\");\r\n    _;\r\n  }\r\n\r\n  modifier isOwner() {\r\n    require(msg.sender == owner, \"User is not owner\");\r\n    _;\r\n  }\r\n\r\n  constructor() {\r\n    owner = msg.sender;\r\n  }\r\n\r\n  event DFACreated(address whoCreate, address dfaAddress, string name, string symbol, uint initialSupply);\r\n\r\n  event UserVerified(address user);\r\n\r\n  function createDfa(\r\n    uint initialSupply,\r\n    string memory name,\r\n    string memory symbol\r\n  ) external isUserVerified returns (address)\r\n  {\r\n    address dfaAddress = address(\r\n      new DFA(\r\n        initialSupply,\r\n        name,\r\n        symbol,\r\n        msg.sender\r\n      )\r\n    );\r\n    Exchanger exchanger = new Exchanger(dfaAddress);\r\n    dfaToExchanger[dfaAddress] = address(exchanger);\r\n    dfaList.push(dfaAddress);\r\n    emit DFACreated(\r\n      msg.sender,\r\n      dfaAddress,\r\n      name,\r\n      symbol,\r\n      initialSupply\r\n    );\r\n    return dfaAddress;\r\n  }\r\n\r\n  function verifyUser(address user)\r\n  external\r\n  isAddressValid(user)\r\n  isUserNotVerified(user)\r\n  isOwner\r\n  {\r\n    verifiedUsers[user] = true;\r\n    emit UserVerified(user);\r\n  }\r\n\r\n  function getExchanger(address dfaAddress)\r\n  public\r\n  view\r\n  isAddressValid(dfaAddress)\r\n  returns (address)\r\n  {\r\n    return dfaToExchanger[dfaAddress];\r\n  }\r\n\r\n  function getAllDfa() external view\r\n  returns (\r\n    address[] memory,\r\n    address[] memory,\r\n    string[] memory,\r\n    string[] memory,\r\n    uint[] memory\r\n  )\r\n  {\r\n    address[] memory addresses = new address[](dfaList.length);\r\n    address[] memory owners = new address[](dfaList.length);\r\n    string[] memory names = new string[](dfaList.length);\r\n    string[] memory symbols = new string[](dfaList.length);\r\n    uint[] memory supplies = new uint[](dfaList.length);\r\n    for (uint i = 0; i < dfaList.length; i++) {\r\n      address dfaAddress = dfaList[i];\r\n      DFA dfa = DFA(dfaAddress);\r\n      addresses[i] = dfaAddress;\r\n      owners[i] = dfa.owner();\r\n      names[i] = dfa.name();\r\n      symbols[i] = dfa.symbol();\r\n      supplies[i] = dfa.totalSupply();\r\n    }\r\n    return (addresses, owners, names, symbols, supplies);\r\n  }\r\n\r\n  function getAllDfaAddresses() external view returns (address[] memory)\r\n  {\r\n    return dfaList;\r\n  }\r\n\r\n  function getBalances()\r\n  external\r\n  view\r\n  returns (address[] memory, uint[] memory)\r\n  {\r\n    address[] memory addresses = new address[](dfaList.length);\r\n    uint[] memory balances = new uint[](dfaList.length);\r\n    for (uint i = 0; i < dfaList.length; i++) {\r\n      address dfaAddress = dfaList[i];\r\n      DFA dfa = DFA(dfaAddress);\r\n      addresses[i] = dfaAddress;\r\n      balances[i] = dfa.balanceOf(msg.sender);\r\n    }\r\n    return (addresses, balances);\r\n  }\r\n\r\n  //  function getAllDfaTest() public view returns (DfaInfo[] memory) {\r\n  //    DfaInfo[] memory info = new DfaInfo[](dfaList.length);\r\n  //    for (uint i = 0; i < dfaList.length; i++) {\r\n  //      address dfaAddress = dfaList[i];\r\n  //      DFA dfa = DFA(dfaAddress);\r\n  //      info[i] = DfaInfo(\r\n  //        dfaAddress,\r\n  //        dfa.name(),\r\n  //        dfa.symbol(),\r\n  //        dfa.totalSupply()\r\n  //      );\r\n  //    }\r\n  //    return info;\r\n  //  }\r\n\r\n  //  function getAllRequests() public view returns (ExchangerRequestFullInfo[] memory) {\r\n  //    ExchangerRequestFullInfo[] requestList = address[](dfaList.length);\r\n  //    for (uint i = 0; i < dfaList.length; i++) {\r\n  //\r\n  //    }\r\n  //    return requestList;\r\n  //  }\r\n\r\n  //  function getAllDfaByUser(address user)\r\n  //    public\r\n  //    view\r\n  //    isAddressValid(user)\r\n  //    returns (address[])\r\n  //  {\r\n  //    address[] usersDfa = address[]();\r\n  //    for (uint i = 0; i < dfaList.length; i++) {\r\n  //      if (DFA(dfaList[i]).owner() == user) {\r\n  //        usersDfa.push(dfaList[i]);\r\n  //      }\r\n  //    }\r\n  //    return usersDfa;\r\n  //  }\r\n}",
  "sourcePath": "C:\\Users\\Vladislav\\Desktop\\Learning\\  4\\DFAService\\DFAContracts\\contracts\\Factory.sol",
  "compiler": {
    "name": "solc",
    "version": "0.8.11+commit.d7f03943.Emscripten.clang"
  },
  "schemaVersion": "3.4.4",
  "updatedAt": "2022-05-04T18:33:12.893Z",
  "networkType": "ethereum",
  "devdoc": {
    "kind": "dev",
    "methods": {},
    "version": 1
  },
  "userdoc": {
    "kind": "user",
    "methods": {},
    "version": 1
  }
}