{
  "contractName": "Factory",
  "abi": [
    {
      "inputs": [
        {
          "internalType": "uint256",
          "name": "initialSupply",
          "type": "uint256"
        },
        {
          "internalType": "string",
          "name": "name",
          "type": "string"
        },
        {
          "internalType": "string",
          "name": "symbol",
          "type": "string"
        }
      ],
      "name": "createDfa",
      "outputs": [
        {
          "internalType": "address",
          "name": "",
          "type": "address"
        }
      ],
      "stateMutability": "nonpayable",
      "type": "function"
    },
    {
      "inputs": [
        {
          "internalType": "address",
          "name": "dfaAddress",
          "type": "address"
        }
      ],
      "name": "getExchanger",
      "outputs": [
        {
          "internalType": "address",
          "name": "",
          "type": "address"
        }
      ],
      "stateMutability": "view",
      "type": "function",
      "constant": true
    },
    {
      "inputs": [],
      "name": "getAllDfa",
      "outputs": [
        {
          "internalType": "address[]",
          "name": "",
          "type": "address[]"
        },
        {
          "internalType": "address[]",
          "name": "",
          "type": "address[]"
        },
        {
          "internalType": "string[]",
          "name": "",
          "type": "string[]"
        },
        {
          "internalType": "string[]",
          "name": "",
          "type": "string[]"
        },
        {
          "internalType": "uint256[]",
          "name": "",
          "type": "uint256[]"
        }
      ],
      "stateMutability": "view",
      "type": "function",
      "constant": true
    },
    {
      "inputs": [],
      "name": "getAllDfaAddresses",
      "outputs": [
        {
          "internalType": "address[]",
          "name": "",
          "type": "address[]"
        }
      ],
      "stateMutability": "view",
      "type": "function",
      "constant": true
    },
    {
      "inputs": [],
      "name": "getBalances",
      "outputs": [
        {
          "internalType": "address[]",
          "name": "",
          "type": "address[]"
        },
        {
          "internalType": "uint256[]",
          "name": "",
          "type": "uint256[]"
        }
      ],
      "stateMutability": "view",
      "type": "function",
      "constant": true
    }
  ],
  "bytecode": "0x608060405234801561001057600080fd5b506156fa806100206000396000f3fe60806040523480156200001157600080fd5b50600436106200005d5760003560e01c8062113e08146200006257806310c1ca2b14620000855780632f1d7fa714620000bb5780635d07a60414620000f1578063b5f3ef5d1462000117575b600080fd5b6200006c62000139565b6040516200007c92919062000d4d565b60405180910390f35b620000a360048036038101906200009d919062000f2f565b62000358565b604051620000b2919062000fda565b60405180910390f35b620000d96004803603810190620000d3919062001028565b620004c6565b604051620000e8919062000fda565b60405180910390f35b620000fb620005a4565b6040516200010e959493929190620011bd565b60405180910390f35b6200012162000ac7565b6040516200013091906200123d565b60405180910390f35b6060806000808054905067ffffffffffffffff8111156200015f576200015e62000de8565b5b6040519080825280602002602001820160405280156200018e5781602001602082028036833780820191505090505b5090506000808054905067ffffffffffffffff811115620001b457620001b362000de8565b5b604051908082528060200260200182016040528015620001e35781602001602082028036833780820191505090505b50905060005b6000805490508110156200034b5760008082815481106200020f576200020e62001261565b5b9060005260206000200160009054906101000a900473ffffffffffffffffffffffffffffffffffffffff16905060008190508185848151811062000258576200025762001261565b5b602002602001019073ffffffffffffffffffffffffffffffffffffffff16908173ffffffffffffffffffffffffffffffffffffffff16815250508073ffffffffffffffffffffffffffffffffffffffff166370a08231336040518263ffffffff1660e01b8152600401620002cd919062000fda565b602060405180830381865afa158015620002eb573d6000803e3d6000fd5b505050506040513d601f19601f82011682018060405250810190620003119190620012a7565b84848151811062000327576200032662001261565b5b60200260200101818152505050508080620003429062001308565b915050620001e9565b5081819350935050509091565b600080848484336040516200036d9062000b57565b6200037c9493929190620013b9565b604051809103906000f08015801562000399573d6000803e3d6000fd5b509050600081604051620003ad9062000b65565b620003b9919062000fda565b604051809103906000f080158015620003d6573d6000803e3d6000fd5b50905080600160008473ffffffffffffffffffffffffffffffffffffffff1673ffffffffffffffffffffffffffffffffffffffff16815260200190815260200160002060006101000a81548173ffffffffffffffffffffffffffffffffffffffff021916908373ffffffffffffffffffffffffffffffffffffffff1602179055506000829080600181540180825580915050600190039060005260206000200160009091909190916101000a81548173ffffffffffffffffffffffffffffffffffffffff021916908373ffffffffffffffffffffffffffffffffffffffff16021790555081925050509392505050565b600081600073ffffffffffffffffffffffffffffffffffffffff168173ffffffffffffffffffffffffffffffffffffffff1614156200053c576040517f08c379a0000000000000000000000000000000000000000000000000000000008152600401620005339062001464565b60405180910390fd5b600160008473ffffffffffffffffffffffffffffffffffffffff1673ffffffffffffffffffffffffffffffffffffffff16815260200190815260200160002060009054906101000a900473ffffffffffffffffffffffffffffffffffffffff16915050919050565b60608060608060606000808054905067ffffffffffffffff811115620005cf57620005ce62000de8565b5b604051908082528060200260200182016040528015620005fe5781602001602082028036833780820191505090505b5090506000808054905067ffffffffffffffff81111562000624576200062362000de8565b5b604051908082528060200260200182016040528015620006535781602001602082028036833780820191505090505b5090506000808054905067ffffffffffffffff81111562000679576200067862000de8565b5b604051908082528060200260200182016040528015620006ae57816020015b6060815260200190600190039081620006985790505b5090506000808054905067ffffffffffffffff811115620006d457620006d362000de8565b5b6040519080825280602002602001820160405280156200070957816020015b6060815260200190600190039081620006f35790505b5090506000808054905067ffffffffffffffff8111156200072f576200072e62000de8565b5b6040519080825280602002602001820160405280156200075e5781602001602082028036833780820191505090505b50905060005b60008054905081101562000aab5760008082815481106200078a576200078962001261565b5b9060005260206000200160009054906101000a900473ffffffffffffffffffffffffffffffffffffffff169050600081905081888481518110620007d357620007d262001261565b5b602002602001019073ffffffffffffffffffffffffffffffffffffffff16908173ffffffffffffffffffffffffffffffffffffffff16815250508073ffffffffffffffffffffffffffffffffffffffff16638da5cb5b6040518163ffffffff1660e01b8152600401602060405180830381865afa15801562000859573d6000803e3d6000fd5b505050506040513d601f19601f820116820180604052508101906200087f91906200149d565b87848151811062000895576200089462001261565b5b602002602001019073ffffffffffffffffffffffffffffffffffffffff16908173ffffffffffffffffffffffffffffffffffffffff16815250508073ffffffffffffffffffffffffffffffffffffffff166306fdde036040518163ffffffff1660e01b8152600401600060405180830381865afa1580156200091b573d6000803e3d6000fd5b505050506040513d6000823e3d601f19601f820116820180604052508101906200094691906200154d565b8684815181106200095c576200095b62001261565b5b60200260200101819052508073ffffffffffffffffffffffffffffffffffffffff166395d89b416040518163ffffffff1660e01b8152600401600060405180830381865afa158015620009b3573d6000803e3d6000fd5b505050506040513d6000823e3d601f19601f82011682018060405250810190620009de91906200154d565b858481518110620009f457620009f362001261565b5b60200260200101819052508073ffffffffffffffffffffffffffffffffffffffff166318160ddd6040518163ffffffff1660e01b8152600401602060405180830381865afa15801562000a4b573d6000803e3d6000fd5b505050506040513d601f19601f8201168201806040525081019062000a719190620012a7565b84848151811062000a875762000a8662001261565b5b6020026020010181815250505050808062000aa29062001308565b91505062000764565b5084848484849950995099509950995050505050509091929394565b6060600080548060200260200160405190810160405280929190818152602001828054801562000b4d57602002820191906000526020600020905b8160009054906101000a900473ffffffffffffffffffffffffffffffffffffffff1673ffffffffffffffffffffffffffffffffffffffff168152602001906001019080831162000b02575b5050505050905090565b611fa1806200159f83390190565b612185806200354083390190565b600081519050919050565b600082825260208201905092915050565b6000819050602082019050919050565b600073ffffffffffffffffffffffffffffffffffffffff82169050919050565b600062000bcc8262000b9f565b9050919050565b62000bde8162000bbf565b82525050565b600062000bf2838362000bd3565b60208301905092915050565b6000602082019050919050565b600062000c188262000b73565b62000c24818562000b7e565b935062000c318362000b8f565b8060005b8381101562000c6857815162000c4c888262000be4565b975062000c598362000bfe565b92505060018101905062000c35565b5085935050505092915050565b600081519050919050565b600082825260208201905092915050565b6000819050602082019050919050565b6000819050919050565b62000cb68162000ca1565b82525050565b600062000cca838362000cab565b60208301905092915050565b6000602082019050919050565b600062000cf08262000c75565b62000cfc818562000c80565b935062000d098362000c91565b8060005b8381101562000d4057815162000d24888262000cbc565b975062000d318362000cd6565b92505060018101905062000d0d565b5085935050505092915050565b6000604082019050818103600083015262000d69818562000c0b565b9050818103602083015262000d7f818462000ce3565b90509392505050565b6000604051905090565b600080fd5b600080fd5b62000da78162000ca1565b811462000db357600080fd5b50565b60008135905062000dc78162000d9c565b92915050565b600080fd5b600080fd5b6000601f19601f8301169050919050565b7f4e487b7100000000000000000000000000000000000000000000000000000000600052604160045260246000fd5b62000e228262000dd7565b810181811067ffffffffffffffff8211171562000e445762000e4362000de8565b5b80604052505050565b600062000e5962000d88565b905062000e67828262000e17565b919050565b600067ffffffffffffffff82111562000e8a5762000e8962000de8565b5b62000e958262000dd7565b9050602081019050919050565b82818337600083830152505050565b600062000ec862000ec28462000e6c565b62000e4d565b90508281526020810184848401111562000ee75762000ee662000dd2565b5b62000ef484828562000ea2565b509392505050565b600082601f83011262000f145762000f1362000dcd565b5b813562000f2684826020860162000eb1565b91505092915050565b60008060006060848603121562000f4b5762000f4a62000d92565b5b600062000f5b8682870162000db6565b935050602084013567ffffffffffffffff81111562000f7f5762000f7e62000d97565b5b62000f8d8682870162000efc565b925050604084013567ffffffffffffffff81111562000fb15762000fb062000d97565b5b62000fbf8682870162000efc565b9150509250925092565b62000fd48162000bbf565b82525050565b600060208201905062000ff1600083018462000fc9565b92915050565b620010028162000bbf565b81146200100e57600080fd5b50565b600081359050620010228162000ff7565b92915050565b60006020828403121562001041576200104062000d92565b5b6000620010518482850162001011565b91505092915050565b600081519050919050565b600082825260208201905092915050565b6000819050602082019050919050565b600081519050919050565b600082825260208201905092915050565b60005b83811015620010c2578082015181840152602081019050620010a5565b83811115620010d2576000848401525b50505050565b6000620010e58262001086565b620010f1818562001091565b935062001103818560208601620010a2565b6200110e8162000dd7565b840191505092915050565b6000620011278383620010d8565b905092915050565b6000602082019050919050565b600062001149826200105a565b62001155818562001065565b935083602082028501620011698562001076565b8060005b85811015620011ab578484038952815162001189858262001119565b945062001196836200112f565b925060208a019950506001810190506200116d565b50829750879550505050505092915050565b600060a0820190508181036000830152620011d9818862000c0b565b90508181036020830152620011ef818762000c0b565b905081810360408301526200120581866200113c565b905081810360608301526200121b81856200113c565b9050818103608083015262001231818462000ce3565b90509695505050505050565b6000602082019050818103600083015262001259818462000c0b565b905092915050565b7f4e487b7100000000000000000000000000000000000000000000000000000000600052603260045260246000fd5b600081519050620012a18162000d9c565b92915050565b600060208284031215620012c057620012bf62000d92565b5b6000620012d08482850162001290565b91505092915050565b7f4e487b7100000000000000000000000000000000000000000000000000000000600052601160045260246000fd5b6000620013158262000ca1565b91507fffffffffffffffffffffffffffffffffffffffffffffffffffffffffffffffff8214156200134b576200134a620012d9565b5b600182019050919050565b620013618162000ca1565b82525050565b600082825260208201905092915050565b6000620013858262001086565b62001391818562001367565b9350620013a3818560208601620010a2565b620013ae8162000dd7565b840191505092915050565b6000608082019050620013d0600083018762001356565b8181036020830152620013e4818662001378565b90508181036040830152620013fa818562001378565b90506200140b606083018462000fc9565b95945050505050565b7f496e76616c696420746f6b656e20616464726573730000000000000000000000600082015250565b60006200144c60158362001367565b9150620014598262001414565b602082019050919050565b600060208201905081810360008301526200147f816200143d565b9050919050565b600081519050620014978162000ff7565b92915050565b600060208284031215620014b657620014b562000d92565b5b6000620014c68482850162001486565b91505092915050565b6000620014e6620014e08462000e6c565b62000e4d565b90508281526020810184848401111562001505576200150462000dd2565b5b62001512848285620010a2565b509392505050565b600082601f83011262001532576200153162000dcd565b5b815162001544848260208601620014cf565b91505092915050565b60006020828403121562001566576200156562000d92565b5b600082015167ffffffffffffffff81111562001587576200158662000d97565b5b62001595848285016200151a565b9150509291505056fe60806040523480156200001157600080fd5b5060405162001fa138038062001fa18339818101604052810190620000379190620005af565b8282816003908051906020019062000051929190620002c2565b5080600490805190602001906200006a929190620002c2565b50505080600073ffffffffffffffffffffffffffffffffffffffff168173ffffffffffffffffffffffffffffffffffffffff161415620000e1576040517f08c379a0000000000000000000000000000000000000000000000000000000008152600401620000d890620006c0565b60405180910390fd5b620000f382866200013f60201b60201c565b81600560006101000a81548173ffffffffffffffffffffffffffffffffffffffff021916908373ffffffffffffffffffffffffffffffffffffffff160217905550505050505062000873565b600073ffffffffffffffffffffffffffffffffffffffff168273ffffffffffffffffffffffffffffffffffffffff161415620001b2576040517f08c379a0000000000000000000000000000000000000000000000000000000008152600401620001a99062000732565b60405180910390fd5b620001c660008383620002b860201b60201c565b8060026000828254620001da919062000783565b92505081905550806000808473ffffffffffffffffffffffffffffffffffffffff1673ffffffffffffffffffffffffffffffffffffffff168152602001908152602001600020600082825462000231919062000783565b925050819055508173ffffffffffffffffffffffffffffffffffffffff16600073ffffffffffffffffffffffffffffffffffffffff167fddf252ad1be2c89b69c2b068fc378daa952ba7f163c4a11628f55a4df523b3ef83604051620002989190620007f1565b60405180910390a3620002b460008383620002bd60201b60201c565b5050565b505050565b505050565b828054620002d0906200083d565b90600052602060002090601f016020900481019282620002f4576000855562000340565b82601f106200030f57805160ff191683800117855562000340565b8280016001018555821562000340579182015b828111156200033f57825182559160200191906001019062000322565b5b5090506200034f919062000353565b5090565b5b808211156200036e57600081600090555060010162000354565b5090565b6000604051905090565b600080fd5b600080fd5b6000819050919050565b6200039b8162000386565b8114620003a757600080fd5b50565b600081519050620003bb8162000390565b92915050565b600080fd5b600080fd5b6000601f19601f8301169050919050565b7f4e487b7100000000000000000000000000000000000000000000000000000000600052604160045260246000fd5b6200041682620003cb565b810181811067ffffffffffffffff82111715620004385762000437620003dc565b5b80604052505050565b60006200044d62000372565b90506200045b82826200040b565b919050565b600067ffffffffffffffff8211156200047e576200047d620003dc565b5b6200048982620003cb565b9050602081019050919050565b60005b83811015620004b657808201518184015260208101905062000499565b83811115620004c6576000848401525b50505050565b6000620004e3620004dd8462000460565b62000441565b905082815260208101848484011115620005025762000501620003c6565b5b6200050f84828562000496565b509392505050565b600082601f8301126200052f576200052e620003c1565b5b815162000541848260208601620004cc565b91505092915050565b600073ffffffffffffffffffffffffffffffffffffffff82169050919050565b600062000577826200054a565b9050919050565b62000589816200056a565b81146200059557600080fd5b50565b600081519050620005a9816200057e565b92915050565b60008060008060808587031215620005cc57620005cb6200037c565b5b6000620005dc87828801620003aa565b945050602085015167ffffffffffffffff8111156200060057620005ff62000381565b5b6200060e8782880162000517565b935050604085015167ffffffffffffffff81111562000632576200063162000381565b5b620006408782880162000517565b9250506060620006538782880162000598565b91505092959194509250565b600082825260208201905092915050565b7f496e76616c696420746f6b656e20616464726573730000000000000000000000600082015250565b6000620006a86015836200065f565b9150620006b58262000670565b602082019050919050565b60006020820190508181036000830152620006db8162000699565b9050919050565b7f45524332303a206d696e7420746f20746865207a65726f206164647265737300600082015250565b60006200071a601f836200065f565b91506200072782620006e2565b602082019050919050565b600060208201905081810360008301526200074d816200070b565b9050919050565b7f4e487b7100000000000000000000000000000000000000000000000000000000600052601160045260246000fd5b6000620007908262000386565b91506200079d8362000386565b9250827fffffffffffffffffffffffffffffffffffffffffffffffffffffffffffffffff03821115620007d557620007d462000754565b5b828201905092915050565b620007eb8162000386565b82525050565b6000602082019050620008086000830184620007e0565b92915050565b7f4e487b7100000000000000000000000000000000000000000000000000000000600052602260045260246000fd5b600060028204905060018216806200085657607f821691505b602082108114156200086d576200086c6200080e565b5b50919050565b61171e80620008836000396000f3fe608060405234801561001057600080fd5b50600436106100cf5760003560e01c806370a082311161008c578063a0712d6811610066578063a0712d681461022a578063a457c2d714610246578063a9059cbb14610276578063dd62ed3e146102a6576100cf565b806370a08231146101be5780638da5cb5b146101ee57806395d89b411461020c576100cf565b806306fdde03146100d4578063095ea7b3146100f257806318160ddd1461012257806323b872dd14610140578063313ce56714610170578063395093511461018e575b600080fd5b6100dc6102d6565b6040516100e99190610ea9565b60405180910390f35b61010c60048036038101906101079190610f64565b610368565b6040516101199190610fbf565b60405180910390f35b61012a61038b565b6040516101379190610fe9565b60405180910390f35b61015a60048036038101906101559190611004565b610395565b6040516101679190610fbf565b60405180910390f35b6101786103c4565b6040516101859190611073565b60405180910390f35b6101a860048036038101906101a39190610f64565b6103c9565b6040516101b59190610fbf565b60405180910390f35b6101d860048036038101906101d3919061108e565b610473565b6040516101e59190610fe9565b60405180910390f35b6101f66104bb565b60405161020391906110ca565b60405180910390f35b6102146104e1565b6040516102219190610ea9565b60405180910390f35b610244600480360381019061023f91906110e5565b610573565b005b610260600480360381019061025b9190610f64565b610632565b60405161026d9190610fbf565b60405180910390f35b610290600480360381019061028b9190610f64565b61071c565b60405161029d9190610fbf565b60405180910390f35b6102c060048036038101906102bb9190611112565b61073f565b6040516102cd9190610fe9565b60405180910390f35b6060600380546102e590611181565b80601f016020809104026020016040519081016040528092919081815260200182805461031190611181565b801561035e5780601f106103335761010080835404028352916020019161035e565b820191906000526020600020905b81548152906001019060200180831161034157829003601f168201915b5050505050905090565b6000806103736107c6565b90506103808185856107ce565b600191505092915050565b6000600254905090565b6000806103a06107c6565b90506103ad858285610999565b6103b8858585610a25565b60019150509392505050565b600090565b6000806103d46107c6565b9050610468818585600160008673ffffffffffffffffffffffffffffffffffffffff1673ffffffffffffffffffffffffffffffffffffffff16815260200190815260200160002060008973ffffffffffffffffffffffffffffffffffffffff1673ffffffffffffffffffffffffffffffffffffffff1681526020019081526020016000205461046391906111e2565b6107ce565b600191505092915050565b60008060008373ffffffffffffffffffffffffffffffffffffffff1673ffffffffffffffffffffffffffffffffffffffff168152602001908152602001600020549050919050565b600560009054906101000a900473ffffffffffffffffffffffffffffffffffffffff1681565b6060600480546104f090611181565b80601f016020809104026020016040519081016040528092919081815260200182805461051c90611181565b80156105695780601f1061053e57610100808354040283529160200191610569565b820191906000526020600020905b81548152906001019060200180831161054c57829003601f168201915b5050505050905090565b600560009054906101000a900473ffffffffffffffffffffffffffffffffffffffff1673ffffffffffffffffffffffffffffffffffffffff163373ffffffffffffffffffffffffffffffffffffffff1614610603576040517f08c379a00000000000000000000000000000000000000000000000000000000081526004016105fa90611284565b60405180910390fd5b61062f600560009054906101000a900473ffffffffffffffffffffffffffffffffffffffff1682610ca6565b50565b60008061063d6107c6565b90506000600160008373ffffffffffffffffffffffffffffffffffffffff1673ffffffffffffffffffffffffffffffffffffffff16815260200190815260200160002060008673ffffffffffffffffffffffffffffffffffffffff1673ffffffffffffffffffffffffffffffffffffffff16815260200190815260200160002054905083811015610703576040517f08c379a00000000000000000000000000000000000000000000000000000000081526004016106fa90611316565b60405180910390fd5b61071082868684036107ce565b60019250505092915050565b6000806107276107c6565b9050610734818585610a25565b600191505092915050565b6000600160008473ffffffffffffffffffffffffffffffffffffffff1673ffffffffffffffffffffffffffffffffffffffff16815260200190815260200160002060008373ffffffffffffffffffffffffffffffffffffffff1673ffffffffffffffffffffffffffffffffffffffff16815260200190815260200160002054905092915050565b600033905090565b600073ffffffffffffffffffffffffffffffffffffffff168373ffffffffffffffffffffffffffffffffffffffff16141561083e576040517f08c379a0000000000000000000000000000000000000000000000000000000008152600401610835906113a8565b60405180910390fd5b600073ffffffffffffffffffffffffffffffffffffffff168273ffffffffffffffffffffffffffffffffffffffff1614156108ae576040517f08c379a00000000000000000000000000000000000000000000000000000000081526004016108a59061143a565b60405180910390fd5b80600160008573ffffffffffffffffffffffffffffffffffffffff1673ffffffffffffffffffffffffffffffffffffffff16815260200190815260200160002060008473ffffffffffffffffffffffffffffffffffffffff1673ffffffffffffffffffffffffffffffffffffffff168152602001908152602001600020819055508173ffffffffffffffffffffffffffffffffffffffff168373ffffffffffffffffffffffffffffffffffffffff167f8c5be1e5ebec7d5bd14f71427d1e84f3dd0314c0f7b2291e5b200ac8c7c3b9258360405161098c9190610fe9565b60405180910390a3505050565b60006109a5848461073f565b90507fffffffffffffffffffffffffffffffffffffffffffffffffffffffffffffffff8114610a1f5781811015610a11576040517f08c379a0000000000000000000000000000000000000000000000000000000008152600401610a08906114a6565b60405180910390fd5b610a1e84848484036107ce565b5b50505050565b600073ffffffffffffffffffffffffffffffffffffffff168373ffffffffffffffffffffffffffffffffffffffff161415610a95576040517f08c379a0000000000000000000000000000000000000000000000000000000008152600401610a8c90611538565b60405180910390fd5b600073ffffffffffffffffffffffffffffffffffffffff168273ffffffffffffffffffffffffffffffffffffffff161415610b05576040517f08c379a0000000000000000000000000000000000000000000000000000000008152600401610afc906115ca565b60405180910390fd5b610b10838383610e06565b60008060008573ffffffffffffffffffffffffffffffffffffffff1673ffffffffffffffffffffffffffffffffffffffff16815260200190815260200160002054905081811015610b96576040517f08c379a0000000000000000000000000000000000000000000000000000000008152600401610b8d9061165c565b60405180910390fd5b8181036000808673ffffffffffffffffffffffffffffffffffffffff1673ffffffffffffffffffffffffffffffffffffffff16815260200190815260200160002081905550816000808573ffffffffffffffffffffffffffffffffffffffff1673ffffffffffffffffffffffffffffffffffffffff1681526020019081526020016000206000828254610c2991906111e2565b925050819055508273ffffffffffffffffffffffffffffffffffffffff168473ffffffffffffffffffffffffffffffffffffffff167fddf252ad1be2c89b69c2b068fc378daa952ba7f163c4a11628f55a4df523b3ef84604051610c8d9190610fe9565b60405180910390a3610ca0848484610e0b565b50505050565b600073ffffffffffffffffffffffffffffffffffffffff168273ffffffffffffffffffffffffffffffffffffffff161415610d16576040517f08c379a0000000000000000000000000000000000000000000000000000000008152600401610d0d906116c8565b60405180910390fd5b610d2260008383610e06565b8060026000828254610d3491906111e2565b92505081905550806000808473ffffffffffffffffffffffffffffffffffffffff1673ffffffffffffffffffffffffffffffffffffffff1681526020019081526020016000206000828254610d8991906111e2565b925050819055508173ffffffffffffffffffffffffffffffffffffffff16600073ffffffffffffffffffffffffffffffffffffffff167fddf252ad1be2c89b69c2b068fc378daa952ba7f163c4a11628f55a4df523b3ef83604051610dee9190610fe9565b60405180910390a3610e0260008383610e0b565b5050565b505050565b505050565b600081519050919050565b600082825260208201905092915050565b60005b83811015610e4a578082015181840152602081019050610e2f565b83811115610e59576000848401525b50505050565b6000601f19601f8301169050919050565b6000610e7b82610e10565b610e858185610e1b565b9350610e95818560208601610e2c565b610e9e81610e5f565b840191505092915050565b60006020820190508181036000830152610ec38184610e70565b905092915050565b600080fd5b600073ffffffffffffffffffffffffffffffffffffffff82169050919050565b6000610efb82610ed0565b9050919050565b610f0b81610ef0565b8114610f1657600080fd5b50565b600081359050610f2881610f02565b92915050565b6000819050919050565b610f4181610f2e565b8114610f4c57600080fd5b50565b600081359050610f5e81610f38565b92915050565b60008060408385031215610f7b57610f7a610ecb565b5b6000610f8985828601610f19565b9250506020610f9a85828601610f4f565b9150509250929050565b60008115159050919050565b610fb981610fa4565b82525050565b6000602082019050610fd46000830184610fb0565b92915050565b610fe381610f2e565b82525050565b6000602082019050610ffe6000830184610fda565b92915050565b60008060006060848603121561101d5761101c610ecb565b5b600061102b86828701610f19565b935050602061103c86828701610f19565b925050604061104d86828701610f4f565b9150509250925092565b600060ff82169050919050565b61106d81611057565b82525050565b60006020820190506110886000830184611064565b92915050565b6000602082840312156110a4576110a3610ecb565b5b60006110b284828501610f19565b91505092915050565b6110c481610ef0565b82525050565b60006020820190506110df60008301846110bb565b92915050565b6000602082840312156110fb576110fa610ecb565b5b600061110984828501610f4f565b91505092915050565b6000806040838503121561112957611128610ecb565b5b600061113785828601610f19565b925050602061114885828601610f19565b9150509250929050565b7f4e487b7100000000000000000000000000000000000000000000000000000000600052602260045260246000fd5b6000600282049050600182168061119957607f821691505b602082108114156111ad576111ac611152565b5b50919050565b7f4e487b7100000000000000000000000000000000000000000000000000000000600052601160045260246000fd5b60006111ed82610f2e565b91506111f883610f2e565b9250827fffffffffffffffffffffffffffffffffffffffffffffffffffffffffffffffff0382111561122d5761122c6111b3565b5b828201905092915050565b7f43616c6c6572206973206e6f74206f776e657200000000000000000000000000600082015250565b600061126e601383610e1b565b915061127982611238565b602082019050919050565b6000602082019050818103600083015261129d81611261565b9050919050565b7f45524332303a2064656372656173656420616c6c6f77616e63652062656c6f7760008201527f207a65726f000000000000000000000000000000000000000000000000000000602082015250565b6000611300602583610e1b565b915061130b826112a4565b604082019050919050565b6000602082019050818103600083015261132f816112f3565b9050919050565b7f45524332303a20617070726f76652066726f6d20746865207a65726f2061646460008201527f7265737300000000000000000000000000000000000000000000000000000000602082015250565b6000611392602483610e1b565b915061139d82611336565b604082019050919050565b600060208201905081810360008301526113c181611385565b9050919050565b7f45524332303a20617070726f766520746f20746865207a65726f20616464726560008201527f7373000000000000000000000000000000000000000000000000000000000000602082015250565b6000611424602283610e1b565b915061142f826113c8565b604082019050919050565b6000602082019050818103600083015261145381611417565b9050919050565b7f45524332303a20696e73756666696369656e7420616c6c6f77616e6365000000600082015250565b6000611490601d83610e1b565b915061149b8261145a565b602082019050919050565b600060208201905081810360008301526114bf81611483565b9050919050565b7f45524332303a207472616e736665722066726f6d20746865207a65726f20616460008201527f6472657373000000000000000000000000000000000000000000000000000000602082015250565b6000611522602583610e1b565b915061152d826114c6565b604082019050919050565b6000602082019050818103600083015261155181611515565b9050919050565b7f45524332303a207472616e7366657220746f20746865207a65726f206164647260008201527f6573730000000000000000000000000000000000000000000000000000000000602082015250565b60006115b4602383610e1b565b91506115bf82611558565b604082019050919050565b600060208201905081810360008301526115e3816115a7565b9050919050565b7f45524332303a207472616e7366657220616d6f756e742065786365656473206260008201527f616c616e63650000000000000000000000000000000000000000000000000000602082015250565b6000611646602683610e1b565b9150611651826115ea565b604082019050919050565b6000602082019050818103600083015261167581611639565b9050919050565b7f45524332303a206d696e7420746f20746865207a65726f206164647265737300600082015250565b60006116b2601f83610e1b565b91506116bd8261167c565b602082019050919050565b600060208201905081810360008301526116e1816116a5565b905091905056fea2646970667358221220fd468f260e50d12ac0a7ae51627436e785af5aaebd2aa852735083b55b21913564736f6c634300080b003360806040523480156200001157600080fd5b50604051620021853803806200218583398181016040528101906200003791906200019e565b80600073ffffffffffffffffffffffffffffffffffffffff168173ffffffffffffffffffffffffffffffffffffffff161415620000ab576040517f08c379a0000000000000000000000000000000000000000000000000000000008152600401620000a29062000231565b60405180910390fd5b816000806101000a81548173ffffffffffffffffffffffffffffffffffffffff021916908373ffffffffffffffffffffffffffffffffffffffff16021790555033600160006101000a81548173ffffffffffffffffffffffffffffffffffffffff021916908373ffffffffffffffffffffffffffffffffffffffff160217905550505062000253565b600080fd5b600073ffffffffffffffffffffffffffffffffffffffff82169050919050565b6000620001668262000139565b9050919050565b620001788162000159565b81146200018457600080fd5b50565b60008151905062000198816200016d565b92915050565b600060208284031215620001b757620001b662000134565b5b6000620001c78482850162000187565b91505092915050565b600082825260208201905092915050565b7f496e76616c696420616464726573730000000000000000000000000000000000600082015250565b600062000219600f83620001d0565b91506200022682620001e1565b602082019050919050565b600060208201905081810360008301526200024c816200020a565b9050919050565b611f2280620002636000396000f3fe608060405234801561001057600080fd5b506004361061007d5760003560e01c8063873deb041161005b578063873deb04146100ea5780638c75d7b414610108578063966dae0e1461013a5780639ecebe2a146101585761007d565b80630c884bde1461008257806354dbc21e146100b25780635f1b9c28146100ce575b600080fd5b61009c60048036038101906100979190611530565b61018a565b6040516100a99190611592565b60405180910390f35b6100cc60048036038101906100c79190611530565b610402565b005b6100e860048036038101906100e391906116b6565b610c3f565b005b6100f261108a565b6040516100ff9190611592565b60405180910390f35b610122600480360381019061011d91906116e3565b6110ae565b6040516101319392919061188c565b60405180910390f35b610142611400565b60405161014f9190611592565b60405180910390f35b610172600480360381019061016d91906118d8565b611426565b60405161018193929190611927565b60405180910390f35b60008282600082116101d1576040517f08c379a00000000000000000000000000000000000000000000000000000000081526004016101c8906119bb565b60405180910390fd5b60008111610214576040517f08c379a000000000000000000000000000000000000000000000000000000000815260040161020b906119bb565b60405180910390fd5b85600073ffffffffffffffffffffffffffffffffffffffff168173ffffffffffffffffffffffffffffffffffffffff161415610285576040517f08c379a000000000000000000000000000000000000000000000000000000000815260040161027c90611a27565b60405180910390fd5b6000600260008973ffffffffffffffffffffffffffffffffffffffff1673ffffffffffffffffffffffffffffffffffffffff168152602001908152602001600020805480602002602001604051908101604052809291908181526020016000905b8282101561038257838290600052602060002090600302016040518060600160405290816000820160009054906101000a900473ffffffffffffffffffffffffffffffffffffffff1673ffffffffffffffffffffffffffffffffffffffff1673ffffffffffffffffffffffffffffffffffffffff16815260200160018201548152602001600282015481525050815260200190600101906102e6565b50505050905060005b81518110156103f15760008282815181106103a9576103a8611a47565b5b602002602001015190508881602001511480156103c95750878160400151145b156103dd57806000015196505050506103f8565b5080806103e990611aa5565b91505061038b565b5060009450505b5050509392505050565b808260008211610447576040517f08c379a000000000000000000000000000000000000000000000000000000000815260040161043e906119bb565b60405180910390fd5b6000811161048a576040517f08c379a0000000000000000000000000000000000000000000000000000000008152600401610481906119bb565b60405180910390fd5b84600073ffffffffffffffffffffffffffffffffffffffff168173ffffffffffffffffffffffffffffffffffffffff1614156104fb576040517f08c379a00000000000000000000000000000000000000000000000000000000081526004016104f290611a27565b60405180910390fd5b85600073ffffffffffffffffffffffffffffffffffffffff16600160009054906101000a900473ffffffffffffffffffffffffffffffffffffffff1673ffffffffffffffffffffffffffffffffffffffff16632f1d7fa7836040518263ffffffff1660e01b815260040161056f9190611592565b602060405180830381865afa15801561058c573d6000803e3d6000fd5b505050506040513d601f19601f820116820180604052508101906105b09190611b03565b73ffffffffffffffffffffffffffffffffffffffff161415610607576040517f08c379a00000000000000000000000000000000000000000000000000000000081526004016105fe90611b7c565b60405180910390fd5b8460008054906101000a900473ffffffffffffffffffffffffffffffffffffffff16818173ffffffffffffffffffffffffffffffffffffffff166370a08231336040518263ffffffff1660e01b81526004016106639190611592565b602060405180830381865afa158015610680573d6000803e3d6000fd5b505050506040513d601f19601f820116820180604052508101906106a49190611bb1565b10156106e5576040517f08c379a00000000000000000000000000000000000000000000000000000000081526004016106dc90611c2a565b60405180910390fd5b818173ffffffffffffffffffffffffffffffffffffffff1663dd62ed3e33306040518363ffffffff1660e01b8152600401610721929190611c4a565b602060405180830381865afa15801561073e573d6000803e3d6000fd5b505050506040513d601f19601f820116820180604052508101906107629190611bb1565b10156107a3576040517f08c379a000000000000000000000000000000000000000000000000000000000815260040161079a90611cbf565b60405180910390fd5b6000600160009054906101000a900473ffffffffffffffffffffffffffffffffffffffff1673ffffffffffffffffffffffffffffffffffffffff16632f1d7fa78b6040518263ffffffff1660e01b81526004016108009190611592565b602060405180830381865afa15801561081d573d6000803e3d6000fd5b505050506040513d601f19601f820116820180604052508101906108419190611b03565b9050600081905060008054906101000a900473ffffffffffffffffffffffffffffffffffffffff1673ffffffffffffffffffffffffffffffffffffffff166323b872dd33308c6040518463ffffffff1660e01b81526004016108a593929190611cdf565b6020604051808303816000875af11580156108c4573d6000803e3d6000fd5b505050506040513d601f19601f820116820180604052508101906108e89190611d4e565b5060008173ffffffffffffffffffffffffffffffffffffffff16630c884bde60008054906101000a900473ffffffffffffffffffffffffffffffffffffffff168c8e6040518463ffffffff1660e01b815260040161094893929190611927565b602060405180830381865afa158015610965573d6000803e3d6000fd5b505050506040513d601f19601f820116820180604052508101906109899190611b03565b9050600073ffffffffffffffffffffffffffffffffffffffff168173ffffffffffffffffffffffffffffffffffffffff1614610b3a5760008054906101000a900473ffffffffffffffffffffffffffffffffffffffff1673ffffffffffffffffffffffffffffffffffffffff1663a9059cbb828c6040518363ffffffff1660e01b8152600401610a1a929190611d7b565b6020604051808303816000875af1158015610a39573d6000803e3d6000fd5b505050506040513d601f19601f82011682018060405250810190610a5d9190611d4e565b508173ffffffffffffffffffffffffffffffffffffffff16635f1b9c2860405180608001604052803373ffffffffffffffffffffffffffffffffffffffff16815260200160008054906101000a900473ffffffffffffffffffffffffffffffffffffffff1673ffffffffffffffffffffffffffffffffffffffff1681526020018d81526020018e8152506040518263ffffffff1660e01b8152600401610b039190611df9565b600060405180830381600087803b158015610b1d57600080fd5b505af1158015610b31573d6000803e3d6000fd5b50505050610c31565b600260008d73ffffffffffffffffffffffffffffffffffffffff1673ffffffffffffffffffffffffffffffffffffffff16815260200190815260200160002060405180606001604052803373ffffffffffffffffffffffffffffffffffffffff1681526020018d81526020018c815250908060018154018082558091505060019003906000526020600020906003020160009091909190915060008201518160000160006101000a81548173ffffffffffffffffffffffffffffffffffffffff021916908373ffffffffffffffffffffffffffffffffffffffff160217905550602082015181600101556040820151816002015550505b505050505050505050505050565b8060400151816060015160008211610c8c576040517f08c379a0000000000000000000000000000000000000000000000000000000008152600401610c83906119bb565b60405180910390fd5b60008111610ccf576040517f08c379a0000000000000000000000000000000000000000000000000000000008152600401610cc6906119bb565b60405180910390fd5b8260200151600073ffffffffffffffffffffffffffffffffffffffff168173ffffffffffffffffffffffffffffffffffffffff161415610d44576040517f08c379a0000000000000000000000000000000000000000000000000000000008152600401610d3b90611a27565b60405180910390fd5b83602001513373ffffffffffffffffffffffffffffffffffffffff16600160009054906101000a900473ffffffffffffffffffffffffffffffffffffffff1673ffffffffffffffffffffffffffffffffffffffff16632f1d7fa7836040518263ffffffff1660e01b8152600401610dbb9190611592565b602060405180830381865afa158015610dd8573d6000803e3d6000fd5b505050506040513d601f19601f82011682018060405250810190610dfc9190611b03565b73ffffffffffffffffffffffffffffffffffffffff1614610e52576040517f08c379a0000000000000000000000000000000000000000000000000000000008152600401610e4990611e60565b60405180910390fd5b8460000151600073ffffffffffffffffffffffffffffffffffffffff168173ffffffffffffffffffffffffffffffffffffffff161415610ec7576040517f08c379a0000000000000000000000000000000000000000000000000000000008152600401610ebe90611a27565b60405180910390fd5b600060026000886020015173ffffffffffffffffffffffffffffffffffffffff1673ffffffffffffffffffffffffffffffffffffffff16815260200190815260200160002090506000805b828054905081101561103f576000838281548110610f3357610f32611a47565b5b9060005260206000209060030201905089604001518160010154148015610f61575089606001518160020154145b1561102b57600081600101819055506000816002018190555060008054906101000a900473ffffffffffffffffffffffffffffffffffffffff1673ffffffffffffffffffffffffffffffffffffffff1663a9059cbb8b600001518c606001516040518363ffffffff1660e01b8152600401610fdd929190611d7b565b6020604051808303816000875af1158015610ffc573d6000803e3d6000fd5b505050506040513d601f19601f820116820180604052508101906110209190611d4e565b50600192505061103f565b50808061103790611aa5565b915050610f12565b5080611080576040517f08c379a000000000000000000000000000000000000000000000000000000000815260040161107790611ecc565b60405180910390fd5b5050505050505050565b60008054906101000a900473ffffffffffffffffffffffffffffffffffffffff1681565b606080606083600073ffffffffffffffffffffffffffffffffffffffff168173ffffffffffffffffffffffffffffffffffffffff161415611124576040517f08c379a000000000000000000000000000000000000000000000000000000000815260040161111b90611a27565b60405180910390fd5b6000600260008773ffffffffffffffffffffffffffffffffffffffff1673ffffffffffffffffffffffffffffffffffffffff168152602001908152602001600020805480602002602001604051908101604052809291908181526020016000905b8282101561122157838290600052602060002090600302016040518060600160405290816000820160009054906101000a900473ffffffffffffffffffffffffffffffffffffffff1673ffffffffffffffffffffffffffffffffffffffff1673ffffffffffffffffffffffffffffffffffffffff1681526020016001820154815260200160028201548152505081526020019060010190611185565b5050505090506000815167ffffffffffffffff811115611244576112436115c3565b5b6040519080825280602002602001820160405280156112725781602001602082028036833780820191505090505b5090506000825167ffffffffffffffff811115611292576112916115c3565b5b6040519080825280602002602001820160405280156112c05781602001602082028036833780820191505090505b5090506000835167ffffffffffffffff8111156112e0576112df6115c3565b5b60405190808252806020026020018201604052801561130e5781602001602082028036833780820191505090505b50905060005b84518110156113ea57600085828151811061133257611331611a47565b5b60200260200101519050806000015185838151811061135457611353611a47565b5b602002602001019073ffffffffffffffffffffffffffffffffffffffff16908173ffffffffffffffffffffffffffffffffffffffff168152505080602001518483815181106113a6576113a5611a47565b5b60200260200101818152505080604001518383815181106113ca576113c9611a47565b5b6020026020010181815250505080806113e290611aa5565b915050611314565b5082828297509750975050505050509193909250565b600160009054906101000a900473ffffffffffffffffffffffffffffffffffffffff1681565b6002602052816000526040600020818154811061144257600080fd5b9060005260206000209060030201600091509150508060000160009054906101000a900473ffffffffffffffffffffffffffffffffffffffff16908060010154908060020154905083565b6000604051905090565b600080fd5b600073ffffffffffffffffffffffffffffffffffffffff82169050919050565b60006114c78261149c565b9050919050565b6114d7816114bc565b81146114e257600080fd5b50565b6000813590506114f4816114ce565b92915050565b6000819050919050565b61150d816114fa565b811461151857600080fd5b50565b60008135905061152a81611504565b92915050565b60008060006060848603121561154957611548611497565b5b6000611557868287016114e5565b93505060206115688682870161151b565b92505060406115798682870161151b565b9150509250925092565b61158c816114bc565b82525050565b60006020820190506115a76000830184611583565b92915050565b600080fd5b6000601f19601f8301169050919050565b7f4e487b7100000000000000000000000000000000000000000000000000000000600052604160045260246000fd5b6115fb826115b2565b810181811067ffffffffffffffff8211171561161a576116196115c3565b5b80604052505050565b600061162d61148d565b905061163982826115f2565b919050565b600060808284031215611654576116536115ad565b5b61165e6080611623565b9050600061166e848285016114e5565b6000830152506020611682848285016114e5565b60208301525060406116968482850161151b565b60408301525060606116aa8482850161151b565b60608301525092915050565b6000608082840312156116cc576116cb611497565b5b60006116da8482850161163e565b91505092915050565b6000602082840312156116f9576116f8611497565b5b6000611707848285016114e5565b91505092915050565b600081519050919050565b600082825260208201905092915050565b6000819050602082019050919050565b611745816114bc565b82525050565b6000611757838361173c565b60208301905092915050565b6000602082019050919050565b600061177b82611710565b611785818561171b565b93506117908361172c565b8060005b838110156117c15781516117a8888261174b565b97506117b383611763565b925050600181019050611794565b5085935050505092915050565b600081519050919050565b600082825260208201905092915050565b6000819050602082019050919050565b611803816114fa565b82525050565b600061181583836117fa565b60208301905092915050565b6000602082019050919050565b6000611839826117ce565b61184381856117d9565b935061184e836117ea565b8060005b8381101561187f5781516118668882611809565b975061187183611821565b925050600181019050611852565b5085935050505092915050565b600060608201905081810360008301526118a68186611770565b905081810360208301526118ba818561182e565b905081810360408301526118ce818461182e565b9050949350505050565b600080604083850312156118ef576118ee611497565b5b60006118fd858286016114e5565b925050602061190e8582860161151b565b9150509250929050565b611921816114fa565b82525050565b600060608201905061193c6000830186611583565b6119496020830185611918565b6119566040830184611918565b949350505050565b600082825260208201905092915050565b7f4e756d62657220697320657175616c20746f207a65726f000000000000000000600082015250565b60006119a560178361195e565b91506119b08261196f565b602082019050919050565b600060208201905081810360008301526119d481611998565b9050919050565b7f496e76616c696420616464726573730000000000000000000000000000000000600082015250565b6000611a11600f8361195e565b9150611a1c826119db565b602082019050919050565b60006020820190508181036000830152611a4081611a04565b9050919050565b7f4e487b7100000000000000000000000000000000000000000000000000000000600052603260045260246000fd5b7f4e487b7100000000000000000000000000000000000000000000000000000000600052601160045260246000fd5b6000611ab0826114fa565b91507fffffffffffffffffffffffffffffffffffffffffffffffffffffffffffffffff821415611ae357611ae2611a76565b5b600182019050919050565b600081519050611afd816114ce565b92915050565b600060208284031215611b1957611b18611497565b5b6000611b2784828501611aee565b91505092915050565b7f45786368616e67657220666f7220646661206e6f7420666f756e640000000000600082015250565b6000611b66601b8361195e565b9150611b7182611b30565b602082019050919050565b60006020820190508181036000830152611b9581611b59565b9050919050565b600081519050611bab81611504565b92915050565b600060208284031215611bc757611bc6611497565b5b6000611bd584828501611b9c565b91505092915050565b7f53656e64657220646f6573206e6f74206861766520656e6f7567682064666100600082015250565b6000611c14601f8361195e565b9150611c1f82611bde565b602082019050919050565b60006020820190508181036000830152611c4381611c07565b9050919050565b6000604082019050611c5f6000830185611583565b611c6c6020830184611583565b9392505050565b7f416d6f756e74206f6620444641206973206e6f7420616c6c6f77656400000000600082015250565b6000611ca9601c8361195e565b9150611cb482611c73565b602082019050919050565b60006020820190508181036000830152611cd881611c9c565b9050919050565b6000606082019050611cf46000830186611583565b611d016020830185611583565b611d0e6040830184611918565b949350505050565b60008115159050919050565b611d2b81611d16565b8114611d3657600080fd5b50565b600081519050611d4881611d22565b92915050565b600060208284031215611d6457611d63611497565b5b6000611d7284828501611d39565b91505092915050565b6000604082019050611d906000830185611583565b611d9d6020830184611918565b9392505050565b608082016000820151611dba600085018261173c565b506020820151611dcd602085018261173c565b506040820151611de060408501826117fa565b506060820151611df360608501826117fa565b50505050565b6000608082019050611e0e6000830184611da4565b92915050565b7f53656e646572206973206e6f742065786368616e676572000000000000000000600082015250565b6000611e4a60178361195e565b9150611e5582611e14565b602082019050919050565b60006020820190508181036000830152611e7981611e3d565b9050919050565b7f56616c69642072657175657374206e6f7420666f756e64000000000000000000600082015250565b6000611eb660178361195e565b9150611ec182611e80565b602082019050919050565b60006020820190508181036000830152611ee581611ea9565b905091905056fea264697066735822122037b089f0d5919a6236d6c30156d11d32c0c1af0d2220129787597c39c8a2336364736f6c634300080b0033a26469706673582212200c8ac9cd16f1277f273010fe55cf9b788456a7da95c2a6f03cea0524a447424b64736f6c634300080b0033",
  "immutableReferences": {},
  "source": "// SPDX-License-Identifier: MIT\r\npragma solidity ^0.8.3;\r\n\r\nimport \"./DFA.sol\";\r\nimport \"./Exchanger.sol\";\r\n\r\ncontract Factory {\r\n//  struct ExchangerRequestInfo {\r\n//    address user;\r\n//    uint amountToGet;\r\n//    uint amountToGive;\r\n//  }\r\n//\r\n//  struct ExchangerRequestFullInfo {\r\n//    address user;\r\n//    address dfaToGet;\r\n//    uint amountToGet;\r\n//    address dfaToGive;\r\n//    uint amountToGive;\r\n//  }\r\n//  struct DfaInfo {\r\n//    address dfaAddress;\r\n//    string name;\r\n//    string symbol;\r\n//    uint totalSupply;\r\n//  }\r\n\r\n  address[] dfaList;\r\n  mapping(address => address) dfaToExchanger;\r\n\r\n  modifier isAddressValid(address addressToCheck) {\r\n    require(addressToCheck != address(0), \"Invalid token address\");\r\n    _;\r\n  }\r\n\r\n  function createDfa(\r\n    uint initialSupply,\r\n    string memory name,\r\n    string memory symbol\r\n  ) external returns (address)\r\n  {\r\n    address dfaAddress = address(\r\n      new DFA(\r\n        initialSupply,\r\n        name,\r\n        symbol,\r\n        msg.sender\r\n      )\r\n    );\r\n    Exchanger exchanger = new Exchanger(dfaAddress);\r\n    dfaToExchanger[dfaAddress] = address(exchanger);\r\n    dfaList.push(dfaAddress);\r\n    return dfaAddress;\r\n  }\r\n\r\n  function getExchanger(address dfaAddress)\r\n    public\r\n    view\r\n    isAddressValid(dfaAddress)\r\n    returns (address)\r\n  {\r\n    return dfaToExchanger[dfaAddress];\r\n  }\r\n\r\n  function getAllDfa() external view\r\n    returns (\r\n      address[] memory,\r\n      address[] memory,\r\n      string[] memory,\r\n      string[] memory,\r\n      uint[] memory\r\n    )\r\n  {\r\n    address[] memory addresses = new address[](dfaList.length);\r\n    address[] memory owners = new address[](dfaList.length);\r\n    string[] memory names = new string[](dfaList.length);\r\n    string[] memory symbols = new string[](dfaList.length);\r\n    uint[] memory supplies = new uint[](dfaList.length);\r\n    for (uint i = 0; i < dfaList.length; i++) {\r\n      address dfaAddress = dfaList[i];\r\n      DFA dfa = DFA(dfaAddress);\r\n      addresses[i] = dfaAddress;\r\n      owners[i] = dfa.owner();\r\n      names[i] = dfa.name();\r\n      symbols[i] = dfa.symbol();\r\n      supplies[i] = dfa.totalSupply();\r\n    }\r\n    return (addresses, owners, names, symbols, supplies);\r\n  }\r\n\r\n  function getAllDfaAddresses() external view returns (address[] memory)\r\n  {\r\n    return dfaList;\r\n  }\r\n\r\n  function getBalances()\r\n    external\r\n    view\r\n    returns (address[] memory, uint[] memory)\r\n  {\r\n    address[] memory addresses = new address[](dfaList.length);\r\n    uint[] memory balances = new uint[](dfaList.length);\r\n    for (uint i = 0; i < dfaList.length; i++) {\r\n      address dfaAddress = dfaList[i];\r\n      DFA dfa = DFA(dfaAddress);\r\n      addresses[i] = dfaAddress;\r\n      balances[i] = dfa.balanceOf(msg.sender);\r\n    }\r\n    return (addresses, balances);\r\n  }\r\n\r\n//  function getAllDfaTest() public view returns (DfaInfo[] memory) {\r\n//    DfaInfo[] memory info = new DfaInfo[](dfaList.length);\r\n//    for (uint i = 0; i < dfaList.length; i++) {\r\n//      address dfaAddress = dfaList[i];\r\n//      DFA dfa = DFA(dfaAddress);\r\n//      info[i] = DfaInfo(\r\n//        dfaAddress,\r\n//        dfa.name(),\r\n//        dfa.symbol(),\r\n//        dfa.totalSupply()\r\n//      );\r\n//    }\r\n//    return info;\r\n//  }\r\n\r\n//  function getAllRequests() public view returns (ExchangerRequestFullInfo[] memory) {\r\n//    ExchangerRequestFullInfo[] requestList = address[](dfaList.length);\r\n//    for (uint i = 0; i < dfaList.length; i++) {\r\n//\r\n//    }\r\n//    return requestList;\r\n//  }\r\n\r\n//  function getAllDfaByUser(address user)\r\n//    public\r\n//    view\r\n//    isAddressValid(user)\r\n//    returns (address[])\r\n//  {\r\n//    address[] usersDfa = address[]();\r\n//    for (uint i = 0; i < dfaList.length; i++) {\r\n//      if (DFA(dfaList[i]).owner() == user) {\r\n//        usersDfa.push(dfaList[i]);\r\n//      }\r\n//    }\r\n//    return usersDfa;\r\n//  }\r\n}",
  "sourcePath": "C:\\Users\\Vladislav\\Desktop\\Learning\\  4\\DFAService\\DFAContracts\\contracts\\Factory.sol",
  "compiler": {
    "name": "solc",
    "version": "0.8.11+commit.d7f03943.Emscripten.clang"
  },
  "schemaVersion": "3.4.4",
  "updatedAt": "2022-04-21T23:22:39.585Z",
  "networkType": "ethereum",
  "devdoc": {
    "kind": "dev",
    "methods": {},
    "version": 1
  },
  "userdoc": {
    "kind": "user",
    "methods": {},
    "version": 1
  }
}